:10000000C0C00000F2C00000F0C000000C94491213
:100010000C9446120C944312E8C000000C94AB13ED
:100020000C943713E2C00000E0C00000DEC0000006
:10003000DCC00000DAC00000D8C000000C9412122E
:10004000D4C00000D2C00000D0C00000CEC000006C
:10005000CCC00000CAC00000C8C00000C6C000007C
:100060000C949312C2C00000C0C00000BEC00000CB
:10007000BCC00000BAC00000B8C00000080000000A
:10008000BE922449123EABAAAA2ABECDCCCC4C3E8D
:1000900000000080BEABAAAAAA3E00000000BF007C
:1000A0000000803F0000000000084178D3BB438778
:1000B000D1133D190E3CC3BD4282AD2B3E68EC828C
:1000C00076BED98FE1A93E4C80EFFFBE01C4FF7F11
:1000D0003F000000000070726F63657373206E6FE5
:1000E00074206F7665727269646564005365747517
:1000F0007020646F6E65004C6F5261204572726FA4
:10010000720042472D5231005275636865004C6F92
:100110005261204F4B0043616C6962004B6700578E
:100120006569676874207265660054617265004B8A
:1001300067005765696768740054696C7400C2B0E1
:10014000430054656D7065726174757265004F701F
:10015000656E00560056636300496E697469616C90
:10016000697A6520454550524F4D000A53746172BB
:1001700074001F1C1F1E1F1E1F1F1E1F1E00C513E5
:100180001F1C11241FBECFEFCDBFDFE3DEBF809168
:10019000400080934000811105C098ED21E094BF9C
:1001A000209341008CBB29E3A2E1B8E301C01D927A
:1001B000AC38B207E1F718E3A0E0B8E3E7E6F6E40D
:1001C00002C005900D92A231B107D9F710E0C0EC42
:1001D000D0E004C02197FE010E94C41FCF3BD1078D
:1001E000C9F70E94AF140C946C220ACFCF93DF930F
:1001F000DC01ED91FC9111978581837009F445C074
:10020000838180FF42C030E020E090E04581842F70
:1002100083702F5F3F4F213A5FE0350750F0823007
:1002200071F1813071F184E093E09483DF91CF919B
:10023000089543FF04C088E0858382E1F5CF8130D3
:1002400041F414968C9114978E7F878330E020E0E0
:10025000DDCF8230D9F646FFD9CF44FF04C09923C1
:1002600019F383E0E1CF15968C911597981758F400
:10027000ED01C90FD11D8D8580879F5FE7CF85E098
:10028000D3CF81E1D1CF80E0CFCF80E1CFCFCF936B
:10029000DF93DC0117961C921797ED91FC91119753
:1002A00085818370E1F114968C9114978160878326
:1002B00030E020E090E080E072E04581542F537000
:1002C0002F5F3F4F213ACFE03C0720F443FF0BC0A4
:1002D00098E0958316968C93DF91CF91089530E046
:1002E00020E097E0EACF992399F0523099F7948370
:1002F00047FF11C08032A8F72085ED01C80FD11D3E
:100300002DA78F5F861758F7748330E020E0D5CF94
:10031000523099F6EDCF46FFD0CF93E0CECF80E0BC
:10032000DBCF8FEF9FE18093D4389093D538089539
:100330006091603870916138809162389091633833
:100340000C94961C0895E0915F38F0E0EE0FFF1FCB
:10035000E55BF74C808191810196808391830895BC
:10036000E091B138F091B238309709F44DC0A285D0
:10037000B3858185928D91FF04C09C91892329F4D6
:1003800008959C91892309F03FC0A785B0899C916D
:100390008189809589238C93828993890197F1F7CC
:1003A00064897589A285B385518538E020E0CB0149
:1003B0000197F1F7822F90E095958795282F4C9122
:1003C000452309F02068315091F7828D81FD2095F9
:1003D0008091B03890E001968F7399273091AF38B3
:1003E000381799F0A091B038B0E0AC59B74C2C93C5
:1003F0008093B038868997890197F1F7A785B089EE
:100400008C919189892B8C930895828D8160828F44
:10041000F1CFAF92BF92CF92DF92EF92FF920F9304
:100420001F93CF93DF936C017B018B01040F151F8A
:10043000EB015E01AE18BF08C017D10759F06991F2
:10044000D601ED91FC910190F081E02DC601099556
:10045000892B79F7C501DF91CF911F910F91FF9003
:10046000EF90DF90CF90BF90AF9008959FB7F89432
:1004700088E08093840A80918E0A81FFFCCF80916E
:100480008D0AE091A20AF091A30A2091A53830913B
:10049000A6384091A7385091A8389FBF80FF07C069
:1004A000E730F10520F42F5F3F4F4F4F5F4FAEEF26
:1004B000B1E00E94AB1D6E0F7F1F811D911D660F65
:1004C000771F881F991F0895CF92DF92EF92FF92B6
:1004D000CF93DF936B017C01C9DFEB01C114D10421
:1004E000E104F10441F412C081E0C81AD108E10826
:1004F000F108C851DC4FBADF6C1B7D0B683E7340BE
:1005000068F3C114D104E104F10471F7DF91CF91D4
:10051000FF90EF90DF90CF9008952FB7F8946091FF
:10052000A9387091AA388091AB389091AC382FBF20
:10053000089590E0FC01E05FFA4320812F3F69F1CC
:100540008A519A43FC018081E82FE295EE0FE07E0C
:10055000E20FF0E0E05FFB4F9081917F908390E0AD
:10056000FC0134E0EE0FFF1F3A95E1F7422F50E017
:1005700061E070E001C0660F2A95EAF76383880F97
:10058000991FFC01EE5FF74C440F551F0190F0815D
:10059000E02DE40FF51F108211820895CF93DF93B1
:1005A000282F30E0F901E05FFA4390819F3F89F105
:1005B000A2E0443009F4A1E02A513A43E901E8817C
:1005C000F0E0EF01CC0FDD1FCE5FD74C28813981E1
:1005D00021153105F1F061157105D9F0492F50E071
:1005E000440F551F240F351FE901688379834FB7E6
:1005F000F8949F0155E0220F331F5A95E1F7E0E18F
:10060000E90FE20FF0E0FC5F8081887F8A2B808316
:100610004FBFDF91CF910895DC011896ED91FC91C9
:1006200084818860848308959C012B5C3F4FDC01AA
:100630001F96EC911F971E968C91E81730F4E20FED
:10064000F32FF11D808190E008958FEF9FEF0895C3
:10065000FC01DC01D59697858685981740F4A90F93
:10066000B11D2C919F5F9787822F90E008958FEFA7
:100670009FEF0895FC0186859785891B990B089546
:10068000FC01A585A03258F4A80FB92FB11D5596CD
:100690006C9385858F5F858781E090E0089590E079
:1006A00080E00895BF92CF92DF92EF92FF920F9376
:1006B0001F93CF93DF937C016A01B62EEB010C2FC1
:1006C0000B1910E00C151D0528F46991C701D8DF3E
:1006D000892BA9F7C801DF91CF911F910F91FF904E
:1006E000EF90DF90CF90BF9008952091B138309176
:1006F000B2382817390771F49091AF388091B0382B
:10070000981741F0E091AF38F0E0EC59F74C808158
:1007100090E008958FEF9FEF08950895EF92FF9274
:100720000F931F93CF93DF93DC015896ED90FC90CD
:100730005997E114F10479F481E090E012968D93D9
:100740009C93139790E080E0DF91CF911F910F91E0
:10075000FF90EF9008951D96ED91FC911E971C96C9
:100760008C911C97982F90950FB75A962C915A9769
:10077000122F127021FD6095F8942081112319F138
:10078000282B2083E7012197F1F728E0462F50E03E
:10079000308160FF1AC0382B3083E7012197F1F7D1
:1007A000BA0175956795215089F7112381F08081F1
:1007B000892380830FBF58968D919C910197F1F703
:1007C00081E090E0C1CF2923DCCF3923E5CF9081B0
:1007D000892BEFCF0F931F93CF93DF938C01D0E042
:1007E000C0E0F801EC0FFD1F6491662339F08DE63F
:1007F00099E394DF892B11F02196F3CFCE01DF919D
:10080000CF911F910F9108952091B1383091B23856
:100810002817390741F48091B0389091AF38891B7F
:100820008F7390E0089590E080E008952091B138B2
:100830003091B23828173907A1F49091AF388091E0
:10084000B038981771F0E091AF38F0E0EC59F74C00
:1008500080819091AF389F5F9F739093AF3890E005
:1008600008958FEF9FEF089590E080E00895089538
:10087000089590E080E00895CF92DF92EF92FF928A
:10088000CF93DF93EC016A017B0169897A89072E96
:10089000000C880B990B0E94981CA70196010E94DE
:1008A000F71C0E94C21EAB01BC01E881F9810084E3
:1008B000F185E02DCE01DF91CF91FF90EF90DF9099
:1008C000CF900994462F50E070E060E0DC01ED919C
:1008D000FC910084F185E02D0994FC014187528749
:1008E000638774870895CF92DF92EF92FF92CF9340
:1008F000DF93EC0169857A858B859C850E94981C25
:100900006B017C0169897A89072E000C880B990B91
:100910000E94981C9B01AC01C701B6010E945A1E9F
:10092000DF91CF91FF90EF90DF90CF90089521E07D
:10093000FC0181859285A385B485892B8A2B8B2B1D
:1009400009F420E0822F0895FC016185728583857A
:1009500094850895FC0165870895FC0166830895D8
:10096000FC01A081B0E0BC5E2C91621769F0E0E070
:10097000F0E10FB622812370E9F7F8946C936DE9EA
:1009800064BF63E060830FBE0895EF92FF921F93F0
:10099000CF93DF931F92CDB7DEB78DEDE82E88E3BE
:1009A000F82E1AE01983F70161917F01CE010196BB
:1009B000D7DF1F5F1E30B1F78DED98E30F90DF9109
:1009C000CF911F91FF90EF900895EF92FF921F93A8
:1009D000CF93DF931F92CDB7DEB788E0E82E88E390
:1009E000F82E1EE01983F70161917F01CE01019677
:1009F000B7DF1F5F1231B1F788E098E30F90DF9106
:100A0000CF911F91FF90EF9008950F931F93CF9375
:100A1000DF931F92CDB7DEB78B018983FB01608125
:100A2000CE0101969DDFC8010F90DF91CF911F91FC
:100A30000F910895CF92DF92EF92FF920F931F9341
:100A4000CF93DF931F92CDB7DEB7182FD62E072F87
:100A5000E62EF72E88E0C82EC10E1983F7016191AA
:100A60007F01CE0101967CDF1F5F1C11F6CF8D2D1B
:100A7000902F0F90DF91CF911F910F91FF90EF90EA
:100A8000DF90CF900895CF92DF92EF92FF920F9375
:100A90001F93CF93DF93CDB7DEB72897CDBFDEBFCF
:100AA0008C016A017B01DC0151966D917C91072ECE
:100AB000000C880B990B0E94981CA70196010E94BC
:100AC000F71C0E94C21EAB01BC01D801ED91FC9144
:100AD0000084F185E02DC8010995F801838D948D7E
:100AE00089839A83858D968D8B839C83818592855E
:100AF0008D839E83818992898F839887BE016F5FE2
:100B00007F4F838197DF2896CDBFDEBFDF91CF91E6
:100B10001F910F91FF90EF90DF90CF900895282FB5
:100B200030E08231A8F4F901E850FA4380818F3F28
:100B300079F02A513A43D901EC91B0E2EB9FF001F0
:100B40001124FC5F9085982381E019F480E00895DA
:100B50008FEF0895CF93DF93EC01EE8DFF8D3097EB
:100B600029F1099590E0B0E0A0E089879A87AB87EA
:100B7000BC878C8D9D8D8230910589F589859A85FC
:100B8000AB85BC854D855E856F857889481759078B
:100B90006A077B0741F0892B8A2B8B2B21F41D865A
:100BA0001E861F86188ADF91CF9108958B8D2C8D1C
:100BB0003D8D2130310561F4B2DF51E040E030E09D
:100BC00020E0811150E0852F942FA32FB22FCDCF9D
:100BD000A6DF082E000C990BAA0BBB0BC6CF039700
:100BE00011F789859A85AB85BC854D855E856F85B6
:100BF0007889481759076A077B07A9F28130910560
:100C0000A105B10581F68D879E87AF87B88BCBCFC5
:100C1000CF93DF93823108F047C090E0EC01C850D9
:100C2000DA4328812F3F09F43FC0AC014A515A43AF
:100C3000DA01EC91B0E2EB9FF0011124FC5F61114D
:100C400036C0268330812323A1F49C01205F3A43E0
:100C5000D9012C91309769F1283058F57096E20F40
:100C6000F11D3FB7F8942081611126C0277F2083B2
:100C70003FBF8E579A43FC0190819923A9F0888148
:100C8000903409F19038E1F0903171F4DA019C91DF
:100C90009130A1F4853010F0880F82959091010A6F
:100CA000809589238093010ADF91CF910895258350
:100CB000C9CFF0E0E0E0D5CF2860D9CF880FEECFE4
:100CC0001092A006F1CF20E4823009F420E8909140
:100CD000920A922349F36FB7F8949091800A9E7F0D
:100CE0009093800A4091920A30E02095309550E030
:100CF0002423352398ED94BF2093920A90918E0A75
:100D000090FFFCCF9091800A91609093800A81308F
:100D100039F4809150048F77809350046FBFC4CF13
:100D2000809151048F7780935104F8CF0F931F93D4
:100D3000CF93DF93EC01062F142F60E0898568DFE5
:100D4000EB85FC859F8188852085222319F02FB7AC
:100D50002187F89421E0228790932008809321082E
:100D60000000009324088091230887FFFCCF809126
:100D700024080000109324088091230887FFFCCFEB
:100D800010912408EB85FC858285882331F012863A
:100D90008085882311F081858FBF61E0898538DFE8
:100DA000812FDF91CF911F910F91089540E861E865
:100DB000BDCF41E861E8BACF40E0B8CFCF92DF9233
:100DC000EF92FF92CF93DF936DE18BE599E3F4DF30
:100DD00090E034E0959587953A95E1F78A30910552
:100DE0000CF03FC0FC01EE0FFF1FE80FF91FEC569F
:100DF000FA43C080D180E2800E2C000CFF086EE127
:100E00008BE599E3D9DFD82F66E28BE599E3D4DF50
:100E1000C82FD295DF7021E030E040E050E004C000
:100E2000220F331F441F551FDA95D2F7C701B601B1
:100E30000E94A81F68EE73E080E090E00E94A81F67
:100E400021313105410551058CF04C2F486066EA8F
:100E50008BE599E3DF91CF91FF90EF90DF90CF90FA
:100E600065CFCC24CA94DC2C7601C9CF4C2F477FA8
:100E7000EECFCF92DF92EF92FF920F931F93CF931B
:100E8000DF938C016AE198DFC82FD0E0F801668516
:100E90007785808991890E94981C2AEE36E54AEF71
:100EA0005DE40E94921C87FD44C08DE990E0C81B60
:100EB000D90B69E1C80180DF87FD8D5F8595859538
:100EC000682F880F770B880B990B0E94981C6B0179
:100ED0007C0120E030E0A9010E94921C87FF0DC038
:100EE000BE01DD0F880B990B0E94981CA70196018B
:100EF0000E94F61D0E94C21EEB019E01DD0F440BF5
:100F0000550B20583F4F4F4F5F4FA4E6B0E00E9473
:100F1000AB1D26E730E040E050E00E94A81FC90169
:100F2000DF91CF911F910F91FF90EF90DF90CF90C5
:100F3000089584EA90E0BBCFCF92DF92EF92FF92C8
:100F40000F931F93CF93DF937C01C62EC72FD42E10
:100F500063E132DFD82F0C2D1C2FC0E0CD1751F0EC
:100F6000CD1541F060E0C70127DFCF5FF801819325
:100F70008F01F4CF8C2F90E0DF91CF911F910F91D3
:100F8000FF90EF90DF90CF9008951F93CF93DF9362
:100F9000EC01009759F1469710F0C5E1D0E01C2F05
:100FA0004C2F66E378E38BE599E3C6DF30E02AE572
:100FB0002197832F90E08C179D073CF48A5C974C17
:100FC000FC018081280F3F5FF4CF80914A382813BD
:100FD0000DC0E091B538F091B638309739F066E33E
:100FE00078E3812FDF91CF911F910994DF91CF9109
:100FF0001F9108950F931F93CF93DF93EC0162E14C
:10100000DBDE182F482F62E9CE0190DE15FD23C0EC
:1010100016FF16C063E1CE01CFDE082F10E060E1BD
:10102000CE01CADE482F6DE8CE0180DEEA81FB8169
:10103000309789F0C801DF91CF911F910F910994EA
:1010400013FF09C0EC81FD81309729F0DF91CF912A
:101050001F910F910994DF91CF911F910F910895E6
:101060008BE599E3C7CF43E861E860DE81E090E07B
:101070000895CF93DF93EC0140E060EC57DE45E844
:1010800061E8CE0153DE81E090E0DF91CF910895D9
:1010900081E08093DC388BE599E3EBDFE091B338B6
:1010A000F091B438309709F009940895AF92BF9247
:1010B000DF92EF92FF920F931F93CF93DF93EC0198
:1010C0005B01D42E61E078DE83708330C1F062E191
:1010D000CE0172DE83FF04C048E062E9CE0126DE65
:1010E000E881F9810084F185E02DCE01099540E089
:1010F0006DE8CE011BDE40E062EACE0117DE85011D
:10110000ED2CF12CC8018A199B098E159F0538F426
:10111000F80141918F0160E8CE0108DEF3CF4D2D3B
:1011200062EACE0103DE8C819D81892B21F040E4AF
:1011300060ECCE01FBDDE881F9810288F389E02DC6
:10114000CE010995C701DF91CF911F910F91FF90BB
:10115000EF90DF90BF90AF900895FC018AE5848BFB
:10116000DF019F012C5E3F4F9D918489890F848B05
:10117000A217B307C9F71092DC3845E1BF018BE530
:1011800099E394DF8091DB38882351F08091DC383B
:10119000811106C062E070E080E090E095D9F2CF66
:1011A0000895CF93DF93CDB7DEB76597CDBFDEBF90
:1011B00089836A838EEF8B8328502C8380E1FA0128
:1011C000DE01159601900D928A95E1F7CE01019608
:1011D000C4DF6596CDBFDEBFDF91CF910895DC01FE
:1011E000EFEBF8E38091BC3880838091BD38818338
:1011F00012968C911297828315969C911597990F50
:10120000990F990F17968C91890F8383CF01A5CFE2
:101210000F931F93CF93DF938C01EB016231710524
:10122000C4F06531710514F0C4E1D0E0239747E8BC
:101230006DECC8017BDD41E36BE8C80177DD4C2F25
:101240004250406869E8C801DF91CF911F910F912A
:101250006DCD6230710514F4C2E0D0E044E86DEC6D
:10126000C80164DD4BE2E8CF8231F0F490E0FC018C
:10127000E850FA4320812F3FB9F0FC01EA51FA43CC
:10128000E08130E2E39FF0011124FC5F60FF0DC0BC
:101290002183805F9A43DC018C91E80FF11D8089E6
:1012A00061FF05C08860808B08952283F2CF877F1D
:1012B000FACFCF93DF93EC0160E08E81D5DF8E8192
:1012C000823130F443E060E378E0DF91CF9166C98A
:1012D000DF91CF910895FC0164837583672B09F03A
:1012E000E8CF8681823108F424C90895FC01628325
:1012F0007383672B09F0DDCF8681823108F419C929
:101300000895CF93DF93EC01EB85FC858091200855
:101310008E7F80932008178260E080E1A5DF60E087
:101320008FE0A2DF60E08EE09FDF60E089859CDFD8
:101330008D858F3F21F060E0DF91CF9195CFDF91D8
:10134000CF9108958F929F92AF92BF92CF92DF92EA
:10135000EF92FF920F931F93CF93DF93EC016A01FB
:101360007B0161E0898580DF61E0898551DC8D85C5
:101370008F3F91F061E078DF60E08D8549DC6AE0C5
:1013800070E080E090E0A0D861E08D8541DC6AE00B
:1013900070E080E090E098D8EB85FC858781811132
:1013A00006C01086128680E8818781E0878380915D
:1013B00001028B7F9681892B8093010286818111A6
:1013C00091C061E08EE050DF61E080E14DDF80910F
:1013D0002108846080932108809120088162809395
:1013E0002008909141398091423990932008809350
:1013F000210862E4CE01E0DC823109F07CC0E881A2
:10140000F9810680F781E02DCE010995CE86DF8631
:10141000E88AF98A46015701BB0C8808982C5401C8
:101420009601A701682D782D882D982D03E10E9443
:101430002820A12CE8E4BE2EF8EECF2EDD24D39494
:10144000E12CF12C00E010E00E94CC1FF22E832E44
:10145000942EA52EB62EC72ED82EE92E00E10E947E
:101460004320422F66E8CE0161DC2F2D382D492D17
:101470005A2D6B2D7C2D8D2D9E2D08E00E94432032
:10148000422F67E8CE0152DC4F2D68E8CE014EDCDA
:1014900040E06EE8CE014ADC40E06FE8CE0146DC79
:1014A0006CE0CE0189DC482F43606CE8CE013EDC65
:1014B00044E066EACE013ADCE881F9810084F185F6
:1014C000E02DCE01099581E090E0DF91CF911F9151
:1014D0000F91FF90EF90DF90CF90BF90AF909F90D3
:1014E0008F900895843009F072CF61E08CE0BCDE0B
:1014F00061E08AE06BCF90E080E0E7CF87FD03C03A
:101500008630C0F48C5F982F9F77903238F5909199
:101510000006992331F18F718093060681E0809354
:10152000080680910B0680FFFCCF809110069091F9
:1015300011060895813161F092EF980F933010F405
:101540008D50E1CF883031F0893031F08FEFDBCF33
:1015500080E0D9CF8AE0D7CF8BE0D5CF8FEF92E86C
:10156000089589EF92E808954F925F926F927F926B
:101570008F929F92AF92BF92CF92DF92EF92FF92A3
:101580000F931F93CF93DF93CDB7DEB72697CDBFD1
:10159000DEBF8D839E83DC015B968C91C12CD12CA8
:1015A00076018F3F09F494C01AE0C12CD12C76014A
:1015B000ED81FE81838DA2DF092E000CAA0BBB0BEF
:1015C000C80ED91EEA1EFB1E115091F7AD81BE81D7
:1015D00096960D911C91D8011C968D919D910D9020
:1015E000BC91A02D89839A83AB83BC83F8012085AD
:1015F000318542855385BC01CD010E94F61D9B01BA
:10160000AC0169817A818B819C810E945A1E4B01B9
:101610005C01D80114968D929D92AD92BC92179761
:1016200054964D905D906D907C905797C701B60190
:101630002AE030E040E050E00E94861FCA01B90174
:101640000E94961CA30192010E94F51DA501940120
:101650000E94F71CA30192010E94F61D6B017C0100
:10166000F801C08AD18AE28AF38AAC019B01C301E6
:10167000B2010E94F51D9F77D8012D913D914D91AA
:101680005C910E94F71C2B013C01A501940160E0D4
:1016900070E080E89FE30E94F51D29813A814B812B
:1016A0005C810E94F71C9B01AC01C301B2010E9446
:1016B000F61DF8016487758786879787C48AD58A5F
:1016C000E68AF78AC701B6010E94C71E6B017C013A
:1016D000AD81BE819296ED91FC9193970D911C91F5
:1016E000309761F1D8011C960D911C91AD81BE819E
:1016F00090962D913C9191975E964D915C915F975C
:101700005C966D917C91C6010995AB01BC018D8100
:101710009E81F8012696CDBFDEBFDF91CF911F914C
:101720000F91FF90EF90DF90CF90BF90AF909F9080
:101730008F907F906F905F904F900994A0910038A8
:10174000B0910138A70196010E94AB1D2FEF33E045
:1017500040E050E00E94861FBA01A901D801189606
:10176000ED91FC918D819E812696CDBFDEBFDF91EC
:10177000CF911F910F91FF90EF90DF90CF90BF908E
:10178000AF909F908F907F906F905F904F90099453
:10179000660FFC0164871586089560914539809134
:1017A000433990914439F4DF809143399091443921
:1017B00008960E94F60091E0811190E0892F08952B
:1017C000CF93C82F60914539809143399091443926
:1017D000DFDF8091433990914439DC01ED91FC9138
:1017E0000190F081E02D6C2F099580914339909103
:1017F000443908960E94F600882319F08FEFCF91A4
:101800000895E0914339F091443990914539990F09
:10181000948761E0CF0108960E9447018091433987
:1018200090914439DC01ED91FC910084F185E02D2B
:101830000995892B19F38091433990914439DC0142
:10184000ED91FC910284F385E02D0995D8CFCF93DB
:10185000DF93D82FC62F60914539809143399091FD
:10186000443996DF8091433990914439DC01ED9100
:10187000FC910190F081E02D6D2F09958091433905
:1018800090914439DC01ED91FC910190F081E02DC3
:101890006C2F0995809143399091443908960E94A4
:1018A000F60091E0811190E0892FDF91CF910895AA
:1018B000CF93DF93D82FC62F862F82DF61E070E0B1
:1018C00001C0660FDA95EAF7682B8C2FDF91CF9174
:1018D000BECFCF9360E081E0EBDF60E082E0E8DF45
:1018E000C6E680E06DDF83FD0BC061E070E080E064
:1018F00090E00E946402C150A1F780E0CF9108956A
:1019000060E084E0CF91D4CFCF93DF93D82FC62F60
:10191000862F56DF61E070E001C0660FDA95EAF7C6
:10192000609568238C2FDF91CF9191CF4F925F927A
:101930006F927F928F929F92AF92BF92CF92DF92DF
:10194000EF92FF92CF93DF93D82F0E948D022B014D
:101950003C01812C912C5401C0E080E031DF85FFF7
:1019600027C060914539809143399091443910DF07
:101970008091433990914439DC01ED91FC910190C3
:10198000F081E02D62E109958091433990914439CD
:1019900008960E94F6008823F1F0C12CD12C760124
:1019A0008C0C9D1CAE1CBF1CCF5FCD1709F46FC003
:1019B0000E948D026419750986099709693E734072
:1019C0008105910508F07CC061E070E080E090E066
:1019D0000E946402C2CFE0914339F0914439909162
:1019E0004539990F948763E0CF0108960E9447011B
:1019F0008091433990914439DC01ED91FC91008450
:101A0000F185E02D0995892B41F280914339909120
:101A10004439DC01ED91FC910284F385E02D0995B8
:101A20006C018091433990914439DC01ED91FC9136
:101A30000284F385E02D09950D2C000CEE08FF08BB
:101A40007601DD24CC24092E000CAA0BBB0BBA2F87
:101A5000A92F982F8827C82AD92AEA2AFB2A8091F9
:101A6000433990914439DC01ED91FC910284F38576
:101A7000E02D0995092E000CAA0BBB0B8C299D2982
:101A8000AE29BF29A7FDBF6F6C017D0189CF2C2F27
:101A900030E050E040E0C501B4010E94A81FCA0137
:101AA000B901DF91CF91FF90EF90DF90CF90BF9081
:101AB000AF909F908F907F906F905F904F90089520
:101AC00020E030E0A901EBCF0F931F93CF93DF937A
:101AD000C4E0D0E080E074DE85FF2DC088E026DF22
:101AE000582F492F00914639109147392091483994
:101AF00030914939CB01A52FB42F80179107A20748
:101B0000B30714F4D901C801BC01CD01601B710BEE
:101B1000820B930B0E94981C20914A3930914B39CB
:101B200040914C3950914D390E945A1EDF91CF910E
:101B30001F910F91089564E670E080E090E00E94AC
:101B40006402219739F66DEC7CEC87EC92ECEECFD9
:101B5000E0EAF0E081818D7F8183A0E0B6E012961B
:101B60008C9112978F7C806512968C9380E4808391
:101B70008DE9C4DC8DE9C2DC9C0150E040E064E208
:101B80007AE687E190E00E94861F20930038309328
:101B90000138B90190E080E00E94961C20E030E01E
:101BA0004AE754E40C945A1EFC0101900020E9F726
:101BB0003197AF01481B590BBC018DE699E30C949A
:101BC0000902CF93DF930E94EA03EC018CE196ECCB
:101BD000EBDF8C0F9D1FDF91CF91089586ED90E094
:101BE000F0CF8F929F92AF92BF920F931F93CF939C
:101BF000DF93CDB7DEB7A197CDBFDEBF19A24230CC
:101C000008F44AE08E010F5D1F4F842E912CB12CF9
:101C1000A12CA50194010E94861FE62FB901CA01DB
:101C2000EA30D4F4E05DD801EE938D01232B242B10
:101C3000252B79F790E080E0109711F0CD01B4DF0B
:101C4000A196CDBFDEBFDF91CF911F910F91BF90C5
:101C5000AF909F908F900895E95CE5CFCF92DF928F
:101C6000EF92FF92CF93DF936B017C016DE28DE6E3
:101C700099E30E948E03EC0166277727CB016C194C
:101C80007D098E099F094AE0ACDF8C0F9D1FDF9113
:101C9000CF91FF90EF90DF90CF900895CF93DF9397
:101CA000D0E0C0E0009711F07FDFEC018CE196EC12
:101CB0007BDF8C0F9D1FDF91CF910895CF93DF9332
:101CC000682F70E090E080E04AE08BDFEC018CE16F
:101CD00096EC6ADF8C0F9D1FDF91CF9108954F9294
:101CE0005F926F927F928F929F92AF92BF92CF92AC
:101CF000DF92EF92FF926B017C01AC019B010E948D
:101D00003C1F8823B1F08FE196EC4EDF7C018CE123
:101D100096EC4ADF8E0D9F1DFF90EF90DF90CF90E5
:101D2000BF90AF909F908F907F906F905F904F90FB
:101D3000089546015701E894B7F82FEF3FEF4FE7BA
:101D40005FE7C501B4010E943C1F81110DC02FEF58
:101D50003FEF4FE75FE7C501B4010E94921C1816E0
:101D60001CF483E296ECD1CF2FEF3FEF4FE75FE417
:101D7000C701B6010E94F31E18161CF487E296EC08
:101D8000C4CF2FEF3FEF4FE75FECC701B6010E94D2
:101D9000921C87FDF3CF20E030E0A901C701B60116
:101DA0000E94921CB12CA12C87FF0AC06DE28DE627
:101DB00099E30E948E035C01F7FAF094F7F8F0942F
:101DC0002AE037ED43EA5BE3C701B6010E94F61D46
:101DD0002B013C010E94C71E6B017C010E94961CD6
:101DE0009B01AC01C301B2010E94F51D2B013C0116
:101DF0004AE0C701B601F5DE7C01EA0CFB1C8BE270
:101E000096ECD2DEE80EF91E20E030E040E251E42C
:101E1000C301B2010E94F71C2B013C010E94C71EA6
:101E20004B01B12CA12C4AE0C501B401DADEE80E69
:101E3000F91EC501B4010E94961C9B01AC01C301AF
:101E4000B2010E94F51D20E030E040E251E40E9422
:101E5000F71C0E94C71E90E080E04AE0C2DEE80E58
:101E6000F91E55CFCF92DF92EF92FF920F931F93FF
:101E7000CF93DF93882369F1EB0188818F3F91F540
:101E800099818091BC38981324C08A818B3F09F5D1
:101E90000E948D02AB01BC018091BD382EE1829F72
:101EA000C0011124092E000CAA0BBB0B88519C4FBA
:101EB000AF4FBF4F840F951FA61FB71FBC01CD01A9
:101EC00061606093D7387093D8388093D9389093F5
:101ED000DA38DF91CF911F910F91FF90EF90DF9053
:101EE000CF9008959091BD388913F3CF8091B73882
:101EF000882369F18A818E3F51F58B818770863006
:101F0000C9F48C818111E5CF8D818093BD386DEB53
:101F100078E380E00E9405058DE296EC45DE809135
:101F2000BD38DF91CF911F910F91FF90EF90DF901F
:101F3000CF90C4CE873069F689818093BC386CEB32
:101F400078E381E00E9405051092B738C2CF009176
:101F5000B8381091B9380115110549F18A818830D6
:101F600031F56C817D818E819F810E94981C6B016F
:101F70007C016885798590E080E00E94961C9B0139
:101F8000AC01C701B6010E945A1EAB01BC01D801C9
:101F9000ED91FC910484F585E02DC801DF91CF918E
:101FA0001F910F91FF90EF90DF90CF900994809157
:101FB000BA389091BB38892B39F18A81873021F565
:101FC00061E08CE00E94080688E0B0DC609346394E
:101FD0007093473980934839909349396093DD383D
:101FE0007093DE388093DF389093E0380E94C50408
:101FF00060E08CE0DF91CF911F910F91FF90EF9007
:10200000DF90CF900C940806012B09F462CF8A81EF
:10201000893009F05ECF61E08CE00E940806809173
:10202000B8389091B938DC01ED91FC910480F581CC
:10203000E02D09956B017C0188E078DC0091463940
:10204000109147392091483930914939601B710B03
:10205000820B930B0E94981CA70196010E945A1EA6
:1020600060934A3970934B3980934C3990934D3932
:10207000609308387093093880930A3890930B382E
:102080002EDE0E94E504B4CFCF93DF93EC01609184
:10209000543970E06F5F7F4F660F771F8091523920
:1020A000909153390E9497218093523990935339DC
:1020B0000097D1F020915439E22FF0E0EE0FFF1F8E
:1020C000E80FF91FC083D1832F5F2093543930E08C
:1020D00021503048220F331F820F931FFC01808153
:1020E0009181DF91CF91089590E080E0FACFCF9376
:1020F000DF93CDB7DEB76097CDBFDEBFDC011596AD
:102100002D913C912C30310589F5FC019E01235F16
:102110003F4F84E0D9011D928A95E9F78281898336
:10212000818992898A879B87838D948D092E000CE3
:10213000AA0BBB0B8A839B83AC83BD83858D968D55
:10214000092E000CAA0BBB0B8E839F83A887B9872F
:1021500081E090E08C879D8723E030E0AE014F5F07
:102160005F4F6091BD388091BC381BD86096CDBF61
:10217000DEBFDF91CF9108958F929F92AF92BF9271
:10218000CF92DF92EF92FF920F931F93CF93DF9343
:102190007C01EB018901BA0190E080E00E94961C6D
:1021A0004B015C01B70190E080E00E94961C9B010E
:1021B000AC0160E070EC8FE794E40E945A1E20E0CE
:1021C00030E040E85FE30E94F51D9B01AC01C501D2
:1021D000B4010E945A1E6B017C01B80190E080E0BE
:1021E0000E94961C9B01AC01C701B6010E945A1EB9
:1021F0000E94FC1E6B017C01BE0190E080E00E9409
:10220000961C9B01AC01C701B6010E945A1E2FE02B
:102210003FEC4BE55BE30E94F61D9B01AC0160E0E7
:1022200070E080E89FE30E945A1E23E333E948E808
:1022300053E40E94F51DDF91CF911F910F91FF9004
:10224000EF90DF90CF90BF90AF909F908F900895C8
:102250005F926F927F928F929F92AF92BF92CF9236
:10226000DF92EF92FF920F931F93CF93DF93EC01D6
:10227000562E49014A838FEF9FEF8B839C83662400
:102280006394712C6F827886B5010B2C000C880B3F
:10229000990B0E94981CA70196010E94F71C0E94AE
:1022A000C21E6B8B7C8BA98ABA8A8D8A9E8A0F8B01
:1022B000188F81EC9DEBA0EFBFEF89879A87AB87E2
:1022C000BC878EE392E4AFE0B0E08D879E87AF8756
:1022D000B88B198E1A8E8CEF94EC888399835B8E61
:1022E0001AA21BA21CA21DA218A219A21E8E1F8E2A
:1022F0001C8E1D8E6D827E82AA94AB2821F082E016
:1023000090E08F839887EFEF5E16D1F160E0852D26
:102310000E9434098B8DF2D87C0188E190E00E9404
:1023200072208C018FE892ECA5EFBCE3F80180836A
:102330009183A283B383148215821682178280E070
:1023400090E0A0E8BFE380879187A287B38780E011
:1023500090E0A0E0B0E484879587A687B787108ACD
:10236000118A128A138AB701FF0C880B990B0E94FD
:10237000981CF801648B758B868B978B0EA31FA31B
:10238000DF91CF911F910F91FF90EF90DF90CF9051
:10239000BF90AF909F908F907F906F905F900895C7
:1023A000EF92FF920F931F93CF93DF93CDB7DEB7DA
:1023B000A297CDBFDEBFFC016185728583859485C0
:1023C0002AE0AE014F5F5F4F7A010E94531CF70174
:1023D00001900020E9F7BF016E197F0990E080E0CD
:1023E0000E9497218C01009719F0B7010E94562294
:1023F000C8010E940E21C801A296CDBFDEBFDF91A9
:10240000CF911F910F91FF90EF900895DC0194966A
:10241000ED91FC919597309721F019968D919C91B3
:102420000994BECF8F9381E080938D0A8FB78F93ED
:10243000EF93FF93E5EAF8E39F9368948FEF0FC063
:10244000E894848195818C5E9F4F84839583885E18
:10245000934010F08FEF03C0848395838EEF9081BB
:10246000981B919390819F4F919390819F4F91934F
:1024700090819F4F919326F39F91FF91EF918F91C0
:102480008FBF8F9118950F9304E006C00F9302E061
:1024900003C00F9300E000C00F920FB60F921F927F
:1024A0001124FF921F932F933F934F935F936F934A
:1024B0007F938F939F93AF93BF93CF93DF93EF93CC
:1024C000FF93A2E0B8E3A00FB11DCD91DC91000F06
:1024D0000D5FA02FB0E0FC90109761F01F2D1695B6
:1024E00018F041F02296FBCFE991F9913097B9F3BA
:1024F0000995F5CFA02FB0E0FC92FF91EF91DF910D
:10250000CF91BF91AF919F918F917F916F915F918B
:102510004F913F912F911F91FF901F900F900FBEF1
:102520000F900F9118951F920F920FB60F921124D2
:102530001F932F933F934F935F936F937F938F934B
:102540009F93AF93BF93CF93DF93EF93FF93C9EE26
:10255000D8E3E881F981838586FF56C080FF41C0BA
:10256000158581FF38C08E81882359F08091A43869
:1025700080935000EB85FC85309719F08E8190E0B8
:1025800009951C831D821886E985FA85309709F024
:1025900009958D81882319F183E0909150009093E3
:1025A000A438917090935000E881F9818287FF915F
:1025B000EF91DF91CF91BF91AF919F918F917F91DB
:1025C0006F915F914F913F912F911F910F900FBE8F
:1025D0000F901F9018951C831E821F82DDCF86E00E
:1025E000DCCF8091A43880935000EB85FC85309738
:1025F00029F08E81882311F090E009951E821D82BA
:102600001F82188682E0D0CF87FF2FC081FF1EC0B7
:10261000887139F08A8183FF04C01D82877F8A8395
:10262000F1CF8B818F5F8B838A8188608A83A885B5
:102630008D81A81738F7AC0FBD2FB11D1D968C9159
:10264000858788858F5F888783E0AECF8585EE811B
:10265000E03258F4EC0FFD2FF11D85A78E818F5FBE
:102660008E83803288F386E09FCF80E09DCF1F92DB
:102670000F920FB60F9211242F933F934F935F93B6
:102680006F937F938F939F93AF93BF93EF93FF933A
:1026900081E080930B0A80915F3890E001966AE0B8
:1026A00070E00E94731F80935F38E0915F38F0E024
:1026B000EE0FFF1FE55BF74C10821182109260381D
:1026C00010926138109262381092633890E080E086
:1026D000FC01EE0FFF1FE55BF74C2081318140913B
:1026E0006038509161386091623870916338420F60
:1026F000531F611D711D4093603850936138609382
:1027000062387093633801968A30910509F7809199
:10271000603890916138A0916238B0916338853605
:102720009105A105B10530F08FEF9FE18093D4387A
:102730009093D538FF91EF91BF91AF919F918F9179
:102740007F916F915F914F913F912F910F900FBEAD
:102750000F901F9018951F920F920FB60F92112491
:102760008F939F9381E0809353018091D43890910F
:10277000D53801968093D4389093D5389F918F9116
:102780000F900FBE0F901F901895CF931092E338C3
:102790001092E43888EE93E0A0E0B0E08093E53852
:1027A0009093E638A093E738B093E83826EB35EC01
:1027B0002093E1383093E23820E138E02093E93883
:1027C0003093EA38C4E0C093423921E32093413981
:1027D00020E238E0209336393093373910923D3972
:1027E00010926F39109270398093713990937239C9
:1027F000A0937339B09374398EE096EC80936D3961
:1028000090936E3910927F391092803910928139ED
:10281000109282391092833910928439109285393E
:1028200010928639609187396E7F6D7F609387390A
:102830006695617081E0682787E00E94080661E084
:1028400087E00E943409C093793984E294E0809350
:102850007A3990937B3960E086E00E943409809158
:10286000873981FD04C061E086E00E94080686E0A9
:102870008093753988E08093763988E294E080937C
:1028800077399093783988EC95EC80935B39909305
:102890005C3981E38093623984E0809363391092DC
:1028A00064391092653983E08093683982E08093BF
:1028B000613986E399E38093663990936739109282
:1028C000693910926A3910926B3910926C391092F2
:1028D0005A39109259391092583910925539E2E705
:1028E000F1E081E08C3049F09491823009F49F5FEF
:1028F00021E0280F3196992381F18093563981E0A8
:10290000809357391092523910925339109254399A
:102910008AE28093453910924639109247391092D5
:1029200048391092493980E090E0A0E8BFE38093F5
:102930004A3990934B39A0934C39B0934D398AEF73
:1029400090E0A0E0B0E080934E3990934F39A0938F
:102950005039B0935139CF910895822FC3CFCF937F
:10296000DF93CDB7DEB7E097CDBFDEBF88ED93E054
:1029700084BF90936100E0E0F6E081E582838AE025
:10298000858380E2838381E08083109202028093BA
:10299000030A9EEF9093260A9093270A99E090935A
:1029A000000AE0E8FAE02DEF31E026A737A7118210
:1029B00090E89283848781E18083789485E090E039
:1029C000809385399093863981E090E080937F39B8
:1029D0009093803923E030E020938139309382391D
:1029E000809383399093843980917539823128F4AA
:1029F00044E060EB71E00E94CE02809185399091B5
:102A000086390197F1F78091833990918439892B28
:102A100049F1E091B138F091B23829E3ED36F2078F
:102A200009F1309739F0A785B0899C91818980950B
:102A300089238C93809187398E7F80938739109278
:102A4000B0381092AF388DE699E38093B138909307
:102A5000B238E0917C39F0917D39808190917E3956
:102A6000892B80838BE691E0ACD861E08CE00E94FA
:102A7000340960E083E00E94340983E00E947E0A0A
:102A80008436910584F561E08CE00E9408060E947E
:102A90008D026131774281059105D8F064E670E0DE
:102AA00080E090E00E94640260E08CE00E940806F2
:102AB0000E948D02613177428105910578F064E6CC
:102AC00070E080E090E00E94640281E08093BE3874
:102AD000D4CF6CE271E080E090E0E4CF6CE271E092
:102AE00080E090E0F0CF0E948D0261317742810555
:102AF000910508F43BC28FEF8093BD3861E08CE014
:102B00000E9408068091BD388F3F41F589E591E02C
:102B100058D886E48093BD381092BC386DEB78E3CA
:102B200080E00E9405056CEB78E381E00E940505DA
:102B300088E0E0EFF4ECDE01119601900D928A95A9
:102B4000E1F7BE016F5F7F4F82E00E941A050E948D
:102B5000C5040E94E50481E08093BE388091011491
:102B60008093BC3880910A148093DD3880910B14D7
:102B70008093DE3880910C148093DF3880910D149F
:102B80008093E03880910E148093083880910F1460
:102B9000809309388091101480930A388091111421
:102BA00080930B388AE396EC0E94D40D8091BC3858
:102BB00085D880E496EC0E94D40D6091DD38709148
:102BC000DE388091DF389091E03897FFDCC146D83D
:102BD0008CE196EC0E94D40D86E496EC0E94D40D14
:102BE000609108387091093880910A3890910B38BB
:102BF00076D888E290E00E9472204C0134E6A32E41
:102C0000B12C4AE0C42E47EDD42E43E2E42E4CE32F
:102C1000F42E03E511E025E531E041E06FEF18DB2C
:102C2000C40132DAFC0188EA9DE082A393A3148EEA
:102C3000158E168E178E10A211A280E290E00E94CF
:102C400072208C0182E0D80112968C9312978FEF3C
:102C50009FEF13968D939C9314978DE090E01596BB
:102C60008D939C931697EE24E394F12C1796ED9296
:102C7000FC92189753961D921C9254975196ED9280
:102C8000FC9252978EE491E055968D939C935697C3
:102C900057961D921C92589781EC9DEBA0EFBFEFC9
:102CA000F80181879287A387B4878EE392E4AFE02F
:102CB000B0E085879687A787B08B118E128E86E24B
:102CC00095EC8083918381E0838FE48EF58E168E60
:102CD000178E62E00E943409D8015C962D913C91D8
:102CE0005D972230310508F05AC115961D921C924D
:102CF000169717961D921C9218975B968C9121300F
:102D0000310509F044C10E948F0551E040E030E0F8
:102D100020E0811150E0852F942FA32FB22FF801CE
:102D200081879287A387B487C801AED944E061E95F
:102D300071E081E00E94CE0288E290E00E94722061
:102D40004C010AE0A02EB12C8DECC82E8CECD82EB4
:102D50008CE4E82E8EE3F82E0EE311E022E431E05D
:102D600043E065E0C40174DAC4018ED9FC018CEB48
:102D700090E182A393A38EE69FE0848F958F8CE5EC
:102D800092E1868F978F88E893E180A391A388E2F0
:102D900090E00E9472204C01AA24A394B12CC12C73
:102DA000D12C20E8E22E2FE3F22E10E000E029E300
:102DB00031E045E06FEFC4014BDAC40165D9FC0195
:102DC00088E991E082A393A3148E158E168E178E38
:102DD00010A211A262E08DE00E94340944E063EA8F
:102DE00071E08DE00E94CE028091EB3881FD27C01A
:102DF00082FD25C08091010284FFE7C086E08093B8
:102E000006048091EB3882608093EB38E091E938DA
:102E1000F091EA3881E0838385839091EB3891FFCC
:102E200023C096819E3079F0238113829EE09683A1
:102E300090819D7F9083238320FF05C085838091AF
:102E4000EB3881FF11C0E091E938F091EA388681D2
:102E5000813051F02381138291E0968380818D7FB0
:102E60008083238320FD958381EE98E3809343390B
:102E7000909344390E94CD0B882309F4AAC060E0E6
:102E800080E00E94580C61E070E080E090E00E94D9
:102E9000640260E080E00E94840C182F0E94690C9C
:102EA000182381E00E94E00B877C682F606281E03C
:102EB0000E94270C60E087E00E94580C182381E0F4
:102EC0000E94E00B887F682F656081E00E94270CDC
:102ED000182382E00E94E00B8F78682F606182E007
:102EE0000E94270C182385E10E94E00B682F606385
:102EF00085E10E94270C18236CE187E00E94580CA2
:102F000018236BE186E00E94840C182360914E39EF
:102F100070914F3980915039909151390E946402DB
:102F20008AE00E94960C82E00E94E00B682F6C7F82
:102F300082E00E94270C62E082E00E94580C0E940E
:102F40008D026B017C0182E00E94E00B82FF48C091
:102F50000E948D026C197D098E099F09693E73409C
:102F60008105910508F466C290E040C0809100148C
:102F70008093BD3885E396EC0E94D40D8091BD38D6
:102F80000E945E0EBBCD4AE00E94F10D21CE0E9450
:102F90008F05082E000C990BAA0BBB0BC0CE88E046
:102FA00090E015968D939C9316971796ED92FC9250
:102FB000189719968D919D910D90BC91A02DF801B7
:102FC00085879687A787B08BAFCE83E08093260452
:102FD00018CF0E94CD0B811152CF87E596EC36C1F8
:102FE00082E00E94E00B91E083FDBECF1123A9F3A4
:102FF000992399F388E290E00E9472204C01BAE094
:10300000AB2EB12C1DECC12E1CECD12EED2C1DE3F2
:10301000F12E0FE211E022E331E046E06FEF18D924
:10302000C40132D8FC0184E69DE082A393A3148EF0
:10303000158E168E178E10A211A28BE190E00E94C1
:103040007220FC0187E082838FEF9FEF838394835C
:10305000138A148A01E010E0018B128B8AE291E05E
:10306000858B968B178A108E81EC9DEBA0EFBFEFBE
:1030700081879287A387B4878EE392E4AFE0B0E0C4
:1030800085879687A787B08B118E128E8EE695EC7A
:103090008083918381E190E08583968383E090E053
:1030A00087839087CF010E9444108093BA38909311
:1030B000BB388FE190E00E947220FC018EE395EC1A
:1030C0008083918388E0828322E030E0238334830D
:1030D0008DE090E08583968307831087138A148A96
:1030E000018B128B8FE191E0858B968B8CE191E0C7
:1030F000878B908F8091021490E0B0E0A0E08095E3
:103100009095A095B09585879687A787B08B118EEF
:10311000128E86E595EC80839183809102148983D9
:10312000809103148A83809104148B838091051409
:103130008C83809106148D83809107148E838091F7
:1031400008148F838091091488878D819E81092EB0
:10315000000CAA0BBB0B81879287A387B487898158
:103160009A81838F948F8B819C81858F968F8F819D
:103170009885818B928B4CE050E045835683019774
:1031800011F027833087CF010E9444108093B83814
:103190009093B9388BE190E0A5D7FC0189E0828358
:1031A0008FEF9FEF83839483138A148A81E090E0EA
:1031B000818B928B86E191E0858B968B178A108E9E
:1031C00081EC9DEBA0EFBFEF81879287A387B48747
:1031D0008EE392E4AFE0B0E085879687A787B08B57
:1031E000118E128E8EE695EC8083918381E190E0C2
:1031F0008583968383E090E087839087CF010E9448
:1032000044108091DD389091DE38A091DF38B09184
:10321000E0388093463990934739A0934839B0936A
:1032200049398091083890910938A0910A38B091B5
:103230000B3880934A3990934B39A0934C39B09313
:103240004D3984E10E94960C8EE496EC0E944E0E5D
:1032500011E01093DB3882E39FE08093B5389093C0
:10326000B6381092B3381092B43840E45EE06FEC98
:1032700079E18BE599E30E94A209892B09F4E1C069
:1032800085EC97E080935D3990935E398BE599E307
:103290000E94590988E498E080935F3990936039DF
:1032A0008BE599E30E9459096EE070E08BE599E3A4
:1032B0000E94080943EC61EB8BE599E30E949606B6
:1032C0004AE067EB8BE599E30E9496066EE18BE599
:1032D00099E30E94DC068F70482F40696EE98BE508
:1032E00099E30E9496060E94DE066DE18BE599E364
:1032F0000E94DC068F70482F40676DE98BE599E3EB
:103300000E9496060E94DE066DE18BE599E30E941D
:10331000DC06817F482F42606DE98BE599E30E94CE
:1033200096068BE599E30E9439081093D6388EE013
:1033300091E00E94E10D8091BE388111A0C0F89407
:10334000809141018111FCCF1092470181E080936F
:10335000520191E7909350019EE09093000A2CE077
:1033600033E02093260A3093270A80930A0A80913B
:10337000000A81608093000A789460E08CE00E94EB
:1033800008068CEE90E00E94E10D8FEF9FE18093A4
:10339000D4389093D53843EC842E48E3942E50E1F2
:1033A000552EC090D738D090D838E090D938F090CA
:1033B000DA38C114D104E104F10449F00E948D020D
:1033C00066246394C616D706E806F90608F0612C51
:1033D0008091D638882329F38091D4389091D538BC
:1033E0000A9710F46620E9F21092D4381092D5387A
:1033F000809100068160809300060E94690C10E0B5
:1034000080915439181708F04DC1812F90E0880F32
:10341000991FE0915239F0915339E80FF91F8081DB
:103420009181DC01ED91FC910088F189E02D0995F5
:103430001F5FE6CF61E070E080E090E00E946402F0
:1034400082CD1092D63887EF90E00E94E10D13E014
:1034500061E08CE00E94080664E670E080E090E0A5
:103460000E94640260E08CE00E94080664E670E05E
:1034700080E090E00E946402115051F760CF8FEF1E
:103480008093BC388E010D5D1F4FFEE0FF2ED801EA
:10349000EF2D1D92EA95E9F78EEF89A38DE08AA3BF
:1034A00083E08BA345E050E068E071E0CE018496B4
:1034B000EBD130E020E0AE014F5D5F4F6091BD3851
:1034C0008091BC380E94D108D8011D92FA94E9F786
:1034D00045E050E062E071E0C801D6D122E030E082
:1034E000AE014F5D5F4F6091BD388091BC380E9446
:1034F000D1081BA227E030E0AE014F5D5F4F609125
:10350000BD388091BC380E94D108D12C4E01B3E166
:103510008B0E911CAEE0CA2E80915439D81608F05B
:1035200090C08D2D90E0880F991FE0915239F09155
:103530005339E80FF91F00811181F8018281882336
:1035400009F47DC0D401EC2D1D92EA95E9F7898B31
:10355000D80115968C9115978A8B17968C91179791
:103560008B8B5596ED90FC90C70185D18D309105E0
:1035700010F08DE090E0AC01B701CE01449684D10B
:1035800030E020E0AE014F5E5F4F6091BD3880912A
:10359000BC380E94D108F801A788B08CA114B104EE
:1035A00051F1C50168D17C01892B29F1D80112960E
:1035B0008C918983A701BEE0EB16F10410F04EE078
:1035C00050E0B501CE0103965FD1EEE0EE16F104B6
:1035D00038F4E3E0F0E0EC0FFD1FEE0DFF1D10826C
:1035E00021E030E0AE014F5F5F4F6091BD388091C8
:1035F000BC380E94D108D801ED91FC910288F38972
:10360000E02DC8010995F4012C2D11922A95E9F7B6
:10361000D80112968C911297898B15968C911597DB
:103620008A8B17968C918B8B27E030E0AE014F5E32
:103630005F4F6091BD388091BC380E94D108D3940F
:103640006BCF81E08093B73863E0C62ED12CE12C9C
:10365000F12C812C912C54018A9493948091B73849
:10366000882309F46CCE0E948D02A70196014ED4E6
:10367000CA01B901A501940149D46F5F710977FFAF
:1036800003C0719561957109603871054CF460E073
:103690008CE00E94080661E08CE00E943409DECFD5
:1036A00061E0F6CF712C80915439781608F0B1C0E2
:1036B000872D90E0880F991FE0915239F09153398E
:1036C000E80FF91F00811181F80181859285A3859A
:1036D000B485E584F684E81AF90AF7FE03C0F1948C
:1036E000E194F108F801A388B488AE14BF041CF07B
:1036F000662009F45EC0F8012281222309F459C032
:1037000085879687A787B08B0580F681E02DED3001
:10371000F10508F03DC0E257F44E36C49B1B9B1BDD
:103720009B1BC81BDF1BC81BC81BDF1B9B1BC81BAD
:10373000C81BDF1B9B1BD80155968D919C910E9445
:10374000EA0383E696EC0E94D40DF8016185728548
:103750008385948597FF2FC00E942E0E8CE196ECF6
:103760000E94D40DF80181859285A385B48580934C
:10377000C3389093C438A093C538B093C6388189B4
:1037800092898093C7389093C838C8010E94EF0887
:10379000AE14BF0474F4D8015996ED91FC915A9778
:1037A000309739F019966D917D918D919C911C9770
:1037B0000995739478CF4AE00E94F10DCFCFD801DC
:1037C000ED91FC910680F781E02DC80109956C010F
:1037D000F801858996890E94EA0383E696EC0E94A7
:1037E000D40DC6010E944E0EF60101900020E9F7AB
:1037F0003197D401252D1D922A95E9F7EC19E13175
:1038000008F0E0E14E2F50E0B60183EC98E355D686
:10381000BCCF1092D7381092D8381092D938109265
:10382000DA3860E081E00E94840C60E082E00E946F
:10383000840C809100068E7F80930006B2CD8EE0CE
:1038400096EC80936D3990936E398091B138909158
:10385000B2388D56994371F4E0917C39F0917D39FD
:10386000908180917E398095892380831092B13830
:103870001092B2380895FC0105900020E9F7809578
:1038800090958E0F9F1F0895FB01DC014150504021
:1038900048F005900D920020C9F701C01D924150DB
:1038A0005040E0F70895BB272A3051F4992342F4A1
:1038B000BDE290958095709561957F4F8F4F9F4F9A
:1038C00001C0BB27FA01A62F62177105810591057A
:1038D000330B30FB66F0AA27660F771F881F991FEE
:1038E000AA1FA21710F0A21B63953850A9F7A05D7C
:1038F000AA3308F0A95DA19336F7B111B1931082F4
:10390000CA0100C0DC01FC01672F71917723E1F748
:10391000329704C07C916D9370836291AE17BF079C
:10392000C8F3089540D008F481E00895E89409C0F0
:1039300097FB3EF490958095709561957F4F8F4FE2
:103940009F4F9923A9F0F92F96E9BB279395F695F8
:10395000879577956795B795F111F8CFFAF4BB0F76
:1039600011F460FF1BC06F5F7F4F8F4F9F4F16C0DA
:10397000882311F096E911C0772321F09EE8872F64
:10398000762F05C0662371F096E8862F70E060E020
:103990002AF09A95660F771F881FDAF7880F969599
:1039A000879597F90895990F0008550FAA0BE0E83D
:1039B000FEEF16161706E807F907C0F012161306F1
:1039C000E407F50798F0621B730B840B950B39F431
:1039D0000A2661F0232B242B252B21F408950A2697
:1039E00009F4A140A6958FEF811D811D08950BD08C
:1039F00078C069D028F06ED018F0952309F05AC02D
:103A00005FC01124A2C07ED0A0F3959FD1F3950F83
:103A100050E0551F629FF001729FBB27F00DB11D52
:103A2000639FAA27F00DB11DAA1F649F6627B00DE2
:103A3000A11D661F829F2227B00DA11D621F739FCB
:103A4000B00DA11D621F839FA00D611D221F749FD9
:103A50003327A00D611D231F849F600D211D822F20
:103A6000762F6A2F11249F5750408AF0E1F0882367
:103A70004AF0EE0FFF1FBB1F661F771F881F915074
:103A80005040A9F79E3F510570F014C05EC05F3FE3
:103A9000ECF3983EDCF3869577956795B795F795A7
:103AA000E7959F5FC1F7FE2B880F911D969587952F
:103AB00097F9089597F99F6780E870E060E00895AE
:103AC0009FEF80EC089500240A9416161706180636
:103AD0000906089500240A94121613061406050612
:103AE0000895092E0394000C11F4882352F0BB0FA3
:103AF00040F4BF2B11F460FF04C06F5F7F4F8F4F06
:103B00009F4F089557FD9058440F551F59F05F3F40
:103B100071F04795880F97FB991F61F09F3F79F0EF
:103B200087950895121613061406551FF2CF469571
:103B3000F1DF08C0161617061806991FF1CF8695F3
:103B40007105610508940895E894BB2766277727D7
:103B5000CB0197F908953AD0A59F900DB49F900D91
:103B6000A49F800D911D112408952F923F924F9292
:103B70005F926F927F928F929F92AF92BF92CF92FD
:103B8000DF92EF92FF920F931F93CF93DF93CDB706
:103B9000DEB7CA1BDB0BCDBFDEBF09942A8839888C
:103BA00048885F846E847D848C849B84AA84B984D5
:103BB000C884DF80EE80FD800C811B81AA81B981E1
:103BC000CE0FD11DCDBFDEBFED010895A29FB00184
:103BD000B39FC001A39F700D811D1124911DB29F41
:103BE000700D811D1124911D08955058BB27AA27DF
:103BF0000ED077CF68DF30F06DDF20F031F49F3FDB
:103C000011F41EF45DCF0EF4E095E7FB53CFE92FDE
:103C100079DF80F3BA17620773078407950718F0F6
:103C200071F49EF591CF0EF4E0950B2EBA2FA02DD6
:103C30000B01B90190010C01CA01A0011124FF2759
:103C4000591B99F0593F50F4503E68F11A16F04054
:103C5000A22F232F342F4427585FF3CF4695379553
:103C60002795A795F0405395C9F77EF41F16BA0B18
:103C7000620B730B840BBAF09150A1F0FF0FBB1FC6
:103C8000661F771F881FC2F70EC0BA0F621F731F0F
:103C9000841F48F4879577956795B795F7959E3F6C
:103CA00008F0B3CF9395880F08F09927EE0F9795FA
:103CB000879508950CD015CF0DDF40F004DF30F06C
:103CC00021F45F3F19F0F6CE51113FCFF9CE1ADF44
:103CD00098F39923C9F35523B1F3951B550BBB27D3
:103CE000AA2762177307840738F09F5F5F4F220F80
:103CF000331F441FAA1FA9F333D00E2E3AF0E0E879
:103D000030D091505040E695001CCAF729D0FE2FC4
:103D100027D0660F771F881FBB1F26173707480756
:103D2000AB07B0E809F0BB0B802DBF01FF2793580C
:103D30005F4F2AF09E3F510568F0BCCE06CF5F3F33
:103D4000ECF3983EDCF3869577956795B795F795F4
:103D50009F5FC9F7880F911D9695879597F90895EC
:103D6000E1E0660F771F881FBB1F62177307840788
:103D7000BA0720F0621B730B840BBA0BEE1F88F797
:103D8000E095089504D06894B111DFCE0895C2DEA5
:103D900088F09F5790F0B92F9927B751A0F0D1F034
:103DA000660F771F881F991F1AF0BA95C9F712C0BE
:103DB000B13081F0C9DEB1E00895C6CE672F782F0B
:103DC0008827B85F39F0B93FCCF38695779567952A
:103DD000B395D9F73EF490958095709561957F4F96
:103DE0008F4F9F4F0895DFDD08F48FEF08950EF099
:103DF00047C066CE68945ECE8DDEC8F39923D1F3BA
:103E0000C6F3DF93CF931F930F93FF92C92FDD2744
:103E100088232AF02197660F771F881FDAF720E0A2
:103E200030E040E85FEB9FE3883920F0803E30F0DF
:103E300021968F77DBDEECE7F0E003C0D7DEE9EA1E
:103E4000F0E02CD08B01BE01EC01FB2E6F57710905
:103E50007595771F880B990B6BDD28E132E741E3FD
:103E60005FE3D1DDAF2D9801AE01FF900F911F915F
:103E7000CF91DF91CCDE35CE96DD880B990B08957E
:103E80009F3F31F0915020F4879577956795B795CE
:103E9000880F911D9695879597F90895DF93CF9395
:103EA0001F930F93FF92EF92DF927B018C01689436
:103EB00005C0DA2EEF01A7DDFE01E894A59125915A
:103EC000359145915591AEF3EF01A1DEFE019701C9
:103ED000A801DA9479F7DF90EF90FF900F911F918E
:103EE000CF91DF91089597FB072E16F4009406D02A
:103EF00077FD08D0E3D007FC05D03EF4909581957E
:103F00009F4F0895709561957F4F0895A1E21A2EF5
:103F1000AA1BBB1BFD010DC0AA1FBB1FEE1FFF1F6D
:103F2000A217B307E407F50720F0A21BB30BE40BBD
:103F3000F50B661F771F881F991F1A9469F7609504
:103F40007095809590959B01AC01BD01CF010895BE
:103F5000052E97FB16F400940FD057FD05D0D6DF41
:103F600007FC02D046F408C0509540953095219545
:103F70003F4F4F4F5F4F0895909580957095619595
:103F80007F4F8F4F9F4F0895EE0FFF1F0590F491C5
:103F9000E02D0994689401C0E8948F929F92CF938A
:103FA000DF9305D0DF91CF919F908F900895882463
:103FB0009924F401E401B0E49F93AA279A158B0495
:103FC0009C04ED05FE05CF05D007A10798F4AD2FA1
:103FD000DC2FCF2FFE2FE92D982C892E982F872F9D
:103FE000762F652F542F432F322F2227B85031F7C9
:103FF000BF9127C01B2EBF91BB27220F331F441F29
:10400000551F661F771F881F991F881C991CEE1F5C
:10401000FF1FCC1FDD1FAA1FBB1F8A149B04EC05CA
:10402000FD05CE05DF05A007B10748F08A189B08FB
:10403000EC09FD09CE09DF09A00BB10B21601A9430
:10404000E1F62EF49401AF01BE01CD01000C0895FC
:10405000002E083090F0982F872F762F652F542F41
:10406000432F322F22270850F4CF220F331F441F33
:10407000551F661F771F881F991F0A95B2F7002DDD
:10408000089597FD1094002E083098F00850232FC3
:10409000342F452F562F672F782F892F912DF4CF4E
:1040A0001594979587957795679557954795379583
:1040B00027950A95AAF71124002D0895AA1BBB1B6A
:1040C00051E107C0AA1FBB1FA617B70710F0A61B18
:1040D000B70B881F991F5A95A9F780959095BC0139
:1040E000CD0108950F931F93CF93DF9382309105F5
:1040F00010F482E090E0E0918A39F0918B3930E061
:1041000020E0B0E0A0E0309799F42115310509F4E2
:104110004AC0281B390B24303105D8F58A819B8190
:104120006115710589F1FB0182839383FE0111C042
:10413000408151810281138148175907E0F04817E7
:10414000590799F4109761F012960C9312971396F1
:104150001C933296CF01DF91CF911F910F9108955B
:1041600000938A3910938B39F4CF2115310551F022
:104170004217530738F0A901DB019A01BD01DF01A5
:10418000F801C1CFEF01F9CF80938A3990938B3931
:10419000CDCFFE01E20FF31F81939193225031099D
:1041A00028833983D7CF2091883930918939232BBF
:1041B00041F420910E3830910F3820938839309394
:1041C000893920910C3830910D382115310541F491
:1041D0002DB73EB74091103850911138241B350B44
:1041E000E0918839F0918939E217F307A0F42E1B8A
:1041F0003F0B2817390778F0AC014E5F5F4F24174B
:10420000350748F04E0F5F1F409388395093893926
:10421000819391939FCFF0E0E0E09CCFCF93DF9329
:104220000097E9F0FC01329712821382A0918A393B
:10423000B0918B39ED0130E020E01097A1F420819E
:104240003181820F931F2091883930918939281745
:10425000390709F061C0E0938839F0938939DF911B
:10426000CF910895EA01CE17DF07E8F54A815B8117
:104270009E0141155105B1F7E901EA83FB8349919C
:104280005991C40FD51FEC17FD0761F4808191810E
:104290000296840F951FE901888399838281938117
:1042A0008A839B83F0E0E0E012968D919C911397B6
:1042B0000097B9F52D913C911197CD010296820F8F
:1042C000931F20918839309189392817390739F699
:1042D000309751F510928A3910928B39A093883912
:1042E000B0938939BCCFC283D38340815181840F7D
:1042F000951FC817D90761F44E5F5F4F8881998178
:10430000480F591F408351838A819B818283938305
:104310002115310509F0B0CFE0938A39F0938B393C
:104320009ECFFD01DC01C0CF12821382D7CFB0E057
:10433000A0E0ECE9F1E21BCC8C01009741F4CB0149
:10434000D1DE8C01C801CDB7DEB7E0E129CCFC019C
:10435000E60FF71F9C0122503109E217F30708F41A
:1043600099C0D901CD91DC911197C617D70790F06C
:10437000C530D10538F3CE0104978617970710F39F
:10438000C61BD70B2297C193D1936D937C93CF011A
:1043900045DFD8CF5B01AC1ABD0A4C018C0E9D1EC7
:1043A000A0918A39B0918B39512C412CF12CE12C00
:1043B000109731F580918839909189398815990540
:1043C00009F05CC04616570608F058C080910C38BA
:1043D00090910D38009741F48DB79EB740911038F9
:1043E00050911138841B950BE817F90708F052C05B
:1043F000E0938839F0938939F90160837183A2CF02
:104400008D919C91119712966C90129713967C90B7
:104410001397A815B90559F56C0142E0C40ED11CDB
:10442000CA14DB0420F1AC014A195B09DA011296C7
:10443000159780F06282738240835183D9016D9316
:104440007C93E114F10471F0D7011296ED93FC9383
:10445000139778CF22968C0F9D1FF901808391834B
:10446000F301EFCFE0938A39F0938B396BCF481685
:10447000590608F42C017D01D3019ACFCB0132DE1D
:104480007C01009739F0AE01B80107D0C801C6DE43
:10449000870158CF10E000E055CFFB01DC0102C0DE
:1044A00001900D9241505040D8F70895FB01DC0176
:1044B00001900D920020E1F70895FB01DC014150CD
:1044C000504048F001900D920020C9F701C01D92A4
:1044D00041505040E0F7089510E0C0ECD0E003C038
:1044E000FE0152DD2196C13CD107D1F7F894FFCFF0
:1044F0000A00F40196000A0000000000A4049704DA
:10450000730406126D0462043C043804B40A3704D0
:10451000040506070504030201000001020301026D
:10452000030000000000A40497047304D0116D047C
:1045300062043C043804AA05370400000000A40407
:1045400097047304D0116D0462043C043804EE0D2A
:10455000370400000000A40497047304D0116D0414
:104560006204430538043704771000000000A404F7
:104570009704730439046D0462043C04380437045E
:1045800037041010800000000010101040400000A0
:1045900000001000781E00A02800F03C00405100F0
:1045A000127A00E4A20024F40048E80190D003202D
:1045B000A107000000004003520334040C033A0337
:1045C0002803140300000000A20981093907D60658
:1045D000D90608099C07560839083308FA077609EE
:1045E0006B09AD04AA0400000000010101010101F2
:1045F0000202020200000000102040802010080487
:1046000002010102040802040801000000008E03F8
:10461000090234048D030404160475030D0A006EA8
:10462000616E00696E66006F7666002E004E6577DB
:1046300020494420005549442000687569642000E1
:10464000746172652000666163746F722000536349
:10465000616C65204F4B005363616C65206572721D
:074660006F7200203E2000F4
:10466700881326381A3812380000803F00008C392A
:024677008000C1
:00000001FF
