:10000000C0C00000F2C00000F0C000000C94B612A6
:100010000C94B3120C94B012E8C000000C941A14A3
:100020000C94A613E2C00000E0C00000DEC0000097
:10003000DCC00000DAC00000D8C000000C947F12C1
:10004000D4C00000D2C00000D0C00000CEC000006C
:10005000CCC00000CAC00000C8C00000C6C000007C
:100060000C940013C2C00000C0C00000BEC000005D
:10007000BCC00000BAC00000B8C00000080000000A
:10008000BE922449123EABAAAA2ABECDCCCC4C3E8D
:1000900000000080BEABAAAAAA3E00000000BF007C
:1000A0000000803F0000000000084178D3BB438778
:1000B000D1133D190E3CC3BD4282AD2B3E68EC828C
:1000C00076BED98FE1A93E4C80EFFFBE01C4FF7F11
:1000D0003F000000000070726F63657373206E6FE5
:1000E00074206F7665727269646564005365747517
:1000F0007020646F6E65004C6F5261204572726FA4
:10010000720042472D5231005275636865004C6F92
:100110005261204F4B0043616C6962004B6700578E
:100120006569676874207265660054617265004B8A
:1001300067005765696768740054696C7400C2B0E1
:10014000430054656D7065726174757265004F701F
:10015000656E00560056636300496E697469616C90
:10016000697A6520454550524F4D000A53746172BB
:1001700074001F1C1F1E1F1E1F1F1E1F1E00341475
:10018000251D11241FBECFEFCDBFDFE3DEBF809161
:10019000400080934000811105C098ED21E094BF9C
:1001A000209341008CBB2BE3A2E1B8E301C01D9278
:1001B000A235B207E1F718E3A0E0B8E3EEEAF8E40D
:1001C00002C005900D92A231B107D9F710E0C0EC42
:1001D000D0E004C02197FE010E94CA20CF3BD10786
:1001E000C9F70E9424150C9472230ACFCF93DF9392
:1001F000DC011896ED91FC911997838180FD04C074
:1002000080E1DF91CF91089551966C915197ED0166
:10021000659652969C91529720EA3FE080E06E7F6F
:100220004581542F537061F32150310981F485E0E9
:10023000523021F084E0513009F481E152962C9142
:100240005297291B52962C9393E09483DACF43FD67
:100250001FC0533029F3811105C0678320EA3FE0B6
:1002600081E0DECF46FFDCCF44FF07C081FF0EC038
:1002700083E09111E3CF80E0E1CF9923E1F329916D
:1002800020879150826020EA3FE0CACF82E0D6CF3B
:1002900082E1B7CF0F931F93CF93DF93DB018A01E6
:1002A000EC01E885F9853C9180EA9FE060E042E05E
:1002B00021605581752F737091F1019741F485E0AC
:1002C0007230A9F084E0713091F481E110C053FDE7
:1002D00028C0733071F3611105C0278380EA9FE065
:1002E00061E0E7CF56FF0BC083E0848382E09C91FE
:1002F000931B9C93DF91CF911F910F91089557FF0E
:10030000D8CF8085E80189938E01315021F0448354
:1003100080EA9FE0CECF87E0848380E0E8CF80E171
:10032000E6CF82E1E7CF8FEF9FE18093B43A9093DD
:10033000B53A08956091423A7091433A8091443AB7
:100340009091453A0C949C1D0895E091413AF0E05B
:10035000EE0FFF1FE35DF54C808191810196808354
:1003600091830895E091933AF091943A309709F48B
:100370004DC0A285B3858185928D91FF04C09C916B
:10038000892329F408959C91892309F03FC0A7850A
:10039000B0899C918189809589238C9382899389E6
:1003A0000197F1F764897589A285B385518538E095
:1003B00020E0CB010197F1F7822F90E0959587958A
:1003C000282F4C91452309F02068315091F7828DF8
:1003D00081FD20958091923A90E001968F73992744
:1003E0003091913A381799F0A091923AB0E0AA5B17
:1003F000B54C2C938093923A868997890197F1F7AF
:10040000A785B0898C919189892B8C930895828DD1
:100410008160828FF1CFAF92BF92CF92DF92EF9245
:10042000FF920F931F93CF93DF936C017B018B019E
:10043000040F151FEB015E01AE18BF08C017D107EE
:1004400059F06991D601ED91FC910190F081E02D78
:10045000C6010995892B79F7C501DF91CF911F91CD
:100460000F91FF90EF90DF90CF90BF90AF900895E5
:100470002FB7F89460918B3A70918C3A80918D3AB5
:1004800090918E3A2FBF08959FB7F89488E080939B
:10049000840A80918E0A81FFFCCF80918D0AE091C1
:1004A000A20AF091A30A2091873A3091883A4091AC
:1004B000893A50918A3A9FBF80FF07C0E730F10523
:1004C00020F42F5F3F4F4F4F5F4FAEEFB1E00E94E0
:1004D000B11E6E0F7F1F811D911D660F771F881F34
:1004E000991F0895CF92DF92EF92FF92CF93DF93FF
:1004F0006B017C01C9DFEB01C114D104E104F104FB
:1005000041F412C081E0C81AD108E108F108C851CD
:10051000DC4FBADF6C1B7D0B683E734068F3C1147F
:10052000D104E104F10471F7DF91CF91FF90EF90D6
:10053000DF90CF90089590E0FC01E45EF8432081C5
:100540002F3F69F18E509843FC018081E82FE2959E
:10055000EE0FE07EE20FF0E0E05FFB4F9081987FCE
:10056000908390E0FC0134E0EE0FFF1F3A95E1F735
:10057000422F50E061E070E001C0660F2A95EAF773
:100580006383880F991FFC01EE5FF74C440F551FE2
:100590000190F081E02DE40FF51F10821182089583
:1005A000CF93DF93282F30E0F901E45EF843908188
:1005B0009F3F89F1A2E0443009F4A1E02E50384376
:1005C000E901E881F0E0EF01CC0FDD1FCE5FD74CF1
:1005D0002881398121153105F1F061157105D9F0B6
:1005E000492F50E0440F551F240F351FE901688340
:1005F00079834FB7F8949F0155E0220F331F5A9526
:10060000E1F7E0E1E90FE20FF0E0FC5F8081887F35
:100610008A2B80834FBFDF91CF910895DC0118961C
:10062000ED91FC9184818860848308959C012B5E08
:100630003F4FDC015396EC91539752968C91E817FB
:1006400030F4E20FF32FF11D808190E008958FEFD9
:100650009FEF0895FC01DC015596938982899817D4
:1006600040F4A90FB11D2C919F5F938B822F90E0D6
:1006700008958FEF9FEF0895FC0182899389891B6C
:10068000990B0895FC01A289A03258F4A80FB92F44
:10069000B11D55966C9382898F5F828B81E090E0CB
:1006A000089590E080E00895BF92CF92DF92EF929C
:1006B000FF920F931F93CF93DF937C016A01B62EB5
:1006C000EB010C2F0B1910E00C151D0528F4699196
:1006D000C701D8DF892BA9F7C801DF91CF911F91FE
:1006E0000F91FF90EF90DF90CF90BF9008952091F1
:1006F000933A3091943A2817390771F49091913ACE
:100700008091923A981741F0E091913AF0E0EA5BDB
:10071000F54C808190E008958FEF9FEF0895089544
:10072000EF92FF920F931F93CF93DF93DC015896C4
:10073000ED90FC905997E114F10479F481E090E098
:1007400012968D939C93139790E080E0DF91CF9168
:100750001F910F91FF90EF9008951D96ED91FC91E0
:100760001E971C968C911C97982F90950FB75A96B0
:100770002C915A97122F127021FD6095F8942081C8
:10078000112319F1282B2083E7012197F1F728E0A5
:10079000462F50E0308160FF1AC0382B3083E701CC
:1007A0002197F1F7BA0175956795215089F71123C3
:1007B00081F08081892380830FBF58968D919C9111
:1007C0000197F1F781E090E0C1CF2923DCCF3923F5
:1007D000E5CF9081892BEFCF0F931F93CF93DF93BA
:1007E0008C01D0E0C0E0F801EC0FFD1F649166239E
:1007F00039F083E39BE394DF892B11F02196F3CF4B
:10080000CE01DF91CF911F910F9108952091933ADE
:100810003091943A2817390741F48091923A909197
:10082000913A891B8F7390E0089590E080E00895DD
:100830002091933A3091943A28173907A1F4909176
:10084000913A8091923A981771F0E091913AF0E0E4
:10085000EA5BF54C80819091913A9F5F9F739093F2
:10086000913A90E008958FEF9FEF089590E080E037
:1008700008950895089590E080E00895CF92DF9262
:10088000EF92FF92CF93DF93EC016A017B016989BC
:100890007A89072E000C880B990B0E949E1DA701D8
:1008A00096010E94FD1D0E94C81FAB01BC01E8819A
:1008B000F9810084F185E02DCE01DF91CF91FF9089
:1008C000EF90DF90CF900994462F50E070E060E009
:1008D000DC01ED91FC910084F185E02D0994FC018F
:1008E00041875287638774870895CF92DF92EF9292
:1008F000FF92CF93DF93EC0169857A858B859C8588
:100900000E949E1D6B017C0169897A89072E000C6B
:10091000880B990B0E949E1D9B01AC01C701B6017B
:100920000E94601FDF91CF91FF90EF90DF90CF90FA
:10093000089521E0FC0181859285A385B485892BEA
:100940008A2B8B2B09F420E0822F0895FC0161850E
:100950007285838594850895FC0165870895FC015F
:1009600066830895FC01A081B0E0BC5E2C91621703
:1009700069F0E0E0F0E10FB622812370E9F7F89426
:100980006C936DE964BF63E060830FBE0895EF92DE
:10099000FF921F93CF93DF931F92CDB7DEB781EC09
:1009A000E82E8AE3F82E1AE01983F70161917F019E
:1009B000CE010196D7DF1F5F1E30B1F781EC9AE3BD
:1009C0000F90DF91CF911F91FF90EF900895EF92DC
:1009D000FF921F93CF93DF931F92CDB7DEB788E0CE
:1009E000E82E88E3F82E1EE01983F70161917F015C
:1009F000CE010196B7DF1F5F1231B1F788E098E3AF
:100A00000F90DF91CF911F91FF90EF9008950F937A
:100A10001F93CF93DF931F92CDB7DEB78B018983EE
:100A2000FB016081CE0101969DDFC8010F90DF912F
:100A3000CF911F910F910895CF92DF92EF92FF9285
:100A40000F931F93CF93DF931F92CDB7DEB7182F6D
:100A5000D62E072FE62EF72E88E0C82EC10E19835A
:100A6000F70161917F01CE0101967CDF1F5F1C11B0
:100A7000F6CF8D2D902F0F90DF91CF911F910F9179
:100A8000FF90EF90DF90CF900895CF92DF92EF929A
:100A9000FF920F931F93CF93DF93CDB7DEB72897C5
:100AA000CDBFDEBF8C016A017B01DC0151966D91E7
:100AB0007C91072E000C880B990B0E949E1DA701AC
:100AC00096010E94FD1D0E94C81FAB01BC01D80108
:100AD000ED91FC910084F185E02DC8010995F801A4
:100AE000838D948D89839A83858D968D8B839C834A
:100AF000818592858D839E83818992898F83988752
:100B0000BE016F5F7F4F838197DF2896CDBFDEBF29
:100B1000DF91CF911F910F91FF90EF90DF90CF90D9
:100B20000895282F30E08231A8F4F901EC5FF743F3
:100B300080818F3F79F02E503843D901EC91B0E29B
:100B4000EB9FF0011124FC5F9085982381E019F45C
:100B500080E008958FEF0895CF93DF93EC01EE8D41
:100B6000FF8D309729F1099590E0B0E0A0E08987EA
:100B70009A87AB87BC878C8D9D8D8230910589F5D6
:100B800089859A85AB85BC854D855E856F8578891D
:100B9000481759076A077B0741F0892B8A2B8B2B53
:100BA00021F41D861E861F86188ADF91CF91089535
:100BB0008B8D2C8D3D8D2130310561F4B2DF51E0FC
:100BC00040E030E020E0811150E0852F942FA32FEA
:100BD000B22FCDCFA6DF082E000C990BAA0BBB0BB2
:100BE000C6CF039711F789859A85AB85BC854D855E
:100BF0005E856F857889481759076A077B07A9F2D0
:100C000081309105A105B10581F68D879E87AF875B
:100C1000B88BCBCFCF93DF93823108F047C090E001
:100C2000EC01CC5FD74328812F3F09F43FC0AC01D2
:100C30004E505843DA01EC91B0E2EB9FF0011124E1
:100C4000FC5F611136C0268330812323A1F49C010F
:100C5000245E3843D9012C91309769F1283058F53A
:100C60007096E20FF11D3FB7F8942081611126C004
:100C7000277F20833FBF82579843FC0190819923AF
:100C8000A9F08881903409F1983FE1F0903171F436
:100C9000DA019C919130A1F4853010F0880F829593
:100CA0009091010A809589238093010ADF91CF9169
:100CB00008952583C9CFF0E0E0E0D5CF2860D9CFF3
:100CC000880FEECF1092A006F1CF823019F180E4A8
:100CD0009091920A982351F34FB7F8949091800A1B
:100CE0009E7F9093800A2091920A90E08095909543
:100CF00030E08223932328ED24BF8093920A8091D1
:100D00008E0A80FFFCCF8091800A81608093800AE8
:100D10004FBFCCCF80E8DCCF0F931F93CF93DF93EF
:100D2000EC01062F142F60E0898574DFEB85FC85CC
:100D30009F8188852085222319F02FB72187F89479
:100D400021E02287909320088093210800000093DF
:100D500024088091230887FFFCCF8091240800009D
:100D6000109324088091230887FFFCCF109124085A
:100D7000EB85FC858285882331F012868085882367
:100D800011F081858FBF61E0898544DF812FDF917C
:100D9000CF911F910F91089540E861E8BDCF41E8E0
:100DA00061E8BACF40E0B8CFCF92DF92EF92FF92E6
:100DB000CF93DF936DE181E29BE3F4DF90E034E0D9
:100DC000959587953A95E1F78A3091050CF03FC0EB
:100DD000FC01EE0FFF1FE80FF91FE056F843C0803B
:100DE000D180E2800E2C000CFF086EE181E29BE3D3
:100DF000D9DFD82F66E281E29BE3D4DFC82FD295FA
:100E0000DF7021E030E040E050E004C0220F331FEB
:100E1000441F551FDA95D2F7C701B6010E94AE20D4
:100E200068EE73E080E090E00E94AE202131310551
:100E3000410551058CF04C2F486066EA81E29BE346
:100E4000DF91CF91FF90EF90DF90CF9065CFCC24D2
:100E5000CA94DC2C7601C9CF4C2F477FEECFCF92BE
:100E6000DF92EF92FF920F931F93CF93DF938C014A
:100E70006AE198DFC82FD0E0F80166857785808920
:100E800091890E949E1D2AEE36E54AEF5DE40E949C
:100E9000981D87FD44C08DE990E0C81BD90B69E11E
:100EA000C80180DF87FD8D5F85958595682F880F48
:100EB000770B880B990B0E949E1D6B017C0120E033
:100EC00030E0A9010E94981D87FF0DC0BE01DD0F13
:100ED000880B990B0E949E1DA70196010E94FC1E83
:100EE0000E94C81FEB019E01DD0F440B550B2058DB
:100EF0003F4F4F4F5F4FA4E6B0E00E94B11E26E780
:100F000030E040E050E00E94AE20C901DF91CF9177
:100F10001F910F91FF90EF90DF90CF90089584EA9A
:100F200090E0BBCFCF92DF92EF92FF920F931F938F
:100F3000CF93DF937C01C62EC72FD42E63E132DF1F
:100F4000D82F0C2D1C2FC0E0CD1751F0CD1541F03E
:100F500060E0C70127DFCF5FF80181938F01F4CFF5
:100F60008C2F90E0DF91CF911F910F91FF90EF9028
:100F7000DF90CF9008951F93CF93DF93EC010097FC
:100F800059F1469710F0C5E1D0E01C2F4C2F66E3D5
:100F900078E381E29BE3C6DF30E02AE52197832FE7
:100FA00090E08C179D073CF48A5C974CFC01808193
:100FB000280F3F5FF4CF80914A3828130DC0E0918D
:100FC000973AF091983A309739F066E378E3812FB9
:100FD000DF91CF911F910994DF91CF911F910895D7
:100FE0000F931F93CF93DF93EC0162E1DBDE182FA9
:100FF000482F62E9CE0190DE15FD23C016FF16C012
:1010000063E1CE01CFDE082F10E060E1CE01CADE41
:10101000482F6DE8CE0180DEEA81FB81309789F0B0
:10102000C801DF91CF911F910F91099413FF09C05F
:10103000EC81FD81309729F0DF91CF911F910F91C5
:101040000994DF91CF911F910F91089581E29BE365
:10105000C7CF43E861E860DE81E090E00895CF9378
:10106000DF93EC0140E060EC57DE45E861E8CE013B
:1010700053DE81E090E0DF91CF91089581E080938D
:10108000C03A81E29BE3EBDFE091953AF091963A2A
:10109000309709F009940895AF92BF92DF92EF92D2
:1010A000FF920F931F93CF93DF93EC015B01D42E3C
:1010B00061E078DE83708330C1F062E1CE0172DEE0
:1010C00083FF04C048E062E9CE0126DEE881F981B1
:1010D0000084F185E02DCE01099540E06DE8CE0158
:1010E0001BDE40E062EACE0117DE8501ED2CF12C1B
:1010F000C8018A199B098E159F0538F4F8014191A2
:101100008F0160E8CE0108DEF3CF4D2D62EACE01FB
:1011100003DE8C819D81892B21F040E460ECCE01BF
:10112000FBDDE881F9810288F389E02DCE01099584
:10113000C701DF91CF911F910F91FF90EF90DF904A
:10114000BF90AF900895FC018AE5848BDF019F0179
:101150002C5E3F4F9D918489890F848BA217B30722
:10116000C9F71092C03A45E1BF0181E29BE394DFE9
:101170008091BF3A882351F08091C03A811106C016
:1011800062E070E080E090E0ADD9F2CF0895CF93B7
:10119000DF93CDB7DEB76597CDBFDEBF89836A83A6
:1011A0008EEF8B8328502C8380E1FA01DE011596A7
:1011B00001900D928A95E1F7CE010196C4DF659604
:1011C000CDBFDEBFDF91CF910895DC01EFE9FAE3F7
:1011D00080919C3A808380919D3A818312968C9174
:1011E0001297828315969C911597990F990F990FD5
:1011F00017968C91890F8383CF01A5CF0F931F93EF
:10120000CF93DF938C01EB0162317105C4F065313E
:10121000710514F0C4E1D0E0239747E86DECC801F4
:101220007BDD41E36BE8C80177DD4C2F425040681D
:1012300069E8C801DF91CF911F910F916DCD6230A8
:10124000710514F4C2E0D0E044E86DECC80164DD3F
:101250004BE2E8CF8231F0F490E0FC01EC5FF74321
:1012600020812F3FB9F0FC01EE50F843E08130E2DD
:10127000E39FF0011124FC5F60FF0DC02183845EB9
:101280009843DC018C91E80FF11D808961FF05C056
:101290008860808B08952283F2CF877FFACFCF9327
:1012A000DF93EC0160E08E81D5DF8E81823130F4F6
:1012B00043E066E278E0DF91CF9172C9DF91CF9190
:1012C0000895FC0164837583672B09F0E8CF86815C
:1012D000823108F430C90895FC0162837383672B5F
:1012E00009F0DDCF8681823108F425C90895CF93B6
:1012F000DF93EC01EB85FC85809120088E7F809345
:101300002008178260E080E1A5DF60E08FE0A2DFC7
:1013100060E08EE09FDF60E089859CDF8D858F3FF8
:1013200021F060E0DF91CF9195CFDF91CF910895CB
:101330008F929F92AF92BF92CF92DF92EF92FF92E5
:101340000F931F93CF93DF93EC016A017B0161E060
:10135000898580DF61E089855DDC8D858F3F91F037
:1013600061E078DF60E08D8555DC6AE070E080E068
:1013700090E0B8D861E08D854DDC6AE070E080E0F7
:1013800090E0B0D8EB85FC858781811106C010867E
:10139000128680E8818781E08783809101028B7FBC
:1013A0009681892B809301028681811191C061E031
:1013B0008EE050DF61E080E14DDF809121088460A4
:1013C0008093210880912008816280932008909169
:1013D000073B8091083B909320088093210862E4AA
:1013E000CE01E0DC823109F07CC0E881F981068021
:1013F000F781E02DCE010995CE86DF86E88AF98A4D
:1014000046015701BB0C8808982C54019601A7018E
:10141000682D782D882D982D03E10E942E21A12C76
:10142000E8E4BE2EF8EECF2EDD24D394E12CF12C8F
:1014300000E010E00E94D220F22E832E942EA52EE2
:10144000B62EC72ED82EE92E00E10E944921422F48
:1014500066E8CE0161DC2F2D382D492D5A2D6B2DDC
:101460007C2D8D2D9E2D08E00E944921422F67E89A
:10147000CE0152DC4F2D68E8CE014EDC40E06EE834
:10148000CE014ADC40E06FE8CE0146DC6CE0CE01E4
:1014900089DC482F43606CE8CE013EDC44E066EA1C
:1014A000CE013ADCE881F9810084F185E02DCE019E
:1014B000099581E090E0DF91CF911F910F91FF900E
:1014C000EF90DF90CF90BF90AF909F908F90089556
:1014D000843009F072CF61E08CE0BCDE61E08AE02C
:1014E0006BCF90E080E0E7CF87FD03C08630C0F48B
:1014F0008C5F982F9F77903238F590910006992352
:1015000031F18F718093060681E080930806809107
:101510000B0680FFFCCF8091100690911106089574
:10152000813161F092EF980F933010F48D50E1CF3C
:10153000883031F0893031F08FEFDBCF80E0D9CFC8
:101540008AE0D7CF8BE0D5CF8FEF92E8089589EF6F
:1015500092E808954F925F926F927F928F929F923E
:10156000AF92BF92CF92DF92EF92FF920F931F93B1
:10157000CF93DF93CDB7DEB72697CDBFDEBF8D8388
:101580009E83DC015B968C91C12CD12C76018F3F20
:1015900009F494C01AE0C12CD12C7601ED81FE81B2
:1015A000838DA2DF092E000CAA0BBB0BC80ED91E1F
:1015B000EA1EFB1E115091F7AD81BE8194960D91EC
:1015C0001C91D8011C968D919D910D90BC91A02DE0
:1015D00089839A83AB83BC83F8012085318542855A
:1015E0005385BC01CD010E94FC1E9B01AC016981A9
:1015F0007A818B819C810E94601F4B015C01D80124
:1016000014968D929D92AD92BC92179754964D90E0
:101610005D906D907C905797C701B6012AE030E04D
:1016200040E050E00E948C20CA01B9010E949C1D3C
:10163000A30192010E94FB1EA50194010E94FD1DC1
:10164000A30192010E94FC1E6B017C01F801C08A7B
:10165000D18AE28AF38AAC019B01C301B2010E94E4
:10166000FB1E9F77D8012D913D914D915C910E9479
:10167000FD1D2B013C01A501940160E070E080E8B4
:101680009FE30E94FB1E29813A814B815C810E946D
:10169000FD1D9B01AC01C301B2010E94FC1EF801BB
:1016A0006487758786879787C48AD58AE68AF78A8A
:1016B000C701B6010E94CD1F6B017C01AD81BE81C7
:1016C0009296ED91FC9193970D911C91309761F159
:1016D000D8011C960D911C91AD81BE8190962D91E3
:1016E0003C9191975E964D915C915F975C966D9160
:1016F0007C91C6010995AB01BC018D819E81F801E9
:101700002696CDBFDEBFDF91CF911F910F91FF9045
:10171000EF90DF90CF90BF90AF909F908F907F9091
:101720006F905F904F900994A0910038B09101386C
:10173000A70196010E94B11E2FEF33E040E050E078
:101740000E948C20BA01A901D8011896ED91FC9154
:101750008D819E812696CDBFDEBFDF91CF911F91F7
:101760000F91FF90EF90DF90CF90BF90AF909F9040
:101770008F907F906F905F904F900994FC018385CC
:1017800081FF04C0660F618B128A138A08956091ED
:101790000B3B8091093B90910A3BF0DF8091093B24
:1017A00090910A3B0E94F60091E0811190E0892F10
:1017B0000895CF93C82F60910B3B8091093B909186
:1017C0000A3BDCDF8091093B90910A3BDC01ED9103
:1017D000FC910190F081E02D6C2F09958091093BDF
:1017E00090910A3B0E94F600882319F08FEFCF9169
:1017F0000895E091093BF0910A3B20910B3B220FA9
:10180000218B81E0828B138AAF014B5E5F4FBF015A
:101810006E5E7F4FCF010E944A018091093B9091FB
:101820000A3BDC01ED91FC910084F185E02D0995E6
:10183000892BE1F28091093B90910A3BDC01ED910B
:10184000FC910284F385E02D0995D1CFCF93DF93EE
:10185000D82FC62F60910B3B8091093B90910A3B9A
:101860008DDF8091093B90910A3BDC01ED91FC9169
:101870000190F081E02D6D2F09958091093B9091A9
:101880000A3BDC01ED91FC910190F081E02D6C2F81
:1018900009958091093B90910A3B0E94F60091E0E6
:1018A000811190E0892FDF91CF910895CF93DF933D
:1018B000D82FC62F862F7DDF61E070E001C0660F54
:1018C000DA95EAF7682B8C2FDF91CF91BFCFCF93BA
:1018D00060E081E0EBDF60E082E0E8DFC6E680E028
:1018E00068DF83FD0BC061E070E080E090E00E9463
:1018F0007202C150A1F780E0CF91089560E084E0CA
:10190000CF91D4CFCF93DF93D82FC62F862F51DF1F
:1019100061E070E001C0660FDA95EAF76095682330
:101920008C2FDF91CF9192CF60E081E0EBDF60E020
:1019300082E0E8CF4F925F926F927F928F929F9258
:10194000AF92BF92CF92DF92EF92FF921F93CF930D
:10195000DF93C82F0E9438022B013C01812C912C6F
:101960005401D0E013E00E94380264197509860919
:101970009709683E73408105910508F093C080E0A7
:1019800018DF85FF26C060910B3B8091093B909149
:101990000A3BF4DE8091093B90910A3BDC01ED911A
:1019A000FC910190F081E02D62E109958091093B65
:1019B00090910A3B0E94F600882391F0C12CD12C13
:1019C00076018C0C9D1CAE1CBF1CDF5FDC1709F47C
:1019D00069C061E070E080E090E00E947202C3CFD5
:1019E000E091093BF0910A3B20910B3B220F218BA8
:1019F000128B138AAF014B5E5F4FBF016E5E7F4F4C
:101A0000CF010E944A018091093B90910A3BDC0181
:101A1000ED91FC910084F185E02D0995892B71F2FF
:101A20008091093B90910A3BDC01ED91FC9102848D
:101A3000F385E02D09956C018091093B90910A3B5B
:101A4000DC01ED91FC910284F385E02D09950D2CCC
:101A5000000CEE08FF087601DD24CC24092E000CD2
:101A6000AA0BBB0BBA2FA92F982F8827C82AD92ACF
:101A7000EA2AFB2A8091093B90910A3BDC01ED9117
:101A8000FC910284F385E02D0995092E000CAA0B28
:101A9000BB0B8C299D29AE29BF29A7FDBF6F6C0107
:101AA0007D018FCF2C2F30E050E040E0C501B40124
:101AB0000E94AE20CA01B901DF91CF911F91FF9022
:101AC000EF90DF90CF90BF90AF909F908F907F90DE
:101AD0006F905F904F9008950F931F93CF93DF9374
:101AE000C4E0D0E080E065DE85FF2DC088E022DF25
:101AF000582F492F00910C3B10910D3B20910E3B2C
:101B000030910F3BCB01A52FB42F80179107A2076F
:101B1000B30714F4D901C801BC01CD01601B710BDE
:101B2000820B930B0E949E1D2091103B3091113B24
:101B30004091123B5091133B0E94601FDF91CF9167
:101B40001F910F91089564E670E080E090E00E949C
:101B50007202219739F66DEC7CEC87EC92ECEECFBB
:101B6000E0EAF0E081818D7F8183A0E0B6E012960B
:101B70008C9112978F7C806512968C9380E4808381
:101B80008DE9B2DC8DE9B0DC9C0150E040E064E21C
:101B90007AE687E190E00E948C2020930038309311
:101BA0000138B90190E080E00E949C1D20E030E007
:101BB0004AE754E40C94601FFC0101900020E9F70F
:101BC0003197AF01481B590BBC0183E39BE30C9495
:101BD0000B02CF93DF930E94EC03EC0188E298ECB8
:101BE000EBDF8C0F9D1FDF91CF91089586ED90E084
:101BF000F0CF8F929F92AF92BF920F931F93CF938C
:101C0000DF93CDB7DEB7A197CDBFDEBF19A24230BB
:101C100008F44AE08E010F5D1F4F842E912CB12CE9
:101C2000A12CA50194010E948C20E62FB901CA01C4
:101C3000EA30D4F4E05DD801EE938D01232B242B00
:101C4000252B79F790E080E0109711F0CD01B4DFFB
:101C5000A196CDBFDEBFDF91CF911F910F91BF90B5
:101C6000AF909F908F900895E95CE5CFCF93DF937D
:101C7000D0E0C0E0009711F09FDFEC0188E298EC23
:101C80009BDF8C0F9D1FDF91CF910895CF92DF9244
:101C9000EF92FF92CF93DF936B017C01F7FE1DC0A3
:101CA0006DE283E39BE30E949003EC0166277727B4
:101CB000CB016C197D098E099F094AE09ADFC80F94
:101CC000D91F88E298EC78DF8C0F9D1FDF91CF91B0
:101CD000FF90EF90DF90CF9008954AE08ADFEC010B
:101CE000F0CFCF93DF93682F70E090E080E04AE080
:101CF00080DFEC0188E298EC5FDF8C0F9D1FDF91A5
:101D0000CF9108954F925F926F927F928F929F92A0
:101D1000AF92BF92CF92DF92EF92FF920F931F93F9
:101D2000CF936B017C01742EAC019B010E94422079
:101D3000882391F08BE298ECCF911F910F91FF9047
:101D4000EF90DF90CF90BF90AF909F908F907F905B
:101D50006F905F904F9030CF46015701E894B7F8ED
:101D60002FEF3FEF4FE75FE7C501B4010E9442202C
:101D700081110DC02FEF3FEF4FE75FE7C501B401C1
:101D80000E94981D18161CF48FE298ECD5CF2FEF07
:101D90003FEF4FE75FE4C701B6010E94F91F181635
:101DA0001CF483E398ECC8CF2FEF3FEF4FE75FECD5
:101DB000C701B6010E94981D87FDF3CF20E030E0F7
:101DC000A901C701B6010E94981D10E000E087FF3D
:101DD0000AC06DE283E39BE30E9490038C01F7FA53
:101DE000F094F7F8F094C0E060E070E080E09FE3EA
:101DF0007C1641F020E030E040E251E40E94601F98
:101E0000CF5FF6CFA70196010E94FC1E2B013C017B
:101E10000E94CD1F4B015C014AE0EBDE7C01E00E2D
:101E2000F11ECC23A9F1C501B4010E949C1D9B01A8
:101E3000AC01C301B2010E94FB1E4B015C0187E3B0
:101E400098ECBADEE80EF91EC15010F120E030E047
:101E500040E251E4C501B4010E94FD1D2B013C018B
:101E60000E94CD1F4B01B12CA12C4AE0C501B40149
:101E7000C0DEE80EF91EC501B4010E949C1D9B0145
:101E8000AC01C301B2010E94FB1E4B015C01DCCF1F
:101E9000C701CF911F910F91FF90EF90DF90CF90EE
:101EA000BF90AF909F908F907F906F905F904F907A
:101EB00008958F929F92AF92BF92EF92FF920F93ED
:101EC0001F93CF93DF93CDB7DEB76897CDBFDEBF4B
:101ED00090912C3A80912B3A981709F45CC0E091CC
:101EE0002C3A88E18E9FF0011124E55BF74CDE016E
:101EF000119601900D928A95E1F780912C3A8F5FAF
:101F000080932C3A80912C3A843110F010922C3A24
:101F1000FD806F2D70E090E080E04AE06ADE89E3AA
:101F200098EC4ADE0C81602F70E090E080E04AE09F
:101F300060DE8EE398EC40DE1E81812FD2DE0F3F03
:101F4000C1F580919C3AF81226C01B3F21F51091F3
:101F50009D3A8885181B0E943802AB01BC0128E01D
:101F600037E0129FC001139F900D1124B0E0A0E054
:101F70008C509E4FAF4FBF4F840F951FA61FB71FAA
:101F8000BC01CD0161606093BB3A7093BC3A809311
:101F9000BD3A9093BE3A6896CDBFDEBFDF91CF9138
:101FA0001F910F91FF90EF90BF90AF909F908F90F7
:101FB000089580919D3A0813EECF8091993A882335
:101FC00081F11E3F71F58F8187708630F1F488852D
:101FD0008111E1CF898580939D3A6DE97AE380E0B4
:101FE0000E94070580E498ECE7DD80919D3A6896B1
:101FF000CDBFDEBFDF91CF911F910F91FF90EF908A
:10200000BF90AF909F908F906CCE873021F6F0926A
:102010009C3A6CE97AE381E00E9407051092993AB4
:10202000BACFE090B73AF090B83AE114F10469F110
:10203000183059F5688579858A859B850E949E1D93
:102040004B015C016C857D8590E080E00E949C1DC9
:102050009B01AC01C501B4010E94601FAB01BC0132
:10206000D701ED91FC910484F585E02DC7016896B8
:10207000CDBFDEBFDF91CF911F910F91FF90EF9009
:10208000BF90AF909F908F90099480919A3A9091D1
:102090009B3A892BA9F0173099F481E08093BA3AE2
:1020A00088E498EC6896CDBFDEBFDF91CF911F9199
:1020B0000F91FF90EF90BF90AF909F908F90D6CDF3
:1020C000EF2809F468CF193009F065CF81E08093DB
:1020D000B93A81E598ECE6CFCF93DF93EC016091BC
:1020E0001A3B70E06F5F7F4F660F771F8091183B40
:1020F0009091193B0E949D228093183B9093193B2D
:102100000097D1F020911A3BE22FF0E0EE0FFF1F75
:10211000E80FF91FC083D1832F5F20931A3B30E073
:1021200021503048220F331F820F931FFC01808102
:102130009181DF91CF91089590E080E0FACFCF9325
:10214000DF93CDB7DEB76097CDBFDEBFDC0115965C
:102150002D913C912C30310591F5FC019E01235FBE
:102160003F4F84E0D9011D928A95E9F782818983E6
:10217000818992898A879B87838D948D092E000C93
:10218000AA0BBB0B8A839B83AC83BD83858D968D05
:10219000092E000CAA0BBB0B8E839F83A887B987DF
:1021A00081E090E08C879D8723E030E0AE014F5FB7
:1021B0005F4F60919D3A80919C3A0E94C70860965B
:1021C000CDBFDEBFDF91CF9108958F929F92AF92E6
:1021D000BF92CF92DF92EF92FF920F931F93CF9314
:1021E000DF937C01EB018901BA0190E080E00E945D
:1021F0009C1D4B015C01B70190E080E00E949C1D9A
:102200009B01AC0160E070EC8FE794E40E94601FDA
:1022100020E030E040E85FE30E94FB1E9B01AC0140
:10222000C501B4010E94601F6B017C01B80190E000
:1022300080E00E949C1D9B01AC01C701B6010E9479
:10224000601F0E9402206B017C01BE0190E080E0D3
:102250000E949C1D9B01AC01C701B6010E94601F3A
:102260002FE03FEC4BE55BE30E94FC1E9B01AC01C1
:1022700060E070E080E89FE30E94601F23E333E9A1
:1022800048E853E40E94FB1EDF91CF911F910F910C
:10229000FF90EF90DF90CF90BF90AF909F908F9086
:1022A00008951F93CF93DF93182FF89480912B3AC2
:1022B000C8E18C9FC0011124412F50E0825B974CF4
:1022C0000E945323E0912B3ACE9FF0011124E55B4D
:1022D000F74CD1E0D08381E29BE30E942F07E0918D
:1022E0002B3ACE9FF0011124E55BF74C818392835A
:1022F000153141F4E0912B3ACE9FF0011124E55BBA
:10230000F74CD08380912B3A8F5F80932B3A80914A
:102310002B3A843110F010922B3A90912B3A809105
:102320002C3A98130BC080912C3A8F5F80932C3AF3
:1023300080912C3A843110F010922C3A7894DF91ED
:10234000CF911F9108955F926F927F928F929F928B
:10235000AF92BF92CF92DF92EF92FF920F931F93B3
:10236000CF93DF93EC01562E49014A838FEF9FEF05
:102370008B839C8366246394712C6F827886B5016D
:102380000B2C000C880B990B0E949E1DA701960137
:102390000E94FD1D0E94C81F6B8B7C8BA98ABA8A84
:1023A0008D8A9E8A0F8B188F81EC9DEBA0EFBFEF7B
:1023B00089879A87AB87BC878EE392E4AFE0B0E071
:1023C0008D879E87AF87B88B198E1A8E88E097EC21
:1023D000888399835B8E1AA21BA218A219A21E8E53
:1023E0001F8E1C8E1D8E6D827E82AA94AB2821F0DA
:1023F00082E090E08F839887EFEF5E16D1F160E086
:10240000852D0E942A098B8D6FD87C0188E190E090
:102410000E9478218C018FE892ECA5EFBCE3F801D3
:1024200080839183A283B3831482158216821782DC
:1024300080E090E0A0E8BFE380879187A287B38720
:1024400080E090E0A0E0B0E484879587A687B78716
:10245000108A118A128A138AB701FF0C880B990B14
:102460000E949E1DF801648B758B868B978B0CA345
:102470001DA3DF91CF911F910F91FF90EF90DF90FF
:10248000CF90BF90AF909F908F907F906F905F9014
:102490000895EF92FF920F931F93CF93DF93CDB7E1
:1024A000DEB7A297CDBFDEBFFC0161857285838553
:1024B00094852AE0AE014F5F5F4F7A010E94591D5B
:1024C000F70101900020E9F7BF016E197F0990E044
:1024D00080E00E949D228C01009719F0B7010E94B4
:1024E0005C23C8010E941422C801A296CDBFDEBFA2
:1024F000DF91CF911F910F91FF90EF9008958F93EF
:1025000081E080938D0A8FB78F93EF93FF93E7E875
:10251000FAE39F9368948FEF0FC0E89484819581CC
:102520008C5E9F4F84839583885E934010F08FEF7D
:1025300003C0848395838EEF9081981B9193908143
:102540009F4F919390819F4F919390819F4F919333
:1025500026F39F91FF91EF918F918FBF8F911895E7
:102560000F9304E006C00F9302E003C00F9300E056
:1025700000C00F920FB60F921F921124FF921F936B
:102580002F933F934F935F936F937F938F939F937B
:10259000AF93BF93CF93DF93EF93FF93A2E0B8E3A2
:1025A000A00FB11DCD91DC91000F0D5FA02FB0E009
:1025B000FC90109761F01F2D169518F041F02296AF
:1025C000FBCFE991F9913097B9F30995F5CFA02F99
:1025D000B0E0FC92FF91EF91DF91CF91BF91AF916D
:1025E0009F918F917F916F915F914F913F912F912B
:1025F0001F91FF901F900F900FBE0F900F91189595
:102600001F920F920FB60F9211241F932F933F9397
:102610004F935F936F937F938F939F93AF93BF93EA
:10262000CF93DF93EF93FF93C091C53AD091C63A11
:102630002097B9F1A885B9851B961C911B9716FFA9
:1026400053C08B8583FF09C0877F8B87EF85F8890F
:10265000309719F08A8990E0099510FF3BC08A896C
:1026600081110BC08091863A811107C08091500082
:102670008093863A8170809350001A8A1B8AE8857D
:10268000F9858585898B11FF20C0ED85FE85309702
:1026900009F009958A8981111BC086E0E885F985D2
:1026A0008287FF91EF91DF91CF91BF91AF919F9181
:1026B0008F917F916F915F914F913F912F911F91DA
:1026C0000F900FBE0F901F9018958B8588608B8799
:1026D00083E0E4CF8091863A809350001092863A4E
:1026E0001A8A1B8A82E0DACF17FF2EC09E012B5E6A
:1026F0003F4F11FF1AC08A85182321F088E08A878E
:102700001A8AF0CF8C898F5F8C8B88E18A87EB895E
:102710008A89E817A8F7E20FF32FF11D80811D9633
:102720008C938B898F5F8B8BD3CF1D968C91EA898D
:10273000E03250F4E20FF32FF11D80838A898F5F1E
:102740008A8B803229F6A9CF80E0A8CF1F920F9202
:102750000FB60F9211242F933F934F935F936F9374
:102760007F938F939F93AF93BF93EF93FF9381E0FA
:1027700080930B0A8091413A90E001966AE070E004
:102780000E9479208093413AE091413AF0E0EE0FC7
:10279000FF1FE35DF54C108211821092423A1092B5
:1027A000433A1092443A1092453A90E080E0FC019E
:1027B000EE0FFF1FE35DF54C208131814091423ADD
:1027C0005091433A6091443A7091453A420F531FF9
:1027D000611D711D4093423A5093433A6093443ACD
:1027E0007093453A01968A30910509F78091423AF3
:1027F0009091433AA091443AB091453A853691057B
:10280000A105B10530F08FEF9FE18093B43A90932A
:10281000B53AFF91EF91BF91AF919F918F917F91C9
:102820006F915F914F913F912F910F900FBE0F903D
:102830001F9018951F920F920FB60F9211248F932D
:102840009F9381E0809353018091B43A9091B53A7F
:1028500001968093B43A9093B53A9F918F910F90DF
:102860000FBE0F901F901895CF931092C93A1092F7
:10287000CA3A88EE93E0A0E0B0E08093CB3A909320
:10288000CC3AA093CD3AB093CE3A22EC37EC2093D9
:10289000C73A3093C83A27EC3AE32093C53A3093CD
:1028A000C63A20E138E02093CF3A3093D03AC4E0E2
:1028B000C093083B21E32093073B20E238E02093BC
:1028C000FC3A3093FD3A1092033B1092353B109244
:1028D000363B8093373B9093383BA093393BB09382
:1028E0003A3B8AE198EC8093333B9093343B1092CF
:1028F000453B1092463B1092473B1092483B10924A
:10290000493B10924A3B10924B3B10924C3B6091DA
:102910004D3B6E7F6D7F60934D3B6695617081E0AE
:10292000682787E00E940A0661E087E00E942A0982
:10293000C0933F3B84E294E08093403B9093413BC3
:1029400060E086E00E942A0980914D3B81FD04C031
:1029500061E086E00E940A0686E080933B3B88E0C7
:1029600080933C3B88E294E080933D3B90933E3BD8
:1029700084ED97EC8093213B9093223B81E38093FD
:10298000283B84E08093293B10922A3B10922B3BFA
:1029900083E080932E3B82E08093273B8CEF9AE389
:1029A00080932C3B90932D3B10922F3B1092303B09
:1029B0001092313B1092323B1092203B10921F3B01
:1029C00010921E3B10921B3BE2E7F1E081E08C305D
:1029D00049F09491823009F49F5F21E0280F3196ED
:1029E000992381F180931C3B81E080931D3B1092E1
:1029F000183B1092193B10921A3B8AE280930B3BD2
:102A000010920C3B10920D3B10920E3B10920F3B1C
:102A100080E090E0A0E8BFE38093103B9093113BEF
:102A2000A093123BB093133B8AEF90E0A0E0B0E09C
:102A30008093143B9093153BA093163BB093173BA8
:102A4000CF910895822FC3CFCF93DF93CDB7DEB759
:102A5000E097CDBFDEBF88ED93E084BF9093610027
:102A6000E0E0F6E081E582838AE0858380E283838B
:102A700081E08083109202028093030A9EEF90937C
:102A8000260A9093270A99E09093000AE0E8FAE07A
:102A90002DEF31E026A737A7118290E89283848733
:102AA00081E18083789485E090E080934B3B909324
:102AB0004C3B81E090E08093453B9093463B23E084
:102AC00030E02093473B3093483B8093493B9093C1
:102AD0004A3B80913B3B823128F444E062EB71E059
:102AE0000E94D00280914B3B90914C3B0197F1F7B3
:102AF0008091493B90914A3B892B49F1E091933A6F
:102B0000F091943A2BE3E333F20709F1309739F06F
:102B1000A785B0899C918189809589238C93809128
:102B20004D3B8E7F80934D3B1092923A1092913A9A
:102B300083E39BE38093933A9093943AE091423BF2
:102B4000F091433B80819091443B892B80838BE6BD
:102B500091E03FD861E08CE00E942A0960E083E0C8
:102B60000E942A0983E00E94740A8436910584F544
:102B700061E08CE00E940A060E94380261317742CF
:102B800081059105D8F064E670E080E090E00E9455
:102B9000720260E08CE00E940A060E9438026131F5
:102BA00077428105910578F064E670E080E090E07E
:102BB0000E94720281E080939E3AD4CF6CE271E071
:102BC00080E090E0E4CF6CE271E080E090E0F0CF54
:102BD0000E943802613177428105910508F43FC2B5
:102BE0008FEF80939D3A61E08CE00E940A0680910D
:102BF0009D3A8F3F49F589E591E00E94E90D86E411
:102C000080939D3A10929C3A6DE97AE380E00E94AD
:102C100007056CE97AE381E00E94070588E0ECEFA4
:102C2000F6ECDE01119601900D928A95E1F7BE0156
:102C30006F5F7F4F82E00E941C050E94C7040E94C4
:102C4000E70481E080939E3A8091011480939C3A3E
:102C500080910A148093C13A80910B148093C23AF8
:102C600080910C148093C33A80910D148093C43AE0
:102C700080910E148093083880910F148093093846
:102C80008091101480930A388091111480930B382E
:102C900086E698EC0E94DC0D80919C3A22D88CE666
:102CA00098EC0E94DC0D6091C13A7091C23A80911B
:102CB000C33A9091C43A0E94460E82E798EC0E9473
:102CC000DC0D609108387091093880910A38909134
:102CD0000B3842E017D888E298EC0E94DC0D86E2BF
:102CE00090E00E9478214C0134E6A32EB12C4AE0FA
:102CF000C42E47EDD42E43E2E42E4CE3F42E03E53C
:102D000011E025E531E041E06FEF1DDBC401E4D9BE
:102D1000FC0180EB9DE082A393A3148E158E168E8A
:102D2000178E10A211A280E290E00E9478218C01FF
:102D300082E0D80112968C9312978FEF9FEF139633
:102D40008D939C9314978DE090E015968D939C93B2
:102D50001697EE24E394F12C1796ED92FC921897B7
:102D600053961D921C9254975196ED92FC92529755
:102D70008EE491E055968D939C93569757961D92AD
:102D80001C92589781EC9DEBA0EFBFEFF801818773
:102D90009287A387B4878EE392E4AFE0B0E08587A3
:102DA0009687A787B08B118E128E82E397EC808373
:102DB000918381E0838FE48EF58E168E178E62E00C
:102DC0000E942A09D8015C962D913C915D97223092
:102DD000310508F059C115961D921C921697179649
:102DE0001D921C9218975B968C912130310509F049
:102DF00043C10E94910551E040E030E020E08111A4
:102E000050E0852F942FA32FB22FF801818792874E
:102E1000A387B487C80160D944E063E971E081E029
:102E20000E94D00286E290E00E9478214C010AE0E4
:102E3000A02EB12C8DECC82E8CECD82E8CE4E82E74
:102E40008EE3F82E0EE311E022E431E043E065E08A
:102E5000C40179DAC40140D9FC0185EE90E182A376
:102E600093A38EE69FE0848F958F8CE592E1868F09
:102E7000978F88E893E180A391A386E290E00E9477
:102E800078214C01AA24A394B12CC12CD12C20E888
:102E9000E22E2FE3F22E10E000E029E331E045E0DE
:102EA0006FEFC40150DAC40117D9FC018AE991E03F
:102EB00082A393A3148E158E168E178E10A211A2C4
:102EC00062E08DE00E942A0944E065EA71E08DE04D
:102ED0000E94D0028091D23A81FD2AC082FD28C092
:102EE0008091010284FFE6C086E080930604809111
:102EF000D23A82608093D23AE091CF3AF091D03AC0
:102F000081E083838583E091CF3AF091D03A90912C
:102F1000D23A91FF22C096819E3091F02381138294
:102F20009EE0968390819D7F9083238320FD8583FF
:102F3000E091CF3AF091D03A8091D23A81FF0DC022
:102F40008681813051F02381138291E096838081C4
:102F50008D7F8083238320FD958387EC9AE3809384
:102F6000093B90930A3B0E94C70B882309F4A6C033
:102F700060E080E00E94560C61E070E080E090E04C
:102F80000E94720260E080E00E94820C182F0E9472
:102F9000670C182381E00E94D90B877C682F606240
:102FA00081E00E94260C60E087E00E94560C182306
:102FB00081E00E94D90B887F682F656081E00E94C4
:102FC000260C182382E00E94D90B8F78682F60614D
:102FD00082E00E94260C182385E10E94D90B682FFD
:102FE000606385E10E94260C18236CE187E00E9453
:102FF000560C18236BE186E00E94820C1823609126
:10300000143B7091153B8091163B9091173B0E94A9
:1030100072028AE00E949A0C82E00E94D90B682F0B
:103020006C7F82E00E94260C62E082E00E94560CD7
:103030000E9438026B017C0182E00E94D90B82FF62
:1030400044C00E9438026C197D098E099F09693EAF
:1030500073408105910508F4FDC290E03CC0809169
:10306000001480939D3A81E698EC0E94DC0D8091DB
:103070009D3A0E94710EB7CD0E949105082E000C5A
:10308000990BAA0BBB0BC1CE88E090E015968D93EF
:103090009C9316971796ED92FC92189719968D911E
:1030A0009D910D90BC91A02DF80185879687A787EB
:1030B000B08BB0CE83E08093260419CF0E94C70B5B
:1030C000811156CF83E898EC38C182E00E94D90B79
:1030D00091E083FDC2CF1123A9F3992399F386E2EE
:1030E00090E00E9478214C01BAE0AB2EB12C1DEC8F
:1030F000C12E1CECD12EED2C1DE3F12E0FE211E0C0
:1031000022E331E046E06FEF1ED9C4010E946C104B
:10311000FC018CE69DE082A393A3148E158E168E7F
:10312000178E10A211A28BE190E00E947821FC0181
:1031300087E082838FEF9FEF83839483138A148ABF
:1031400001E010E0018B128B8AE291E0858B968B77
:10315000178A108E81EC9DEBA0EFBFEF81879287DD
:10316000A387B4878EE392E4AFE0B0E085879687CB
:10317000A787B08B118E128E8AE797EC808391839C
:1031800081E190E08583968383E090E08783908758
:10319000CF010E946C1080939A3A90939B3A8FE1F2
:1031A00090E00E947821FC018AE497EC808391836F
:1031B00088E0828322E030E0238334838DE090E056
:1031C0008583968307831087138A148A018B128B59
:1031D0008FE191E0858B968B8CE191E0878B908FCE
:1031E0008091021490E0B0E0A0E080959095A095C9
:1031F000B09585879687A787B08B118E128E82E651
:1032000097EC8083918380910214898380910314C9
:103210008A83809104148B83809105148C83809120
:1032200006148D83809107148E83809108148F83F8
:103230008091091488878D819E81092E000CAA0B2C
:10324000BB0B81879287A387B48789819A81838FFB
:10325000948F8B819C81858F968F8F819885818BB0
:10326000928B4CE050E045835683019711F0278301
:103270003087CF010E946C108093B73A9093B83A90
:103280008BE190E00E947821FC0189E082838FEF3E
:103290009FEF83839483138A148A81E090E0818B6B
:1032A000928B86E191E0858B968B178A108E81EC4C
:1032B0009DEBA0EFBFEF81879287A387B4878EE352
:1032C00092E4AFE0B0E085879687A787B08B118E38
:1032D000128E8AE797EC8083918381E190E0858369
:1032E000968383E090E087839087CF010E946C10E3
:1032F0008091C13A9091C23AA091C33AB091C43A38
:1033000080930C3B90930D3BA0930E3BB0930F3BEF
:103310008091083890910938A0910A38B0910B3803
:103320008093103B9093113BA093123BB093133BBF
:1033300084E10E949A0C8AE798EC0E94360E11E014
:103340001093BF3A81E591E18093973A9093983A30
:103350001092953A1092963A40E45EE06FEC79E173
:1033600081E29BE30E949809892B09F47AC18BEBD7
:1033700097E08093233B9093243B81E29BE30E9460
:103380004F098EE398E08093253B9093263B81E2A2
:103390009BE30E944F096EE070E081E29BE30E9494
:1033A000FE0843EC61EB81E29BE30E948C064AE05D
:1033B00067EB81E29BE30E948C066EE181E29BE376
:1033C0000E94D2068F70482F40696EE981E29BE32C
:1033D0000E948C060E94D4066DE181E29BE30E946C
:1033E000D2068F70482F40676DE981E29BE30E940F
:1033F0008C060E94D4066DE181E29BE30E94D20616
:10340000817F482F42606DE981E29BE30E948C0638
:1034100081E29BE30E942F081093B63A8EE091E080
:103420000E94E90D80919E3A811139C1F8948091F2
:1034300041018111FCCF1092470181E0809352013C
:1034400091E7909350019EE09093000A2CE033E0C6
:103450002093260A3093270A80930A0A8091000A53
:1034600081608093000A789460E08CE00E940A06F4
:103470008CEE90E00E94E90D8FEF9FE18093B43ACB
:103480009093B53A1092BA3A1092B93A43EA842E20
:103490004AE3942E50E1552E0E94590FC090BB3A3A
:1034A000D090BC3AE090BD3AF090BE3AC114D1043D
:1034B000E104F10449F00E94380266246394C616C0
:1034C000D706E806F90608F0612C8091BA3A8823FD
:1034D00089F161E08CE00E940A060E94670C88E096
:1034E0000E949A0C60930C3B70930D3B80930E3BB3
:1034F00090930F3B6093C13A7093C23A8093C33A62
:103500009093C43A0E94C7046091C13A7091C23A44
:103510008091C33A9091C43A0E94460E0E94940C46
:1035200060E08CE00E940A068FE898EC0E94360E5C
:103530001092BA3A8091B93A882309F453C061E0F5
:103540008CE00E940A060E94670C8091B73A909125
:10355000B83ADC01ED91FC910480F581E02D0995EC
:103560006B017C0188E00E949A0C00910C3B109149
:103570000D3B20910E3B30910F3B601B710B820B7A
:10358000930BDCD2A70196019BD46093103B709300
:10359000113B8093123B9093133B609308387093D8
:1035A000093880930A3890930B380E94E7046091A1
:1035B00008387091093880910A3890910B3842E0B0
:1035C0000E94820E88E298EC0E94DC0D0E94940C0E
:1035D00060E08CE00E940A0689E998EC0E94360EB1
:1035E0001092B93A8091B63A882309F455CF809168
:1035F000B43A9091B53A0A9718F4662009F44CCF82
:1036000061E08CE00E940A061092B43A1092B53A3A
:10361000809100068160809300060E94670C10E094
:1036200080911A3B181708F04FC1812F90E0880F46
:10363000991FE091183BF091193BE80FF91F808129
:103640009181DC01ED91FC910088F189E02D0995D3
:103650001F5FE6CF61E070E080E090E00E947202C0
:10366000EBCC1092B63A87EF90E00E94E90D13E0A0
:1036700061E08CE00E940A0664E670E080E090E081
:103680000E94720260E08CE00E940A0664E670E02C
:1036900080E090E00E947202115051F7C7CE8FEF88
:1036A00080939C3A8E010D5D1F4FFEE0FF2ED801E6
:1036B000EF2D1D92EA95E9F78EEF89A38DE08AA39D
:1036C00083E08BA345E050E068E071E0CE01849692
:1036D000E1D130E020E0AE014F5D5F4F60919D3A57
:1036E00080919C3A0E94C708D8011D92FA94E9F78C
:1036F00045E050E062E071E0C801CCD122E030E06A
:10370000AE014F5D5F4F60919D3A80919C3A0E945F
:10371000C7081BA227E030E0AE014F5D5F4F60910C
:103720009D3A80919C3A0E94C708D12C4E01B3E18A
:103730008B0E911CAEE0CA2E80911A3BD81608F071
:1037400090C08D2D90E0880F991FE091183BF0916B
:10375000193BE80FF91F00811181F801828188234C
:1037600009F47DC0D401EC2D1D92EA95E9F7898B0F
:10377000D80115968C9115978A8B17968C9117976F
:103780008B8B5596ED90FC90C7017BD18D309105C8
:1037900010F08DE090E0AC01B701CE0144967AD1F3
:1037A00030E020E0AE014F5E5F4F60919D3A809126
:1037B0009C3A0E94C708F801A788B08CA114B104F4
:1037C00051F1C5015ED17C01892B29F1D8011296F6
:1037D0008C918983A701BEE0EB16F10410F04EE056
:1037E00050E0B501CE01039655D1EEE0EE16F1049E
:1037F00038F4E3E0F0E0EC0FFD1FEE0DFF1D10824A
:1038000021E030E0AE014F5F5F4F60919D3A8091C3
:103810009C3A0E94C708D801ED91FC910288F38977
:10382000E02DC8010995F4012C2D11922A95E9F794
:10383000D80112968C911297898B15968C911597B9
:103840008A8B17968C918B8B27E030E0AE014F5E10
:103850005F4F60919D3A80919C3A0E94C708D39433
:103860006BCF81E08093993A63E0C62ED12CE12C96
:10387000F12C812C912C54018A9493948091993A43
:10388000882309F4D3CD0E943802A701960144D4BD
:10389000CA01B901A50194013FD46F5F710977FF97
:1038A00003C0719561957109603871055CF460E041
:1038B0008CE00E940A0661E08CE00E942A090E94C6
:1038C000590FDCCF61E0F4CF712C80911A3B781650
:1038D00008F0A7C0872D90E0880F991FE091183B52
:1038E000F091193BE80FF91F00811181F8018281E5
:1038F000882309F46AC081859285A385B485E5840F
:10390000F684E81AF90AF7FE03C0F194E194F1088D
:10391000F801A388B488AE14BF041CF0662009F433
:1039200054C0F80185879687A787B08B0580F681FC
:10393000E02DED30F10508F037C0E056F34E2AC413
:10394000AD1CAD1CAD1CD41CE71CD41CD41CE71C46
:10395000AD1CD41CD41CE71CAD1CD80155968D9110
:103960009C910E94EC038AEA98EC0E94DC0DF8011D
:1039700061857285838594850E94460EF801818554
:103980009285A385B4858093A33A9093A43AA0939B
:10399000A53AB093A63A818992898093A73A9093E9
:1039A000A83AC8010E94E508AE14BF0474F4D80117
:1039B0005996ED91FC915A97309739F019966D917F
:1039C0007D918D919C911C97099573947ECFD80120
:1039D000ED91FC910680F781E02DC80109956C01FD
:1039E000F801858996890E94EC038AEA98EC0E9486
:1039F000DC0DC6010E94360EF60101900020E9F7A9
:103A00003197D401252D1D922A95E9F7EC19E13162
:103A100008F0E0E14E2F50E0B60183EA9AE353D676
:103A2000C0CF1092BB3A1092BC3A1092BD3A10929D
:103A3000BE3A0E94940C809100068E7F809300060F
:103A400060E08CE00E940A0627CD8AE198EC809322
:103A5000333B9093343B8091933A9091943A8353C3
:103A60009B4371F4E091423BF091433B9081809104
:103A7000443B8095892380831092933A1092943A24
:103A80000895FC0105900020E9F7809590958E0F30
:103A90009F1F0895FB01DC014150504048F0059004
:103AA0000D920020C9F701C01D9241505040E0F72F
:103AB0000895BB272A3051F4992342F4BDE2909532
:103AC0008095709561957F4F8F4F9F4F01C0BB27A9
:103AD000FA01A62F6217710581059105330B30FBA2
:103AE00066F0AA27660F771F881F991FAA1FA217C3
:103AF00010F0A21B63953850A9F7A05DAA3308F017
:103B0000A95DA19336F7B111B1931082CA0100C02B
:103B1000DC01FC01672F71917723E1F7329704C034
:103B20007C916D9370836291AE17BF07C8F30895BF
:103B300040D008F481E00895E89409C097FB3EF472
:103B400090958095709561957F4F8F4F9F4F9923EA
:103B5000A9F0F92F96E9BB279395F6958795779568
:103B60006795B795F111F8CFFAF4BB0F11F460FF28
:103B70001BC06F5F7F4F8F4F9F4F16C0882311F080
:103B800096E911C0772321F09EE8872F762F05C094
:103B9000662371F096E8862F70E060E02AF09A952F
:103BA000660F771F881FDAF7880F9695879597F924
:103BB0000895990F0008550FAA0BE0E8FEEF1616BE
:103BC0001706E807F907C0F012161306E407F50711
:103BD00098F0621B730B840B950B39F40A2661F085
:103BE000232B242B252B21F408950A2609F4A14028
:103BF000A6958FEF811D811D08950BD078C069D0E7
:103C000028F06ED018F0952309F05AC05FC0112437
:103C1000A2C07ED0A0F3959FD1F3950F50E0551F21
:103C2000629FF001729FBB27F00DB11D639FAA2711
:103C3000F00DB11DAA1F649F6627B00DA11D661F60
:103C4000829F2227B00DA11D621F739FB00DA11D81
:103C5000621F839FA00D611D221F749F3327A00D3B
:103C6000611D231F849F600D211D822F762F6A2FD7
:103C700011249F5750408AF0E1F088234AF0EE0F5C
:103C8000FF1FBB1F661F771F881F91505040A9F769
:103C90009E3F510570F014C05EC05F3FECF3983E4C
:103CA000DCF3869577956795B795F795E7959F5FD0
:103CB000C1F7FE2B880F911D9695879597F908956A
:103CC00097F99F6780E870E060E008959FEF80ECCF
:103CD000089500240A941616170618060906089572
:103CE00000240A9412161306140605060895092ED8
:103CF0000394000C11F4882352F0BB0F40F4BF2B47
:103D000011F460FF04C06F5F7F4F8F4F9F4F089586
:103D100057FD9058440F551F59F05F3F71F047957C
:103D2000880F97FB991F61F09F3F79F08795089561
:103D3000121613061406551FF2CF4695F1DF08C080
:103D4000161617061806991FF1CF8695710561059D
:103D500008940895E894BB2766277727CB0197F945
:103D600008953AD0A59F900DB49F900DA49F800D0B
:103D7000911D112408952F923F924F925F926F925E
:103D80007F928F929F92AF92BF92CF92DF92EF92EB
:103D9000FF920F931F93CF93DF93CDB7DEB7CA1B6C
:103DA000DB0BCDBFDEBF09942A88398848885F8441
:103DB0006E847D848C849B84AA84B984C884DF80CB
:103DC000EE80FD800C811B81AA81B981CE0FD11DAF
:103DD000CDBFDEBFED010895A29FB001B39FC0012A
:103DE000A39F700D811D1124911DB29F700D811D27
:103DF0001124911D08955058BB27AA270ED077CFC4
:103E000068DF30F06DDF20F031F49F3F11F41EF4D5
:103E10005DCF0EF4E095E7FB53CFE92F79DF80F318
:103E2000BA17620773078407950718F071F49EF5B7
:103E300091CF0EF4E0950B2EBA2FA02D0B01B901F6
:103E400090010C01CA01A0011124FF27591B99F010
:103E5000593F50F4503E68F11A16F040A22F232F1C
:103E6000342F4427585FF3CF469537952795A7956C
:103E7000F0405395C9F77EF41F16BA0B620B730B13
:103E8000840BBAF09150A1F0FF0FBB1F661F771F84
:103E9000881FC2F70EC0BA0F621F731F841F48F439
:103EA000879577956795B795F7959E3F08F0B3CFBF
:103EB0009395880F08F09927EE0F979587950895A9
:103EC0000CD015CF0DDF40F004DF30F021F45F3F60
:103ED00019F0F6CE51113FCFF9CE1ADF98F399239E
:103EE000C9F35523B1F3951B550BBB27AA276217BE
:103EF0007307840738F09F5F5F4F220F331F441F03
:103F0000AA1FA9F333D00E2E3AF0E0E830D091503A
:103F10005040E695001CCAF729D0FE2F27D0660F27
:103F2000771F881FBB1F261737074807AB07B0E866
:103F300009F0BB0B802DBF01FF2793585F4F2AF07C
:103F40009E3F510568F0BCCE06CF5F3FECF3983E34
:103F5000DCF3869577956795B795F7959F5FC9F7D9
:103F6000880F911D9695879597F90895E1E0660F62
:103F7000771F881FBB1F621773078407BA0720F0DB
:103F8000621B730B840BBA0BEE1F88F7E095089544
:103F900004D06894B111DFCE0895C2DE88F09F5737
:103FA00090F0B92F9927B751A0F0D1F0660F771F85
:103FB000881F991F1AF0BA95C9F712C0B13081F065
:103FC000C9DEB1E00895C6CE672F782F8827B85F85
:103FD00039F0B93FCCF3869577956795B395D9F7C6
:103FE0003EF490958095709561957F4F8F4F9F4FD0
:103FF0000895DFDD08F48FEF08950EF047C066CE18
:1040000068945ECE8DDEC8F39923D1F3C6F3DF93B7
:10401000CF931F930F93FF92C92FDD2788232AF098
:104020002197660F771F881FDAF720E030E040E81D
:104030005FEB9FE3883920F0803E30F021968F7748
:10404000DBDEECE7F0E003C0D7DEE9EAF0E02CD0FD
:104050008B01BE01EC01FB2E6F5771097595771F1F
:10406000880B990B6BDD28E132E741E35FE3D1DD9B
:10407000AF2D9801AE01FF900F911F91CF91DF916D
:10408000CCDE35CE96DD880B990B08959F3F31F03D
:10409000915020F4879577956795B795880F911D76
:1040A0009695879597F90895DF93CF931F930F9374
:1040B000FF92EF92DF927B018C01689405C0DA2EAB
:1040C000EF01A7DDFE01E894A59125913591459179
:1040D0005591AEF3EF01A1DEFE019701A801DA943C
:1040E00079F7DF90EF90FF900F911F91CF91DF91C3
:1040F000089597FB072E16F4009406D077FD08D09C
:10410000E3D007FC05D03EF4909581959F4F08952C
:10411000709561957F4F0895A1E21A2EAA1BBB1BD3
:10412000FD010DC0AA1FBB1FEE1FFF1FA217B30783
:10413000E407F50720F0A21BB30BE40BF50B661F99
:10414000771F881F991F1A9469F76095709580955D
:1041500090959B01AC01BD01CF010895052E97FB01
:1041600016F400940FD057FD05D0D6DF07FC02D01F
:1041700046F408C050954095309521953F4F4F4FDC
:104180005F4F089590958095709561957F4F8F4F03
:104190009F4F0895EE0FFF1F0590F491E02D0994B5
:1041A000689401C0E8948F929F92CF93DF9305D0DB
:1041B000DF91CF919F908F90089588249924F401E6
:1041C000E401B0E49F93AA279A158B049C04ED05A3
:1041D000FE05CF05D007A10798F4AD2FDC2FCF2F18
:1041E000FE2FE92D982C892E982F872F762F652F5B
:1041F000542F432F322F2227B85031F7BF9127C0B9
:104200001B2EBF91BB27220F331F441F551F661F54
:10421000771F881F991F881C991CEE1FFF1FCC1F3A
:10422000DD1FAA1FBB1F8A149B04EC05FD05CE05EC
:10423000DF05A007B10748F08A189B08EC09FD09C3
:10424000CE09DF09A00BB10B21601A94E1F62EF420
:104250009401AF01BE01CD01000C0895002E08307D
:1042600090F0982F872F762F652F542F432F322FC2
:1042700022270850F4CF220F331F441F551F661FFB
:10428000771F881F991F0A95B2F7002D089597FD93
:104290001094002E083098F00850232F342F452F0B
:1042A000562F672F782F892F912DF4CF159497953E
:1042B00087957795679557954795379527950A95EB
:1042C000AAF71124002D0895AA1BBB1B51E107C0BA
:1042D000AA1FBB1FA617B70710F0A61BB70B881F96
:1042E000991F5A95A9F780959095BC01CD01089525
:1042F0000F931F93CF93DF938230910510F482E0E8
:1043000090E0E091503BF091513B30E020E0B0E094
:10431000A0E0309799F42115310509F44AC0281B13
:10432000390B24303105D8F58A819B8161157105DF
:1043300089F1FB0182839383FE0111C04081518189
:104340000281138148175907E0F04817590799F47B
:10435000109761F012960C93129713961C93329655
:10436000CF01DF91CF911F910F9108950093503BA2
:104370001093513BF4CF2115310551F042175307EB
:1043800038F0A901DB019A01BD01DF01F801C1CFBD
:10439000EF01F9CF8093503B9093513BCDCFFE017D
:1043A000E20FF31F819391932250310928833983BF
:1043B000D7CF20914E3B30914F3B232B41F420919E
:1043C0000E3830910F3820934E3B30934F3B209165
:1043D0000C3830910D382115310541F42DB73EB719
:1043E0004091103850911138241B350BE0914E3B11
:1043F000F0914F3BE217F307A0F42E1B3F0B281759
:10440000390778F0AC014E5F5F4F2417350748F04D
:104410004E0F5F1F40934E3B50934F3B81939193C0
:104420009FCFF0E0E0E09CCFCF93DF930097E9F0DF
:10443000FC01329712821382A091503BB091513B04
:10444000ED0130E020E01097A1F420813181820F4E
:10445000931F20914E3B30914F3B2817390709F0AD
:1044600061C0E0934E3BF0934F3BDF91CF910895B5
:10447000EA01CE17DF07E8F54A815B819E0141150D
:104480005105B1F7E901EA83FB8349915991C40FC2
:10449000D51FEC17FD0761F4808191810296840F8E
:1044A000951FE90188839983828193818A839B8305
:1044B000F0E0E0E012968D919C9113970097B9F58A
:1044C0002D913C911197CD010296820F931F20915F
:1044D0004E3B30914F3B2817390739F6309751F54D
:1044E0001092503B1092513BA0934E3BB0934F3BE8
:1044F000BCCFC283D38340815181840F951FC817DD
:10450000D90761F44E5F5F4F88819981480F591F29
:10451000408351838A819B81828393832115310556
:1045200009F0B0CFE093503BF093513B9ECFFD019B
:10453000DC01C0CF12821382D7CFB0E0A0E0E2EA64
:10454000F2E21BCC8C01009741F4CB01D1DE8C014F
:10455000C801CDB7DEB7E0E129CCFC01E60FF71FBB
:104560009C0122503109E217F30708F499C0D901E0
:10457000CD91DC911197C617D70790F0C530D105C2
:1045800038F3CE0104978617970710F3C61BD70B95
:104590002297C193D1936D937C93CF0145DFD8CF00
:1045A0005B01AC1ABD0A4C018C0E9D1EA091503BC4
:1045B000B091513B512C412CF12CE12C109731F54D
:1045C00080914E3B90914F3B8815990509F05CC056
:1045D0004616570608F058C080910C3890910D3857
:1045E000009741F48DB79EB7409110385091113823
:1045F000841B950BE817F90708F052C0E0934E3B77
:10460000F0934F3BF90160837183A2CF8D919C9110
:10461000119712966C90129713967C901397A81589
:10462000B90559F56C0142E0C40ED11CCA14DB0473
:1046300020F1AC014A195B09DA011296159780F056
:104640006282738240835183D9016D937C93E1141C
:10465000F10471F0D7011296ED93FC93139778CF84
:1046600022968C0F9D1FF90180839183F301EFCF78
:10467000E093503BF093513B6BCF4816590608F43A
:104680002C017D01D3019ACFCB0132DE7C01009752
:1046900039F0AE01B80107D0C801C6DE870158CF96
:1046A00010E000E055CFFB01DC0102C001900D924B
:1046B00041505040D8F70895FB01DC0101900D9264
:1046C0000020E1F70895FB01DC014150504048F023
:1046D00001900D920020C9F701C01D924150504039
:1046E000E0F7089510E0C0ECD0E003C0FE0152DD19
:0C46F0002196C13CD107D1F7F894FFCF10
:1046FC000A00F40196000A0000000000A6049904C8
:10470C00750449126F0464043E043A04AA0A39047D
:10471C00040506070504030201000001020301025F
:10472C00030000000000A6049904750449126F04EC
:10473C0064043E043A04AC05390400000000A604ED
:10474C009904750449126F0464043E043A04F60D8E
:10475C00390400000000A6049904750449126F0482
:10476C00640445053A0439049F1000000000A604B7
:10477C00990475043B046F0464043E043A04390440
:10478C0039041010F8000000001010104040000018
:10479C0000001000781E00A02800F03C00405100E2
:1047AC00127A00E4A20024F40048E80190D003201F
:1047BC00A107000000004203540336040E033C031F
:1047CC002A03160300000000980977092F07CC066E
:1047DC00CF06FE0892074C082F082908F0076C0931
:1047EC006109AF04AC0400000000010101010101EA
:1047FC000202020200000000102040802010080479
:10480C0002010102040802040801000000009003E8
:10481C000B0236048F030604180477030D0A006E8E
:10482C00616E00696E66006F7666002E00203D3E5C
:10483C0020003A004E6577204944200053657420CF
:10484C0074617265005365742063616C6962726196
:10485C0074696F6E005549442000687569642000C6
:10486C00746172652000666163746F72200053631B
:10487C00616C65204F4B005363616C6520657272EF
:10488C006F72005461726520646F6E650043616CD9
:10489C006962726174696F6E20646F6E6500203E90
:0248AC002000EA
:1048AE00881326381A3812380000803F0000523B19
:0248BE00800078
:00000001FF
