:10000000C0C00000F2C00000F0C000000C94051158
:100010000C9402110C94FF10E8C000000C946912BB
:100020000C94F511E2C00000E0C00000DEC000004A
:10003000DCC00000DAC00000D8C000000C94CE1074
:10004000D4C00000D2C00000D0C00000CEC000006C
:10005000CCC00000CAC00000C8C00000C6C000007C
:100060000C944F11C2C00000C0C00000BEC0000010
:10007000BCC00000BAC00000B8C00000080000000A
:10008000BE922449123EABAAAA2ABECDCCCC4C3E8D
:1000900000000080BEABAAAAAA3E00000000BF007C
:1000A0000000803F0000000000084178D3BB438778
:1000B000D1133D190E3CC3BD4282AD2B3E68EC828C
:1000C00076BED98FE1A93E4C80EFFFBE01C4FF7F11
:1000D0003F000000000070726F63657373206E6FE5
:1000E00074206F7665727269646564005365747517
:1000F0007020646F6E65004C6F5261204572726FA4
:10010000720042472D5231005275636865004C6F92
:100110005261204F4B0043616C6962006B6700576E
:100120006569676874207265660054617265006B6A
:1001300067005765696768740054696C7400C2B0E1
:10014000430054656D7065726174757265004F701F
:10015000656E00560056636300496E697469616C90
:10016000697A6520454550524F4D000A53746172BB
:1001700074001F1C1F1E1F1E1F1F1E1F1E00831228
:10018000611C11241FBECFEFCDBFDFE3DEBF809126
:10019000400080934000811105C098ED21E094BF9C
:1001A000209341008CBB2BE3A2E1B8E301C01D9278
:1001B000A535B207E1F718E3A0E0B8E3ECEDF5E40C
:1001C00002C005900D92A231B107D9F710E0C0EC42
:1001D000D0E004C02197FE010E940620CF3BD1074A
:1001E000C9F70E9470130C941A220ACFCF93DF93A1
:1001F000DC011896ED91FC911997838180FD04C074
:1002000080E1DF91CF91089551966C915197ED0166
:10021000659652969C91529720E43FE180E06E7F74
:100220004581542F537061F32150310981F485E0E9
:10023000523021F084E0513009F481E152962C9142
:100240005297291B52962C9393E09483DACF43FD67
:100250001FC0533029F3811105C0678320E43FE1BB
:1002600081E0DECF46FFDCCF44FF07C081FF0EC038
:1002700083E09111E3CF80E0E1CF9923E1F329916D
:1002800020879150826020E43FE1CACF82E0D6CF40
:1002900082E1B7CF0F931F93CF93DF93DB018A01E6
:1002A000EC01E885F9853C9180E49FE160E042E063
:1002B00021605581752F737091F1019741F485E0AC
:1002C0007230A9F084E0713091F481E110C053FDE7
:1002D00028C0733071F3611105C0278380E49FE16A
:1002E00061E0E7CF56FF0BC083E0848382E09C91FE
:1002F000931B9C93DF91CF911F910F91089557FF0E
:10030000D8CF8085E80189938E01315021F0448354
:1003100080E49FE1CECF87E0848380E0E8CF80E176
:10032000E6CF82E1E7CF8FEF9FE180939F3A9093F2
:10033000A03A089560912D3A70912E3A80912F3A0B
:100340009091303A0C94D81C0895E0912C3AF0E04A
:10035000EE0FFF1FE85EF54C80819181019680834E
:1003600091830895E0917E3AF0917F3A309709F4B5
:100370004DC0A285B3858185928D91FF04C09C916B
:10038000892329F408959C91892309F03FC0A7850A
:10039000B0899C918189809589238C9382899389E6
:1003A0000197F1F764897589A285B385518538E095
:1003B00020E0CB010197F1F7822F90E0959587958A
:1003C000282F4C91452309F02068315091F7828DF8
:1003D00081FD209580917D3A90E001968F73992759
:1003E00030917C3A381799F0A0917D3AB0E0AF5C3B
:1003F000B54C2C9380937D3A868997890197F1F7C4
:10040000A785B0898C919189892B8C930895828DD1
:100410008160828FF1CFAF92BF92CF92DF92EF9245
:10042000FF920F931F93CF93DF936C017B018B019E
:10043000040F151FEB015E01AE18BF08C017D107EE
:1004400059F06991D601ED91FC910190F081E02D78
:10045000C6010995892B79F7C501DF91CF911F91CD
:100460000F91FF90EF90DF90CF90BF90AF900895E5
:100470002FB7F8946091763A7091773A8091783AF4
:100480009091793A2FBF08959FB7F89488E08093B0
:10049000840A80918E0A81FFFCCF80918D0AE091C1
:1004A000A20AF091A30A2091723A3091733A4091D6
:1004B000743A5091753A9FBF80FF07C0E730F1054D
:1004C00020F42F5F3F4F4F4F5F4FAEEFB1E00E94E0
:1004D000ED1D6E0F7F1F811D911D660F771F881FF9
:1004E000991F0895CF92DF92EF92FF92CF93DF93FF
:1004F0006B017C01C9DFEB01C114D104E104F104FB
:1005000041F412C081E0C81AD108E108F108C851CD
:10051000DC4FBADF6C1B7D0B683E734068F3C1147F
:10052000D104E104F10471F7DF91CF91FF90EF90D6
:10053000DF90CF900895CF93DF93282F30E0F9011B
:10054000E459FB4390819F3F89F1A2E0443009F4D4
:10055000A1E0205E3A43E901E881F0E0EF01CC0F31
:10056000DD1FCE5FD74C2881398121153105F1F08F
:1005700061157105D9F0492F50E0440F551F240F24
:10058000351FE901688379834FB7F8949F0155E0DF
:10059000220F331F5A95E1F7E0E1E90FE20FF0E097
:1005A000FC5F8081887F8A2B80834FBFDF91CF9152
:1005B0000895DC011896ED91FC9184818860848314
:1005C00008959C012B5E3F4FDC015396EC915397AD
:1005D00052968C91E81730F4E20FF32FF11D8081D1
:1005E00090E008958FEF9FEF0895FC01DC01559690
:1005F00093898289981740F4A90FB11D2C919F5FB0
:10060000938B822F90E008958FEF9FEF0895FC0168
:1006100082899389891B990B0895FC01A289A032D4
:1006200058F4A80FB92FB11D55966C9382898F5F2E
:10063000828B81E090E0089590E080E00895BF9281
:10064000CF92DF92EF92FF920F931F93CF93DF939E
:100650007C016A01B62EEB010C2F0B1910E00C1572
:100660001D0528F46991C701D8DF892BA9F7C801B6
:10067000DF91CF911F910F91FF90EF90DF90CF907E
:10068000BF90089520917E3A30917F3A281739071C
:1006900071F490917C3A80917D3A981741F0E09105
:1006A0007C3AF0E0EF5CF54C808190E008958FEFAC
:1006B0009FEF08950895EF92FF920F931F93CF93AA
:1006C000DF93DC015896ED90FC905997E114F1040A
:1006D00079F481E090E012968D939C93139790E0CB
:1006E00080E0DF91CF911F910F91FF90EF900895DF
:1006F0001D96ED91FC911E971C968C911C97982F3E
:1007000090950FB75A962C915A97122F127021FD7F
:100710006095F8942081112319F1282B2083E7019B
:100720002197F1F728E0462F50E0308160FF1AC092
:10073000382B3083E7012197F1F7BA01759567955A
:10074000215089F7112381F08081892380830FBF95
:1007500058968D919C910197F1F781E090E0C1CF7F
:100760002923DCCF3923E5CF9081892BEFCF0F935D
:100770001F93CF93DF938C01D0E0C0E0F801EC0F22
:10078000FD1F6491662339F086E39BE394DF892B98
:1007900011F02196F3CFCE01DF91CF911F910F91F0
:1007A000089520917E3A30917F3A2817390741F415
:1007B00080917D3A90917C3A891B8F7390E00895E7
:1007C00090E080E0089520917E3A30917F3A28179A
:1007D0003907A1F490917C3A80917D3A981771F095
:1007E000E0917C3AF0E0EF5CF54C808190917C3AAE
:1007F0009F5F9F7390937C3A90E008958FEF9FEFF7
:10080000089590E080E008950895089590E080E0D4
:100810000895CF92DF92EF92FF92CF93DF93EC0196
:100820006A017B0169897A89072E000C880B990B74
:100830000E94DA1CA70196010E94391D0E94041F24
:10084000AB01BC01E881F9810084F185E02DCE0186
:10085000DF91CF91FF90EF90DF90CF900994462FDA
:1008600050E070E060E0DC01ED91FC910084F185E6
:10087000E02D0994FC0141875287638774870895AE
:10088000CF92DF92EF92FF92CF93DF93EC016985D5
:100890007A858B859C850E94DA1C6B017C016989B5
:1008A0007A89072E000C880B990B0E94DA1C9B0199
:1008B000AC01C701B6010E949C1EDF91CF91FF9051
:1008C000EF90DF90CF90089521E0FC018185928523
:1008D000A385B485892B8A2B8B2B09F420E0822FEA
:1008E0000895FC0161857285838594850895FC01D6
:1008F000A081B0E0BC5E2C91621769F0E0E0F0E10D
:100900000FB622812370E9F7F8946C936DE964BF08
:1009100063E060830FBE0895EF92FF921F93CF9321
:10092000DF931F92CDB7DEB78AEAE82E8AE3F82E6E
:100930001AE01983F70161917F01CE010196D7DF9B
:100940001F5F1E30B1F78AEA9AE30F90DF91CF91D3
:100950001F91FF90EF900895EF92FF921F93CF9316
:10096000DF931F92CDB7DEB788E0E82E88E3F82E3C
:100970001EE01983F70161917F01CE010196B7DF77
:100980001F5F1231B1F788E098E30F90DF91CF91AC
:100990001F91FF90EF9008950F931F93CF93DF93D4
:1009A0001F92CDB7DEB78B018983FB016081CE0139
:1009B00001969DDFC8010F90DF91CF911F910F919C
:1009C0000895CF92DF92EF92FF920F931F93CF93F0
:1009D000DF931F92CDB7DEB7182FD62E072FE62E46
:1009E000F72E88E0C82EC10E1983F70161917F01AF
:1009F000CE0101967CDF1F5F1C11F6CF8D2D902F4D
:100A00000F90DF91CF911F910F91FF90EF90DF90AA
:100A1000CF900895CF92DF92EF92FF920F931F93A2
:100A2000CF93DF93CDB7DEB72897CDBFDEBF8C0164
:100A30006A017B01DC0151966D917C91072E000CBF
:100A4000880B990B0E94DA1CA70196010E94391DA0
:100A50000E94041FAB01BC01D801ED91FC91008400
:100A6000F185E02DC8010995F801838D948D898366
:100A70009A83858D968D8B839C83818592858D83CA
:100A80009E83818992898F839887BE016F5F7F4F94
:100A9000838197DF2896CDBFDEBFDF91CF911F9175
:100AA0000F91FF90EF90DF90CF900895FC0101909F
:100AB0000020E9F73197AF01481B590BBC0186E3D1
:100AC0009BE3A9CCCF93DF9352DEEC0186E595EC56
:100AD000EDDF8C0F9D1FDF91CF91089586ED90E0A3
:100AE000F1CF8F929F92AF92BF920F931F93CF93AC
:100AF000DF93CDB7DEB7A197CDBFDEBF19A24230DD
:100B000008F44AE08E010F5D1F4F842E912CB12C0A
:100B1000A12CA50194010E94C81FE62FB901CA01AA
:100B2000EA30D4F4E05DD801EE938D01232B242B21
:100B3000252B79F790E080E0109711F0CD01B6DF1A
:100B4000A196CDBFDEBFDF91CF911F910F91BF90D6
:100B5000AF909F908F900895E95CE5CFCF93DF939E
:100B6000D0E0C0E0009711F0A1DFEC0186E595EC44
:100B70009DDF8C0F9D1FDF91CF910895CF92DF9263
:100B8000EF92FF92CF93DF936B017C01F7FE1CC0C5
:100B90006DE286E39BE38FDDEC0166277727CB01CF
:100BA0006C197D098E099F094AE09BDFC80FD91F88
:100BB00086E595EC7BDF8C0F9D1FDF91CF91FF9039
:100BC000EF90DF90CF9008954AE08BDFEC01F0CFFB
:100BD000CF93DF93682F70E090E080E04AE081DF00
:100BE000EC0186E595EC62DF8C0F9D1FDF91CF91C4
:100BF00008954F925F926F927F928F929F92AF92E1
:100C0000BF92CF92DF92EF92FF920F931F93CF93F9
:100C10006B017C01742EAC019B010E947E1F882316
:100C200091F089E595ECCF911F910F91FF90EF9096
:100C3000DF90CF90BF90AF909F908F907F906F90FC
:100C40005F904F9033CF46015701E894B7F82FEFEC
:100C50003FEF4FE75FE7C501B4010E947E1F81119E
:100C60000DC02FEF3FEF4FE75FE7C501B4010E94D2
:100C7000D41C18161CF48DE595ECD5CF2FEF3FEF63
:100C80004FE75FE4C701B6010E94351F18161CF438
:100C900081E695ECC8CF2FEF3FEF4FE75FECC70140
:100CA000B6010E94D41C87FDF3CF20E030E0A901FB
:100CB000C701B6010E94D41C10E000E087FF09C004
:100CC0006DE286E39BE3F7DC8C01F7FAF094F7F82A
:100CD000F094C0E060E070E080E09FE37C1641F0BB
:100CE00020E030E040E251E40E949C1ECF5FF6CF4E
:100CF000A70196010E94381E2B013C010E94091F8A
:100D00004B015C014AE0EDDE7C01E00EF11ECC23DC
:100D1000A9F1C501B4010E94D81C9B01AC01C3011B
:100D2000B2010E94371E4B015C0185E695ECBEDEE8
:100D3000E80EF91EC15010F120E030E040E251E42D
:100D4000C501B4010E94391D2B013C010E94091FFD
:100D50004B01B12CA12C4AE0C501B401C2DEE80E62
:100D6000F91EC501B4010E94D81C9B01AC01C3014E
:100D7000B2010E94371E4B015C01DCCFC701CF914D
:100D80001F910F91FF90EF90DF90CF90BF90AF90A9
:100D90009F908F907F906F905F904F9008958F926B
:100DA0009F92AF92BF92EF92FF920F931F93CF93B8
:100DB000DF93CDB7DEB76897CDBFDEBF9091173A0E
:100DC0008091163A981709F457C0E091173A88E1D4
:100DD0008E9FF0011124EA5CF74CDE011196019020
:100DE0000D928A95E1F78091173A8F5F8093173AB9
:100DF0008091173A843110F01092173AFD806F2DD0
:100E000070E090E080E04AE06CDE87E695EC4EDE34
:100E10000C81602F70E090E080E04AE062DE8CE6BA
:100E200095EC44DE1E81812FD3DE0F3F99F5809132
:100E3000873AF81221C01B3FF9F42091883A88853F
:100E4000122F181B15DB4B015C01212F30E0AEE0A7
:100E5000B1E00E94281E6053784F8F4F9F4F680D5E
:100E6000791D8A1D9B1D61606093A63A7093A73A15
:100E70008093A83A9093A93A6896CDBFDEBFDF91E0
:100E8000CF911F910F91FF90EF90BF90AF909F90E7
:100E90008F9008958091883A0813EECF8091843A1C
:100EA000882371F11E3F61F58F8187708630E9F4E8
:100EB00088858111E1CF89858093883A68E87AE353
:100EC00080E06ADD8EE695ECF1DD8091883A6896E7
:100ED000CDBFDEBFDF91CF911F910F91FF90EF90BB
:100EE000BF90AF909F908F9073CE873029F6F0928D
:100EF000873A67E87AE381E04FDD1092843ABCCF0D
:100F0000E090A23AF090A33AE114F10469F11830AC
:100F100059F5688579858A859B850E94DA1C4B0185
:100F20005C016C857D8590E080E00E94D81C9B016F
:100F3000AC01C501B4010E949C1EAB01BC01D701EC
:100F4000ED91FC910484F585E02DC7016896CDBF35
:100F5000DEBFDF91CF911F910F91FF90EF90BF9077
:100F6000AF909F908F9009948091853A9091863AA6
:100F7000892BA9F0173099F481E08093A53A86E790
:100F800095EC6896CDBFDEBFDF91CF911F910F9199
:100F9000FF90EF90BF90AF909F908F90DFCDEF28A4
:100FA00009F46ACF193009F067CF81E08093A43A41
:100FB0008FE795ECE6CFCF93DF93EC016091033B95
:100FC00070E06F5F7F4F660F771F8091013B9091BC
:100FD000023B0E9445218093013B9093023B009786
:100FE000D1F02091033BE22FF0E0EE0FFF1FE80F5E
:100FF000F91FC083D1832F5F2093033B30E0215042
:101000003048220F331F820F931FFC018081918192
:10101000DF91CF91089590E080E0FACF282F30E063
:101020008231A8F4F901EE5CFA4380818F3F79F0B8
:10103000205E3A43D901EC91B0E2EB9FF00111241C
:10104000FC5F9085982381E019F480E008958FEF8C
:101050000895CF93DF93EC01EE8DFF8D309729F14A
:10106000099590E0B0E0A0E089879A87AB87BC87BC
:101070008C8D9D8D8230910589F589859A85AB850A
:10108000BC854D855E856F857889481759076A0745
:101090007B0741F0892B8A2B8B2B21F41D861E8622
:1010A0001F86188ADF91CF9108958B8D2C8D3D8DF1
:1010B0002130310561F4B2DF51E040E030E020E062
:1010C000811150E0852F942FA32FB22FCDCFA6DF13
:1010D000082E000C990BAA0BBB0BC6CF039711F778
:1010E00089859A85AB85BC854D855E856F857889B8
:1010F000481759076A077B07A9F281309105A105B6
:10110000B10581F68D879E87AF87B88BCBCFCF9304
:10111000DF93823108F047C090E0EC01CE5CDA4307
:1011200028812F3F09F43FC0AC01405E5A43DA01E9
:10113000EC91B0E2EB9FF0011124FC5F611136C02D
:10114000268330812323A1F49C0124593B43D901F8
:101150002C91309769F1283058F57096E20FF11D07
:101160003FB7F8942081611126C0277F20833FBFBD
:1011700082529B43FC0190819923A9F0888190348D
:1011800009F1983FE1F0903171F4DA019C919130CE
:10119000A1F4853010F0880F82959091010A809516
:1011A00089238093010ADF91CF9108952583C9CFC8
:1011B000F0E0E0E0D5CF2860D9CF880FEECF1092D5
:1011C000A006F1CF823019F180E49091920A982321
:1011D00051F34FB7F8949091800A9E7F9093800AC4
:1011E0002091920A90E08095909530E0822393239D
:1011F00028ED24BF8093920A80918E0A80FFFCCF55
:101200008091800A81608093800A4FBFCCCF80E8B4
:10121000DCCF0F931F93CF93DF93EC01062F142F96
:1012200060E08C8174DFE881F9819A818B8120856F
:10123000222319F02FB72187F89421E02287909379
:10124000200880932108000000932408809123083F
:1012500087FFFCCF80912408000010932408809120
:10126000230887FFFCCF10912408E881F98182854B
:10127000882331F012868085882311F081858FBF05
:1012800061E08C8144DF812FDF91CF911F910F911D
:10129000089540E0BECFCF92DF92EF92FF92CF93BE
:1012A000DF936DE184E09BE3F4DF90E034E095951B
:1012B00087953A95E1F78A3091050CF03FC0FC0123
:1012C000EE0FFF1FE80FF91FE051FB43C080D180F4
:1012D000E2800E2C000CFF086EE184E09BE3D9DF76
:1012E000D82F66E284E09BE3D4DFC82FD295DF706D
:1012F00021E030E040E050E004C0220F331F441FE3
:10130000551FDA95D2F7C701B6010E94EA1F68EEB1
:1013100073E080E090E00E94EA1F21313105410531
:1013200051058CF04C2F486066EA84E09BE3DF9126
:10133000CF91FF90EF90DF90CF906BCFCC24CA94E9
:10134000DC2C7601C9CF4C2F477FEECF0F931F9334
:10135000CF93DF93EC018AE58C8B8E019E012C5E8E
:101360003F4FFE0191918C89890F8C8B2E173F077F
:10137000C9F71092193B61E084E09BE38ADF837038
:101380008330D1F062E184E09BE383DF83FF05C01B
:1013900048E062E984E09BE33CDF41E861E884E007
:1013A0009BE337DF40E06DE884E09BE332DF40E021
:1013B00062EA84E09BE32DDF6596F80141918F019D
:1013C00060E884E09BE325DFC017D107B1F745E172
:1013D00062EA84E09BE31DDF40E460EC84E09BE391
:1013E00018DF43E861E884E09BE313DF80911A3B58
:1013F000882351F08091193B811106C062E070E0B2
:1014000080E090E06FD8F2CFDF91CF911F910F91E4
:101410000895CF93DF93CDB7DEB76597CDBFDEBF1D
:1014200089836A838EEF8B8328502C8380E1FA01B5
:10143000DE01159601900D928A95E1F7CE01019695
:1014400085DF6596CDBFDEBFDF91CF910895DC01CA
:10145000EAE8FAE38091873A80838091883A818331
:1014600012968C911297828315969C911597990FDD
:10147000990F990F17968C91890F8383CF0166CFAF
:101480009F92AF92BF92CF92DF92EF92FF920F9313
:101490001F93CF93DF938C01EB01209709F444C095
:1014A0006631710510F0C5E1D0E0780187E1E80E02
:1014B000F11CCC2E63E1C801ECDE982E5701D12C33
:1014C0009D1451F0DC1440F460E0C801E2DED394D6
:1014D000D5018D935D01F4CF90E08AE52197292F06
:1014E00030E02C173D073CF42E0D3F1DF901208103
:1014F000820F9F5FF4CFD8019B969C919B97891395
:1015000013C05396ED91FC91309771F0B7018C2D7B
:10151000DF91CF911F910F91FF90EF90DF90CF90CF
:10152000BF90AF909F900994DF91CF911F910F9141
:10153000FF90EF90DF90CF90BF90AF909F90089575
:10154000EF92FF920F931F93CF93DF9380E8E82EE3
:101550008AE3F82EF701C191D1917F01209711F113
:1015600062E1CE0196DE182F8823E1F0482F62E970
:10157000CE014FDE15FD16C016FF20C063E1CE017F
:1015800088DE082F10E060E1CE0183DE482F6DE891
:10159000CE013FDEEB85FC85309721F0B8018D85CB
:1015A0009E850995F4E8EF16FAE3FF0699F6DF91B8
:1015B000CF911F910F91FF90EF90089513FFF2CFFD
:1015C000EF85F889309771F38D859E850995EACF6F
:1015D000CF93DF93EC0140E060EC1BDE45E861E86F
:1015E000CE0117DE81E090E0DF91CF91089521E0F8
:1015F000FC01258BEDCF8231F0F490E0FC01EE5C34
:10160000FA4320812F3FB9F0FC01E05EFA43E0810C
:1016100030E2E39FF0011124FC5F60FF0DC02183E5
:1016200084599B43DC018C91E80FF11D808961FF97
:1016300005C08860808B08952283F2CF877FFACF20
:1016400087FD03C08630C0F48C5F982F9F7790325F
:1016500038F590910006992331F18F718093060639
:1016600081E08093080680910B0680FFFCCF80917B
:101670001006909111060895813161F092EF980F54
:10168000933010F48D50E1CF883031F0893031F053
:101690008FEFDBCF80E0D9CF8AE0D7CF8BE0D5CFFB
:1016A0008FEF92E8089589EF92E808954F925F9244
:1016B0006F927F928F929F92AF92BF92CF92DF9262
:1016C000EF92FF920F931F93CF93DF93CDB7DEB7C7
:1016D0002697CDBFDEBF8D839E83DC015B968C9108
:1016E000C12CD12C76018F3F09F494C01AE0C12C93
:1016F000D12C7601ED81FE81838DA2DF092E000CB5
:10170000AA0BBB0BC80ED91EEA1EFB1E115091F787
:10171000AD81BE8194960D911C91D8011C968D913E
:101720009D910D90BC91A02D89839A83AB83BC833E
:10173000F8012085318542855385BC01CD010E9489
:10174000381E9B01AC0169817A818B819C810E944A
:101750009C1E4B015C01D80114968D929D92AD9216
:10176000BC92179754964D905D906D907C905797D2
:10177000C701B6012AE030E040E050E00E94C81FF7
:10178000CA01B9010E94D81CA30192010E94371E10
:10179000A50194010E94391DA30192010E94381EE7
:1017A0006B017C01F801C08AD18AE28AF38AAC011C
:1017B0009B01C301B2010E94371E9F77D8012D9172
:1017C0003D914D915C910E94391D2B013C01A50179
:1017D000940160E070E080E89FE30E94371E298159
:1017E0003A814B815C810E94391D9B01AC01C30190
:1017F000B2010E94381EF801648775878687978733
:10180000C48AD58AE68AF78AC701B6010E94091FF1
:101810006B017C01AD81BE819296ED91FC91939715
:101820000D911C91309761F1D8011C960D911C917E
:10183000AD81BE8190962D913C9191975E964D9190
:101840005C915F975C966D917C91C6010995AB01A7
:10185000BC018D819E81F8012696CDBFDEBFDF9150
:10186000CF911F910F91FF90EF90DF90CF90BF909D
:10187000AF909F908F907F906F905F904F90099462
:10188000A0910038B0910138A70196010E94ED1D8A
:101890002FEF33E040E050E00E94C81FBA01A901D9
:1018A000D8011896ED91FC918D819E812696CDBF31
:1018B000DEBFDF91CF911F910F91FF90EF90DF90EE
:1018C000CF90BF90AF909F908F907F906F905F90E0
:1018D0004F900994FC01838581FF04C0660F618BE2
:1018E000128A138A08956091F43A8091F23A9091A5
:1018F000F33AF0DF8091F23A9091F33A0E94F600C9
:1019000091E0811190E0892F0895CF93C82F6091C5
:10191000F43A8091F23A9091F33ADCDF8091F23A16
:101920009091F33ADC01ED91FC910190F081E02D72
:101930006C2F09958091F23A9091F33A0E94F6004B
:10194000882319F08FEFCF910895E091F23AF0914A
:10195000F33A2091F43A220F218B81E0828B138A93
:10196000AF014B5E5F4FBF016E5E7F4FCF010E94A4
:101970004A018091F23A9091F33ADC01ED91FC91A9
:101980000084F185E02D0995892BE1F28091F23AEE
:101990009091F33ADC01ED91FC910284F385E02D06
:1019A0000995D1CFCF93DF93D82FC62F6091F43A0A
:1019B0008091F23A9091F33A8DDF8091F23A9091D2
:1019C000F33ADC01ED91FC910190F081E02D6D2F57
:1019D00009958091F23A9091F33ADC01ED91FC91F6
:1019E0000190F081E02D6C2F09958091F23A909151
:1019F000F33A0E94F60091E0811190E0892FDF9187
:101A0000CF910895CF93DF93D82FC62F862F7DDFF8
:101A100061E070E001C0660FDA95EAF7682B8C2F61
:101A2000DF91CF91BFCFCF9360E081E0EBDF60E04B
:101A300082E0E8DFC6E680E068DF83FD0BC061E09E
:101A400070E080E090E00E947202C150A1F780E057
:101A5000CF91089560E084E0CF91D4CFCF93DF930E
:101A6000D82FC62F862F51DF61E070E001C0660FCE
:101A7000DA95EAF7609568238C2FDF91CF9192CFAA
:101A800060E081E0EBDF60E082E0E8CF4F925F92C0
:101A90006F927F928F929F92AF92BF92CF92DF927E
:101AA000EF92FF921F93CF93DF93C82F0E943802CB
:101AB0002B013C01812C912C5401D0E013E00E94B9
:101AC00038026419750986099709683E73408105D3
:101AD000910508F093C080E018DF85FF26C0609173
:101AE000F43A8091F23A9091F33AF4DE8091F23A2E
:101AF0009091F33ADC01ED91FC910190F081E02DA1
:101B000062E109958091F23A9091F33A0E94F600D1
:101B1000882391F0C12CD12C76018C0C9D1CAE1C1D
:101B2000BF1CDF5FDC1709F469C061E070E080E092
:101B300090E00E947202C3CFE091F23AF091F33A42
:101B40002091F43A220F218B128B138AAF014B5E46
:101B50005F4FBF016E5E7F4FCF010E944A018091AF
:101B6000F23A9091F33ADC01ED91FC910084F18519
:101B7000E02D0995892B71F28091F23A9091F33A18
:101B8000DC01ED91FC910284F385E02D09956C0157
:101B90008091F23A9091F33ADC01ED91FC9102844C
:101BA000F385E02D09950D2C000CEE08FF08760159
:101BB000DD24CC24092E000CAA0BBB0BBA2FA92FB5
:101BC000982F8827C82AD92AEA2AFB2A8091F23A34
:101BD0009091F33ADC01ED91FC910284F385E02DC4
:101BE0000995092E000CAA0BBB0B8C299D29AE2947
:101BF000BF29A7FDBF6F6C017D018FCF2C2F30E077
:101C000050E040E0C501B4010E94EA1FCA01B901D9
:101C1000DF91CF911F91FF90EF90DF90CF90BF9019
:101C2000AF909F908F907F906F905F904F900895AE
:101C30000F931F93CF93DF93C4E0D0E080E065DE85
:101C400085FF2DC088E022DF582F492F0091F53AFB
:101C50001091F63A2091F73A3091F83ACB01A52F3E
:101C6000B42F80179107A207B30714F4D901C80154
:101C7000BC01CD01601B710B820B930B0E94DA1C1F
:101C80002091F93A3091FA3A4091FB3A5091FC3A5E
:101C90000E949C1EDF91CF911F910F91089564E6E1
:101CA00070E080E090E00E947202219739F66DECBE
:101CB0007CEC87EC92ECEECFE0EAF0E081818D7F66
:101CC0008183A0E0B6E012968C9112978F7C80659C
:101CD00012968C9380E480838DE9B2DC8DE9B0DCD0
:101CE0009C0150E040E064E27AE687E190E00E94E7
:101CF000C81F2093003830930138B90190E080E08C
:101D00000E94D81C20E030E04AE754E40C949C1E6A
:101D1000CF93DF93CDB7DEB76097CDBFDEBFDC01D9
:101D200015962D913C912C30310589F5FC019E01D1
:101D3000235F3F4F84E0D9011D928A95E9F78281A4
:101D40008983818992898A879B87838D948D092EC7
:101D5000000CAA0BBB0B8A839B83AC83BD83858D50
:101D6000968D092E000CAA0BBB0B8E839F83A88730
:101D7000B98781E090E08C879D8723E030E0AE0159
:101D80004F5F5F4F6091883A8091873A42DB60965F
:101D9000CDBFDEBFDF91CF9108958F929F92AF921A
:101DA000BF92CF92DF92EF92FF920F931F93CF9348
:101DB000DF937C01EB018901BA0190E080E00E9491
:101DC000D81C4B015C01B70190E080E00E94D81C58
:101DD0009B01AC0160E070EC8FE794E40E949C1ED4
:101DE00020E030E040E85FE30E94371E9B01AC0139
:101DF000C501B4010E949C1E6B017C01B80190E0FA
:101E000080E00E94D81C9B01AC01C701B6010E9472
:101E10009C1E0E943E1F6B017C01BE0190E080E091
:101E20000E94D81C9B01AC01C701B6010E949C1EF8
:101E30002FE03FEC4BE55BE30E94381E9B01AC01B9
:101E400060E070E080E89FE30E949C1E23E333E99A
:101E500048E853E40E94371EDF91CF911F910F9104
:101E6000FF90EF90DF90CF90BF90AF909F908F90BA
:101E70000895CF92DF92EF92FF921F93CF93DF935B
:101E8000182FF8948091163AC8E18C9FC001112454
:101E9000412F50E0875C974C0E94FB21E091163A5D
:101EA000CE9FF0011124EA5CF74C81E080836AE167
:101EB00084E09BE3EED9C82FD0E060910B3B70919A
:101EC0000C3B80910D3B90910E3B0E94DA1C2AEE58
:101ED00036E54AEF5DE40E94D41C87FD81C08DE9A0
:101EE00090E0C81BD90B69E184E09BE3D2D987FD60
:101EF0008D5F85958595682F880F770B880B990BDB
:101F00000E94DA1C6B017C01AC019B010E947E1FC8
:101F100030E020E0811128C020E030E0A901C701B5
:101F2000B6010E94D41C87FF0DC0BE01DD0F880BD7
:101F3000990B0E94DA1CA70196010E94381E0E948C
:101F4000041FEB019E01DD0F440B550B20583F4F42
:101F50004F4F5F4FA4E6B0E00E94ED1D26E730E052
:101F600040E050E00E94EA1FA091163AE8E1EA9FA3
:101F7000D0011124AA5CB74C11962D933C93129773
:101F8000153149F48091163AE89FF0011124EA5C7A
:101F9000F74C81E080838091163A8F5F8093163AE8
:101FA0008091163A843110F01092163A9091163AB8
:101FB0008091173A98130BC08091173A8F5F8093E6
:101FC000173A8091173A843110F01092173A7894AA
:101FD000DF91CF911F91FF90EF90DF90CF90089508
:101FE00084EA90E07ECF5F926F927F928F929F9271
:101FF000AF92BF92CF92DF92EF92FF920F931F9317
:10200000CF93DF93EC01562E49014A838FEF9FEF68
:102010008B839C8366246394712C6F827886B501D0
:102020000B2C000C880B990B0E94DA1CA70196015F
:102030000E94391D0E94041F6B8B7C8BA98ABA8A6F
:102040008D8A9E8A0F8B188F81EC9DEBA0EFBFEFDE
:1020500089879A87AB87BC878EE392E4AFE0B0E0D4
:102060008D879E87AF87B88B198E1A8E88E594EC82
:10207000888399835B8E1AA21BA218A219A21E8EB6
:102080001F8E1C8E1D8E6D827E82AA94AB2821F03D
:1020900082E090E08F839887EFEF5E16C9F160E0F1
:1020A000852DA9DA8B8DCCDA7C0188E190E00E9445
:1020B00020208C018FE892ECA5EFBCE3F80180832F
:1020C0009183A283B383148215821682178280E0E3
:1020D00090E0A0E8BFE380879187A287B38780E084
:1020E00090E0A0E0B0E484879587A687B787108A40
:1020F000118A128A138AB701FF0C880B990B0E9470
:10210000DA1CF801648B758B868B978B0CA31DA34F
:10211000DF91CF911F910F91FF90EF90DF90CF90C3
:10212000BF90AF909F908F907F906F905F90089539
:10213000EF92FF920F931F93CF93DF93CDB7DEB74C
:10214000A297CDBFDEBFFC01618572858385948532
:102150002AE0AE014F5F5F4F7A010E94951CF701A4
:1021600001900020E9F7BF016E197F0990E080E03F
:102170000E9445218C01009719F0B7010E940422AA
:10218000C8010E94BC20C801A296CDBFDEBFDF916E
:10219000CF911F910F91FF90EF9008958F9381E061
:1021A00080938D0A8FB78F93EF93FF93E2E7FAE363
:1021B0009F9368948FEF0FC0E894848195818C5E23
:1021C0009F4F84839583885E934010F08FEF03C008
:1021D000848395838EEF9081981B919390819F4F7C
:1021E000919390819F4F919390819F4F919326F36C
:1021F0009F91FF91EF918F918FBF8F9118950F93C2
:1022000004E006C00F9302E003C00F9300E000C09B
:102210000F920FB60F921F921124FF921F932F93CC
:102220003F934F935F936F937F938F939F93AF935E
:10223000BF93CF93DF93EF93FF93A2E0B8E3A00F98
:10224000B11DCD91DC91000F0D5FA02FB0E0FC908F
:10225000109761F01F2D169518F041F02296FBCFD4
:10226000E991F9913097B9F30995F5CFA02FB0E036
:10227000FC92FF91EF91DF91CF91BF91AF919F9130
:102280008F917F916F915F914F913F912F911F910E
:10229000FF901F900F900FBE0F900F9118951F92F7
:1022A0000F920FB60F9211241F932F933F934F93CA
:1022B0005F936F937F938F939F93AF93BF93CF93CE
:1022C000DF93EF93FF93C091AE3AD091AF3A20974E
:1022D000B9F1A885B9851B961C911B9716FF53C0B1
:1022E0008B8583FF09C0877F8B87EF85F8893097BF
:1022F00019F08A8990E0099510FF3BC08A89811105
:102300000BC08091713A811107C080915000809379
:10231000713A8170809350001A8A1B8AE885F9858A
:102320008585898B11FF20C0ED85FE85309709F0EA
:1023300009958A8981111BC086E0E885F985828725
:10234000FF91EF91DF91CF91BF91AF919F918F91CD
:102350007F916F915F914F913F912F911F910F90BE
:102360000FBE0F901F9018958B8588608B8783E038
:10237000E4CF8091713A809350001092713A1A8A9A
:102380001B8A82E0DACF17FF2EC09E012B5E3F4FE3
:1023900011FF1AC08A85182321F088E08A871A8ADB
:1023A000F0CF8C898F5F8C8B88E18A87EB898A8953
:1023B000E817A8F7E20FF32FF11D80811D968C938B
:1023C0008B898F5F8B8BD3CF1D968C91EA89E032FE
:1023D00050F4E20FF32FF11D80838A898F5F8A8B7F
:1023E000803229F6A9CF80E0A8CF1F920F920FB6B6
:1023F0000F9211242F933F934F935F936F937F938B
:102400008F939F93AF93BF93EF93FF9381E080935C
:102410000B0A80912C3A90E001966AE070E00E94ED
:10242000B51F80932C3AE0912C3AF0E0EE0FFF1F9D
:10243000E85EF54C1082118210922D3A10922E3ADD
:1024400010922F3A1092303A90E080E0FC01EE0FAB
:10245000FF1FE85EF54C2081318140912D3A50916B
:102460002E3A60912F3A7091303A420F531F611DFE
:10247000711D40932D3A50932E3A60932F3A7093EA
:10248000303A01968A30910509F780912D3A909162
:102490002E3AA0912F3AB091303A85369105A10598
:1024A000B10530F08FEF9FE180939F3A9093A03A6F
:1024B000FF91EF91BF91AF919F918F917F916F911C
:1024C0005F914F913F912F910F900FBE0F901F90F2
:1024D00018951F920F920FB60F9211248F939F930E
:1024E00081E08093530180919F3A9091A03A0196A8
:1024F00080939F3A9093A03A9F918F910F900FBE37
:102500000F901F901895CF931092B23A1092B33A51
:1025100088EE93E0A0E0B0E08093B43A9093B53AAF
:10252000A093B63AB093B73A22E135EC2093B03A93
:102530003093B13A20EB3AE32093AE3A3093AF3A7E
:1025400020E138E02093B83A3093B93AC4E0C09320
:10255000F13A21E32093F03A20E238E02093E53A83
:102560003093E63A1092EC3A1092383B1092393B95
:1025700080933A3B90933B3BA0933C3BB0933D3BD5
:1025800088E495EC8093363B9093373B1092483B20
:102590001092493B10924A3B10924B3B10924C3B9D
:1025A00010924D3B10924E3B10924F3B6091503B2E
:1025B0006E7F6D7F6093503B6695617081E0682708
:1025C00087E00E94870861E087E015D8C093423B0E
:1025D00084E294E08093433B9093443B60E086E048
:1025E0000AD88091503B81FD04C061E086E00E94E2
:1025F000870886E080933E3B88E080933F3B88E2FB
:1026000094E08093403B9093413B1092353B109275
:10261000343B1092333B1092303BE2E7F1E081E033
:102620008C3051F09491823009F49F5F21E0280FA3
:102630003196992309F452C08093313B81E0809315
:10264000323B94E09093073B91E39093063B1092CA
:10265000083B93E09093093B92E090930A3B25EE70
:102660003AE32093043B3093053B10920F3B1092CA
:10267000103B1092113B1092123B80931A3B109228
:10268000173B1092183B1092013B1092023B1092A4
:10269000033B8AE28093F43A1092F53A1092F63AAC
:1026A0001092F73A1092F83A80E090E0A0E8BFE389
:1026B0008093F93A9093FA3AA093FB3AB093FC3A9C
:1026C0008AEF90E0A0E0B0E08093FD3A9093FE3A6C
:1026D000A093FF3AB093003BCF910895822FA0CFF3
:1026E000CF93DF93CDB7DEB7E097CDBFDEBF81E0FC
:1026F00098ED94BF80936100E0E0F6E092E592836C
:102700009AE0958390E293838083109202028093F3
:10271000030A9EEF9093260A9093270A9BE09093DA
:10272000000AE0E8FAE02DEF31E026A737A7118292
:1027300090E89283848781E1808378948EE090E0B2
:1027400080934E3B90934F3B81E090E08093483BD9
:102750009093493B2CE030E020934A3B30934B3B35
:1027600080934C3B90934D3B80913E3B823128F4CB
:1027700044E062EB71E00E949B0280914E3B90919D
:102780004F3B0197F1F780914C3B90914D3B892B4A
:1027900049F1E0917E3AF0917F3A2BE3E633F2077C
:1027A00009F1309739F0A785B0899C91818980958E
:1027B00089238C938091503B8E7F8093503B109265
:1027C0007D3A10927C3A86E39BE380937E3A909325
:1027D0007F3AE091453BF091463B80819091473BA9
:1027E000892B80838BE691E00E94620561E08CE09A
:1027F0000E94FB0A60E083E00E94FB0A83E00E94E3
:10280000200B8436910584F561E08CE00E948708F6
:102810000E9438026131774281059105D8F064E663
:1028200070E080E090E00E94720260E08CE00E9424
:1028300087080E943802613177428105910578F05E
:1028400064E670E080E090E00E94720281E0809394
:10285000893AD4CF6CE271E080E090E0E4CF6CE2A2
:1028600071E080E090E0F0CF0E9438026131774261
:102870008105910508F446C28FEF8093883A61E0A4
:102880008CE00E9487088091883A8F3F49F589E55E
:1028900091E00E9462058EE18093883A1092873A17
:1028A00068E87AE380E00E94CC0467E87AE381E09C
:1028B0000E94CC0488E0ECE4F4ECDE011196019077
:1028C0000D928A95E1F7BE016F5F7F4F82E00E9413
:1028D000E1040E948C040E94AC0481E08093893A58
:1028E000809101148093873A80910A148093AA3AC8
:1028F00080910B148093AB3A80910C148093AC3A86
:1029000080910D148093AD3A80910E148093083815
:1029100080910F14809309388091101480930A38A5
:102920008091111480930B3884E995EC0E94560530
:102930008091873A0E94E8058AE995EC0E94560545
:102940006091AA3A7091AB3A8091AC3A9091AD3ACD
:102950000E94BE0580EA95EC0E94560560910838F9
:102960007091093880910A3890910B3842E00E94AA
:10297000F90586E595EC0E94560586E290E00E94F6
:1029800020204C0144E6A42EB12C5AE0C52E57ED70
:10299000D52E53E2E52E5CE3F52E03E511E025E5A7
:1029A00031E041E06FEF1FDBC4010E94DB07FC0157
:1029B0008CE59EE082A393A3148E158E168E178E3F
:1029C00010A211A280E290E00E9420208C0182E0FF
:1029D000D80112968C9312978FEF9FEF13968D93D9
:1029E0009C9314978DE090E015968D939C93169789
:1029F000EE24E394F12C1796ED92FC9218975396DF
:102A00001D921C9254975196ED92FC9252978EE42F
:102A100091E055968D939C93569757961D921C92D4
:102A2000589781EC9DEBA0EFBFEFF801818792876B
:102A3000A387B4878EE392E4AFE0B0E08587968702
:102A4000A787B08B118E128E82E894EC80839183DD
:102A500081E0838FE48EF58E168E178E62E00E94E1
:102A6000FB0AD8015C962D913C915D97223031058F
:102A700008F05DC115961D921C92169717961D922F
:102A80001C9218975B968C912130310509F047C153
:102A90000E940E0851E040E030E020E0811150E05B
:102AA000852F942FA32FB22FF80181879287A387B8
:102AB000B487C8010E94DB0744E063E971E081E06C
:102AC0000E949B0286E290E00E9420204C018AE056
:102AD000A82EB12C9DECC92E9CECD92E9CE4E92E9D
:102AE0009EE3F92E0EE311E022E431E043E065E0DD
:102AF000C40179DAC4010E94DB07FC018DEC9EE081
:102B000082A393A38EE69FE0848F958F8CE592E15C
:102B1000868F978F88E893E180A391A386E290E067
:102B20000E9420204C01AA24A394B12CC12CD12CAA
:102B300030E8E32E3FE3F32E10E000E029E331E03C
:102B400045E06FEF50DAC4010E94DB07FC018AE91F
:102B500091E082A393A3148E158E168E178E10A269
:102B600011A262E08DE00E94FB0A44E065EA71E098
:102B70008DE00E949B028091BB3A81FD2AC082FDBC
:102B800028C08091010284FFE8C086E0809306049B
:102B90008091BB3A82608093BB3AE091B83AF09161
:102BA000B93A81E083838583E091B83AF091B93AEC
:102BB0009091BB3A91FF24C09681913291F023818C
:102BC000138291E2968390819D7F9083238320FDE1
:102BD0008583E091B83AF091B93A8091BB3A81FF90
:102BE0000FC08681843061F09381138284E08683F4
:102BF00080818D7F8083938390FF02C081E08583F5
:102C000080EB9AE38093F23A9093F33A0E94730C2C
:102C1000882309F4A6C060E080E00E94020D61E014
:102C200070E080E090E00E94720260E080E00E942C
:102C30002E0D182F0E94130D182381E00E94850C81
:102C4000877C682F606281E00E94D20C60E087E0A0
:102C50000E94020D182381E00E94850C887F682F56
:102C6000656081E00E94D20C182382E00E94850CEE
:102C70008F78682F606182E00E94D20C182385E172
:102C80000E94850C682F606385E10E94D20C182396
:102C90006CE187E00E94020D18236BE186E00E9440
:102CA0002E0D18236091FD3A7091FE3A8091FF3A03
:102CB0009091003B0E9472028AE00E94460D82E0E1
:102CC0000E94850C682F6C7F82E00E94D20C62E02B
:102CD00082E00E94020D0E9438026B017C0182E0BA
:102CE0000E94850C82FF44C00E9438026C197D0945
:102CF0008E099F09693E73408105910508F4D9C387
:102D000090E03CC0809100148093883A8FE895EC65
:102D10000E9456058091883A0E94E805B0CD0E9435
:102D20000E08082E000C990BAA0BBB0BBDCE88E039
:102D300090E015968D939C9316971796ED92FC92C2
:102D4000189719968D919D910D90BC91A02DF80129
:102D500085879687A787B08BACCE83E080932604C7
:102D600017CF0E94730C811156CF81EB95EC43C1B4
:102D700082E00E94850C91E083FDC2CF1123A9F36C
:102D8000992399F386E290E00E9420204C011AE0FA
:102D9000A12EB12C0DECC02E0CECD02EED2C0DE3A1
:102DA000F02E0FE211E022E331E046E06FEF1BD995
:102DB000C4010E94DB07FC0188E19EE082A393A38B
:102DC000148E158E168E178E10A211A28BE190E034
:102DD0000E942020FC0187E082838FEF9FEF838396
:102DE0009483138A148A01E010E0018B128B8AE22B
:102DF00091E0858B968B178A108E81EC9DEBA0EF6E
:102E0000BFEF81879287A387B4878EE392E4AFE018
:102E1000B0E085879687A787B08B118E128E8AECDB
:102E200094EC8083918381E190E08583968383E0B5
:102E300090E087839087CF010E94DB078093853ADB
:102E40009093863A8FE190E00E942020FC018AE96D
:102E500094EC8083918388E0828322E030E02383B6
:102E600034838DE090E08583968307831087138AEF
:102E7000148A018B128B8FE191E0858B968B8CE10C
:102E800091E0878B908F8091021481878091031449
:102E900082878091041483878091051484878185BB
:102EA0009285A385B48580959095A095B0958587EA
:102EB0009687A787B08B118E128E82EB94EC80835D
:102EC0009183809102148983809103148A83809175
:102ED00004148B83809105148C83809106148D8358
:102EE000809107148E83809108148F838091091438
:102EF00088878D819E81092E000CAA0BBB0B8187D0
:102F00009287A387B48789819A81838F948F8B81DD
:102F10009C81858F968F8F819885818B928B4CE0D9
:102F200050E045835683019711F027833087CF0106
:102F30000E94DB078093A23A9093A33A8BE190E042
:102F40000E942020FC0189E082838FEF9FEF838322
:102F50009483138A148A81E090E0818B928B86E1BE
:102F600091E0858B968B178A108E81EC9DEBA0EFFC
:102F7000BFEF81879287A387B4878EE392E4AFE0A7
:102F8000B0E085879687A787B08B118E128E8AEC6A
:102F900094EC8083918381E190E08583968383E044
:102FA00090E087839087CF010E94DB078091AA3A47
:102FB0009091AB3AA091AC3AB091AD3A8093F53A8A
:102FC0009093F63AA093F73AB093F83A8091083884
:102FD00090910938A0910A38B0910B388093F93A52
:102FE0009093FA3AA093FB3AB093FC3A84E10E94A2
:102FF000460D88EA95EC0E94AE0589E39FE0809338
:10300000173B9093183B8091803A9091813A892B9D
:1030100009F456C28091823A9091833A892B59F4EF
:1030200081E090E0880F991FFC01E058F54C84E0A6
:103030009BE38083918361E08091083B0E94FB0ABF
:1030400061E08091083B0E9487088091093B8F3F97
:10305000C9F061E00E94FB0A60E08091093B0E9498
:1030600087086AE070E080E090E00E94720261E010
:103070008091093B0E9487086AE070E080E090E060
:103080000E947202E091043BF091053B878181111F
:1030900006C01086128680E8818781E08783809150
:1030A00001028B7F9681892B809301028681811199
:1030B0000AC261E08EE00E94FB0A61E080E10E94AA
:1030C000FB0A809121088460809321088091200868
:1030D0008162809320089091F03A8091F13A909328
:1030E00020088093210862E484E09BE30E94490960
:1030F000823109F0F2C140E861E884E09BE30E947C
:10310000090980E890E5AEEDB9E180930B3B90931F
:103110000C3BA0930D3BB0930E3B4CE666E884E07D
:103120009BE30E94090940E867E884E09BE30E9472
:10313000090940E068E884E09BE30E94090940E057
:103140006EE884E09BE30E94090940E06FE884E0B8
:103150009BE30E9409096CE084E09BE30E9449091B
:10316000482F43606CE884E09BE30E94090944E037
:1031700066EA84E09BE30E94090944E86DEC84E080
:103180009BE30E9409094BE26BE884E09BE30E9409
:1031900009094CE869E884E09BE30E94090941E8D9
:1031A00061E884E09BE30E94090960E080910A3BAA
:1031B0000E94FB0A80910A3B823128F443E060EAD6
:1031C0007AE00E949B0284E09BE320E43AE02093B3
:1031D0000F3B3093103B8093113B9093123B27EFB2
:1031E0003AE02093133B3093143B8093153B90932C
:1031F000163B65E070E080E090E00E94720243ECD4
:1032000061EB84E09BE30E9409094AE067EB84E0FC
:103210009BE30E9409096EE184E09BE30E94490957
:103220008F70482F40676EE984E09BE30E94090994
:103230000E944B096DE184E09BE30E9449098F7075
:10324000482F40686DE984E09BE30E9409090E94D1
:103250004B096DE184E09BE30E944909817F482F7F
:1032600042606DE984E09BE30E94090984E09BE3EE
:103270000E94E80A81E08093A13A8EE091E00E94EA
:1032800062058091893A811146C1F894809141018B
:103290008111FCCF1092470181E08093520191E7A8
:1032A000909350019EE09093000A29E136E020932C
:1032B000260A3093270A80930A0A8091000A8160C7
:1032C0008093000A789460E08CE00E9487088CEE7E
:1032D00090E00E9462058FEF9FE180939F3A909368
:1032E000A03A1092A53A1092A43A4EE8842E4AE3EE
:1032F000942E50E1552E0E94CF06C090A63AD09051
:10330000A73AE090A83AF090A93AC114D104E10498
:10331000F10449F00E94380266246394C616D70669
:10332000E806F90608F0612C8091A53A882389F116
:1033300061E08CE00E9487080E94130D88E00E94E3
:10334000460D6093F53A7093F63A8093F73A90936E
:10335000F83A6093AA3A7093AB3A8093AC3A909360
:10336000AD3A0E948C046091AA3A7091AB3A809178
:10337000AC3A9091AD3A0E94BE050E94400D60E0CB
:103380008CE00E9487088DEB95EC0E94AE051092B0
:10339000A53A8091A43A882309F453C061E08CE0F7
:1033A0000E9487080E94130D8091A23A9091A33A3F
:1033B000DC01ED91FC910480F581E02D09956B0114
:1033C0007C0188E00E94460D0091F53A1091F63A92
:1033D0002091F73A3091F83A601B710B820B930BF6
:1033E000E9D2A7019601A8D46093F93A7093FA3A0A
:1033F0008093FB3A9093FC3A6093083870930938B5
:1034000080930A3890930B380E94AC04609108387E
:103410007091093880910A3890910B3842E00E94EF
:10342000F90586E595EC0E9456050E94400D60E086
:103430008CE00E94870887EC95EC0E94AE05109204
:10344000A43A8091A13A882309F455CF80919F3AFC
:103450009091A03A4E9718F4662009F44CCF61E0A1
:103460008CE00E94870810929F3A1092A03A8091B7
:1034700000068160809300060E94130D10E0809189
:10348000033B181708F05CC1812F90E0880F991F4B
:10349000E091013BF091023BE80FF91F808191819F
:1034A000DC01ED91FC910088F189E02D09951F5F09
:1034B000E6CF61E070E080E090E00E9472020FCC05
:1034C00090E080E0AFCD843009F0FBCD61E08CE08E
:1034D0000E94FB0A61E08AE0F2CD1092A13A87EFE8
:1034E00090E00E94620513E061E08CE00E94870892
:1034F00064E670E080E090E00E94720260E08CE0A0
:103500000E94870864E670E080E090E00E9472020A
:10351000115051F7BACE8FEF8093873A8E010D5D2F
:103520001F4FFEE0FF2ED801EF2D1D92EA95E9F71F
:103530008EEF89A38DE08AA383E08BA345E050E062
:1035400068E071E0CE018496E1D130E020E0AE0188
:103550004F5D5F4F6091883A8091873A0E94090AD7
:10356000D8011D92FA94E9F745E050E062E071E07D
:10357000C801CCD122E030E0AE014F5D5F4F6091D9
:10358000883A8091873A0E94090A1BA227E030E01E
:10359000AE014F5D5F4F6091883A8091873A0E94FB
:1035A000090AD12C4E01B3E18B0E911CAEE0CA2E5C
:1035B0008091033BD81608F090C08D2D90E0880FC5
:1035C000991FE091013BF091023BE80FF91F008148
:1035D0001181F8018281882309F47DC0D401EC2D8A
:1035E0001D92EA95E9F7898BD80115968C9115976C
:1035F0008A8B17968C9117978B8B5596ED90FC9034
:10360000C7017BD18D30910510F08DE090E0AC01C9
:10361000B701CE0144967AD130E020E0AE014F5E92
:103620005F4F6091883A8091873A0E94090AF801B9
:10363000A788B08CA114B10451F1C5015ED17C0101
:10364000892B29F1D80112968C918983A701BEE0BC
:10365000EB16F10410F04EE050E0B501CE010396F8
:1036600055D1EEE0EE16F10438F4E3E0F0E0EC0FB3
:10367000FD1FEE0DFF1D108221E030E0AE014F5F17
:103680005F4F6091883A8091873A0E94090AD80179
:10369000ED91FC910288F389E02DC8010995F401B0
:1036A0002C2D11922A95E9F7D80112968C91129738
:1036B000898B15968C9115978A8B17968C918B8B8D
:1036C00027E030E0AE014F5E5F4F6091883A809115
:1036D000873A0E94090AD3946BCF81E08093843AA1
:1036E00063E0C62ED12CE12CF12C812C912C5401BD
:1036F0008A9493948091843A882309F4C6CD0E94D9
:103700003802A701960144D4CA01B901A501940168
:103710003FD46F5F710977FF03C07195619571099F
:10372000603871055CF460E08CE00E94870861E01D
:103730008CE00E94FB0A0E94CF06DCCF61E0F4CF50
:10374000712C8091033B781608F0A7C0872D90E07C
:10375000880F991FE091013BF091023BE80FF91FA0
:1037600000811181F8018281882309F46AC0818572
:103770009285A385B485E584F684E81AF90AF7FEF4
:1037800003C0F194E194F108F801A388B488AE1461
:10379000BF041CF0662009F454C0F80185879687A1
:1037A000A787B08B0580F681E02DED30F10508F09C
:1037B00037C0E452F44E2AC4E91BE91BE91B101C74
:1037C000231C101C101C231CE91B101C101C231C88
:1037D000E91BD80155968D919C910E94B70388ED05
:1037E00095EC0E945605F801618572858385948564
:1037F0000E94BE05F80181859285A385B4858093DA
:103800008E3A90938F3AA093903AB093913A8189EF
:1038100092898093923A9093933AC8010E94270A22
:10382000AE14BF0474F4D8015996ED91FC915A97E7
:10383000309739F019966D917D918D919C911C97DF
:10384000099573947ECFD801ED91FC910680F781A4
:10385000E02DC80109956C01F801858996890E94BF
:10386000B70388ED95EC0E945605C6010E94AE058F
:10387000F60101900020E9F73197D401252D1D9222
:103880002A95E9F7EC19E13108F0E0E14E2F50E01C
:10389000B6018EE89AE3BFD5C0CF1092A63A109237
:1038A000A73A1092A83A1092A93A0E94400D80912E
:1038B00000068E7F8093000660E08CE00E948708FF
:1038C0001ACD88E495EC8093363B9093373B8091FA
:1038D0007E3A90917F3A86539B4371F4E091453B49
:1038E000F091463B90818091473B8095892380836E
:1038F00010927E3A10927F3A0895FC0105900020C4
:10390000E9F7809590958E0F9F1F0895FB01DC01CC
:103910004150504048F005900D920020C9F701C079
:103920001D9241505040E0F70895BB272A3051F4D2
:10393000992342F4BDE290958095709561957F4FF3
:103940008F4F9F4F01C0BB27FA01A62F6217710549
:1039500081059105330B30FB66F0AA27660F771FB0
:10396000881F991FAA1FA21710F0A21B6395385039
:10397000A9F7A05DAA3308F0A95DA19336F7B111AC
:10398000B1931082CA0100C0DC01FC01672F719164
:103990007723E1F7329704C07C916D937083629135
:1039A000AE17BF07C8F3089540D008F481E008952A
:1039B000E89409C097FB3EF49095809570956195C9
:1039C0007F4F8F4F9F4F9923A9F0F92F96E9BB277F
:1039D0009395F695879577956795B795F111F8CFFB
:1039E000FAF4BB0F11F460FF1BC06F5F7F4F8F4F66
:1039F0009F4F16C0882311F096E911C0772321F05C
:103A00009EE8872F762F05C0662371F096E8862FF3
:103A100070E060E02AF09A95660F771F881FDAF74A
:103A2000880F9695879597F90895990F0008550F77
:103A3000AA0BE0E8FEEF16161706E807F907C0F034
:103A400012161306E407F50798F0621B730B840B3C
:103A5000950B39F40A2661F0232B242B252B21F416
:103A600008950A2609F4A140A6958FEF811D811DB6
:103A700008950BD078C069D028F06ED018F0952347
:103A800009F05AC05FC01124A2C07ED0A0F3959F58
:103A9000D1F3950F50E0551F629FF001729FBB2735
:103AA000F00DB11D639FAA27F00DB11DAA1F649FE1
:103AB0006627B00DA11D661F829F2227B00DA11D94
:103AC000621F739FB00DA11D621F839FA00D611D1A
:103AD000221F749F3327A00D611D231F849F600D3B
:103AE000211D822F762F6A2F11249F5750408AF074
:103AF000E1F088234AF0EE0FFF1FBB1F661F771F00
:103B0000881F91505040A9F79E3F510570F014C096
:103B10005EC05F3FECF3983EDCF386957795679542
:103B2000B795F795E7959F5FC1F7FE2B880F911D1D
:103B30009695879597F9089597F99F6780E870E0C3
:103B400060E008959FEF80EC089500240A94161613
:103B5000170618060906089500240A94121613067B
:103B6000140605060895092E0394000C11F4882309
:103B700052F0BB0F40F4BF2B11F460FF04C06F5F25
:103B80007F4F8F4F9F4F089557FD9058440F551FFB
:103B900059F05F3F71F04795880F97FB991F61F0CF
:103BA0009F3F79F087950895121613061406551F46
:103BB000F2CF4695F1DF08C0161617061806991FB2
:103BC000F1CF86957105610508940895E894BB27A7
:103BD00066277727CB0197F908953AD0A59F900DD6
:103BE000B49F900DA49F800D911D112408952F92D4
:103BF0003F924F925F926F927F928F929F92AF927D
:103C0000BF92CF92DF92EF92FF920F931F93CF93C9
:103C1000DF93CDB7DEB7CA1BDB0BCDBFDEBF099488
:103C20002A88398848885F846E847D848C849B844C
:103C3000AA84B984C884DF80EE80FD800C811B815A
:103C4000AA81B981CE0FD11DCDBFDEBFED01089590
:103C5000A29FB001B39FC001A39F700D811D1124CD
:103C6000911DB29F700D811D1124911D0895505812
:103C7000BB27AA270ED077CF68DF30F06DDF20F0AA
:103C800031F49F3F11F41EF45DCF0EF4E095E7FB95
:103C900053CFE92F79DF80F3BA17620773078407E0
:103CA000950718F071F49EF591CF0EF4E0950B2E68
:103CB000BA2FA02D0B01B90190010C01CA01A0017E
:103CC0001124FF27591B99F0593F50F4503E68F1D9
:103CD0001A16F040A22F232F342F4427585FF3CF1A
:103CE000469537952795A795F0405395C9F77EF4EB
:103CF0001F16BA0B620B730B840BBAF09150A1F034
:103D0000FF0FBB1F661F771F881FC2F70EC0BA0FB9
:103D1000621F731F841F48F4879577956795B79541
:103D2000F7959E3F08F0B3CF9395880F08F0992739
:103D3000EE0F9795879508950CD015CF0DDF40F0C5
:103D400004DF30F021F45F3F19F0F6CE51113FCF80
:103D5000F9CE1ADF98F39923C9F35523B1F3951BD4
:103D6000550BBB27AA2762177307840738F09F5F9C
:103D70005F4F220F331F441FAA1FA9F333D00E2E0B
:103D80003AF0E0E830D091505040E695001CCAF778
:103D900029D0FE2F27D0660F771F881FBB1F26173D
:103DA00037074807AB07B0E809F0BB0B802DBF0110
:103DB000FF2793585F4F2AF09E3F510568F0BCCE15
:103DC00006CF5F3FECF3983EDCF3869577956795D9
:103DD000B795F7959F5FC9F7880F911D96958795C1
:103DE00097F90895E1E0660F771F881FBB1F6217E0
:103DF00073078407BA0720F0621B730B840BBA0B9E
:103E0000EE1F88F7E095089504D06894B111DFCED5
:103E10000895C2DE88F09F5790F0B92F9927B751C7
:103E2000A0F0D1F0660F771F881F991F1AF0BA957E
:103E3000C9F712C0B13081F0C9DEB1E00895C6CE35
:103E4000672F782F8827B85F39F0B93FCCF3869574
:103E500077956795B395D9F73EF4909580957095D1
:103E600061957F4F8F4F9F4F0895DFDD08F48FEFEF
:103E700008950EF047C066CE68945ECE8DDEC8F31E
:103E80009923D1F3C6F3DF93CF931F930F93FF9240
:103E9000C92FDD2788232AF02197660F771F881FF7
:103EA000DAF720E030E040E85FEB9FE3883920F06C
:103EB000803E30F021968F77DBDEECE7F0E003C048
:103EC000D7DEE9EAF0E02CD08B01BE01EC01FB2E3D
:103ED0006F5771097595771F880B990B6BDD28E17A
:103EE00032E741E35FE3D1DDAF2D9801AE01FF90F2
:103EF0000F911F91CF91DF91CCDE35CE96DD880BEF
:103F0000990B08959F3F31F0915020F48795779554
:103F10006795B795880F911D9695879597F90895A0
:103F2000DF93CF931F930F93FF92EF92DF927B016A
:103F30008C01689405C0DA2EEF01A7DDFE01E8943C
:103F4000A5912591359145915591AEF3EF01A1DEF3
:103F5000FE019701A801DA9479F7DF90EF90FF90C6
:103F60000F911F91CF91DF91089597FB072E16F4C3
:103F7000009406D077FD08D04FD007FC05D03EF462
:103F8000909581959F4F0895709561957F4F089505
:103F9000A1E21A2EAA1BBB1BFD010DC0AA1FBB1F4D
:103FA000EE1FFF1FA217B307E407F50720F0A21BBF
:103FB000B30BE40BF50B661F771F881F991F1A942C
:103FC00069F760957095809590959B01AC01BD0156
:103FD000CF010895052E97FB16F400940FD057FDDE
:103FE00005D0D6DF07FC02D046F408C050954095B6
:103FF000309521953F4F4F4F5F4F08959095809595
:10400000709561957F4F8F4F9F4F0895EE0FFF1F63
:104010000590F491E02D0994AA1BBB1B51E107C048
:10402000AA1FBB1FA617B70710F0A61BB70B881F48
:10403000991F5A95A9F780959095BC01CD010895D7
:104040000F931F93CF93DF938230910510F482E09A
:1040500090E0E091533BF091543B30E020E0B0E041
:10406000A0E0309799F42115310509F44AC0281BC6
:10407000390B24303105D8F58A819B816115710592
:1040800089F1FB0182839383FE0111C0408151813C
:104090000281138148175907E0F04817590799F42E
:1040A000109761F012960C93129713961C93329608
:1040B000CF01DF91CF911F910F9108950093533B52
:1040C0001093543BF4CF2115310551F0421753079B
:1040D00038F0A901DB019A01BD01DF01F801C1CF70
:1040E000EF01F9CF8093533B9093543BCDCFFE012A
:1040F000E20FF31F81939193225031092883398372
:10410000D7CF2091513B3091523B232B41F420914A
:104110000E3830910F382093513B3093523B209111
:104120000C3830910D382115310541F42DB73EB7CB
:104130004091103850911138241B350BE091513BC0
:10414000F091523BE217F307A0F42E1B3F0B281708
:10415000390778F0AC014E5F5F4F2417350748F000
:104160004E0F5F1F4093513B5093523B819391936D
:104170009FCFF0E0E0E09CCFCF93DF930097E9F092
:10418000FC01329712821382A091533BB091543BB1
:10419000ED0130E020E01097A1F420813181820F01
:1041A000931F2091513B3091523B2817390709F05A
:1041B00061C0E093513BF093523BDF91CF91089562
:1041C000EA01CE17DF07E8F54A815B819E014115C0
:1041D0005105B1F7E901EA83FB8349915991C40F75
:1041E000D51FEC17FD0761F4808191810296840F41
:1041F000951FE90188839983828193818A839B83B8
:10420000F0E0E0E012968D919C9113970097B9F53C
:104210002D913C911197CD010296820F931F209111
:10422000513B3091523B2817390739F6309751F5F9
:104230001092533B1092543BA093513BB093523B8E
:10424000BCCFC283D38340815181840F951FC8178F
:10425000D90761F44E5F5F4F88819981480F591FDC
:10426000408351838A819B81828393832115310509
:1042700009F0B0CFE093533BF093543B9ECFFD0148
:10428000DC01C0CF12821382D7CFB0E0A0E0EAE415
:10429000F1E2AFCC8C01009741F4CB01D1DE8C016F
:1042A000C801CDB7DEB7E0E1BDCCFC01E60FF71FDA
:1042B0009C0122503109E217F30708F499C0D90193
:1042C000CD91DC911197C617D70790F0C530D10575
:1042D00038F3CE0104978617970710F3C61BD70B48
:1042E0002297C193D1936D937C93CF0145DFD8CFB3
:1042F0005B01AC1ABD0A4C018C0E9D1EA091533B74
:10430000B091543B512C412CF12CE12C109731F5FC
:104310008091513B9091523B8815990509F05CC002
:104320004616570608F058C080910C3890910D3809
:10433000009741F48DB79EB74091103850911138D5
:10434000841B950BE817F90708F052C0E093513B26
:10435000F093523BF90160837183A2CF8D919C91C0
:10436000119712966C90129713967C901397A8153C
:10437000B90559F56C0142E0C40ED11CCA14DB0426
:1043800020F1AC014A195B09DA011296159780F009
:104390006282738240835183D9016D937C93E114CF
:1043A000F10471F0D7011296ED93FC93139778CF37
:1043B00022968C0F9D1FF90180839183F301EFCF2B
:1043C000E093533BF093543B6BCF4816590608F4E7
:1043D0002C017D01D3019ACFCB0132DE7C01009705
:1043E00039F0AE01B80107D0C801C6DE870158CF49
:1043F00010E000E055CFFB01DC0102C001900D92FE
:1044000041505040D8F70895FB01DC0101900D9216
:104410000020E1F70895FB01DC014150504048F0D5
:1044200001900D920020C9F701C01D9241505040EB
:10443000E0F7089510E0C0ECD0E003C0FE01E6DD37
:0C4440002196C13CD107D1F7F894FFCFC2
:10444C000A00F40196000A000000000071046404E4
:10445C00400498103A042F0409040504560B040474
:10446C000405060705040302010000010203010212
:10447C0003000000000071046404400498103A0426
:10448C002F04090405042908040400000000710429
:10449C006404400498103A042F04090405046E05C2
:1044AC0004040000000071046404400498103A04F1
:1044BC002F040A0505040404880E00000000710492
:1044CC006404400406043A042F040904050404049B
:1044DC0004041010F8000000001010104040000000
:1044EC0000001000781E00A02800F03C0040510095
:1044FC00127A00E4A20024F40048E80190D00320D2
:10450C00A107000000000D031F030104D9020703DB
:10451C00F502E102000000000101010101010202AB
:10452C00020200000000102040802010080402014C
:10453C000102040802040801000000005B030B02E6
:10454C0001045A03D103E30342030D0A006E616EAA
:10455C0000696E66006F7666002E00203D3E2000DE
:10456C003A004E65772049442000536574207461ED
:10457C007265005365742063616C69627261746961
:10458C006F6E0055494420006875696420007461A1
:10459C0072652000666163746F7220005363616CF6
:1045AC0065204F4B005363616C65206572726F72AE
:1045BC00005461726520646F6E650043616C6962C2
:1045CC00726174696F6E20646F6E6500203E20000E
:1045DC00881326381A3812380000803F0000553BEB
:0245EC0080004D
:00000001FF
