:10000000C0C00000F2C00000F0C000000C94191243
:100010000C9416120C941312E8C000000C947D137B
:100020000C940913E2C00000E0C00000DEC0000034
:10003000DCC00000DAC00000D8C000000C94E2115F
:10004000D4C00000D2C00000D0C00000CEC000006C
:10005000CCC00000CAC00000C8C00000C6C000007C
:100060000C946312C2C00000C0C00000BEC00000FB
:10007000BCC00000BAC00000B8C00000080000000A
:10008000BE922449123EABAAAA2ABECDCCCC4C3E8D
:1000900000000080BEABAAAAAA3E00000000BF007C
:1000A0000000803F0000000000084178D3BB438778
:1000B000D1133D190E3CC3BD4282AD2B3E68EC828C
:1000C00076BED98FE1A93E4C80EFFFBE01C4FF7F11
:1000D0003F000000000070726F63657373206E6FE5
:1000E00074206F7665727269646564005365747517
:1000F0007020646F6E65004C6F5261204572726FA4
:10010000720042472D5231005275636865004C6F92
:100110005261204F4B0043616C6962004B6700578E
:100120006569676874207265660054617265004B8A
:1001300067005765696768740054696C7400C2B0E1
:10014000430054656D7065726174757265004F701F
:10015000656E00560056636300496E697469616C90
:10016000697A6520454550524F4D000A53746172BB
:1001700074001F1C1F1E1F1E1F1F1E1F1E00971313
:10018000761C11241FBECFEFCDBFDFE3DEBF809111
:10019000400080934000811105C098ED21E094BF9C
:1001A000209341008CBB29E3A2E1B8E301C01D927A
:1001B000A037B207E1F718E3A0E0B8E3E9E4F7E419
:1001C00002C005900D92A231B107D9F710E0C0EC42
:1001D000D0E004C02197FE010E941B20CF3BD10735
:1001E000C9F70E9487140C94C3220ACFCF93DF93E0
:1001F000DC011896ED91FC911997838180FD04C074
:1002000080E1DF91CF91089551966C915197ED0166
:10021000659652969C91529720E43FE180E06E7F74
:100220004581542F537061F32150310981F485E0E9
:10023000523021F084E0513009F481E152962C9142
:100240005297291B52962C9393E09483DACF43FD67
:100250001FC0533029F3811105C0678320E43FE1BB
:1002600081E0DECF46FFDCCF44FF07C081FF0EC038
:1002700083E09111E3CF80E0E1CF9923E1F329916D
:1002800020879150826020E43FE1CACF82E0D6CF40
:1002900082E1B7CF0F931F93CF93DF93DB018A01E6
:1002A000EC01E885F9853C9180E49FE160E042E063
:1002B00021605581752F737091F1019741F485E0AC
:1002C0007230A9F084E0713091F481E110C053FDE7
:1002D00028C0733071F3611105C0278380E49FE16A
:1002E00061E0E7CF56FF0BC083E0848382E09C91FE
:1002F000931B9C93DF91CF911F910F91089557FF0E
:10030000D8CF8085E80189938E01315021F0448354
:1003100080E49FE1CECF87E0848380E0E8CF80E176
:10032000E6CF82E1E7CF8FEF9FE18093D2389093C1
:10033000D338089560916038709161388091623847
:10034000909163380C94ED1C0895E0915F38F0E0D3
:10035000EE0FFF1FE55BF74C808191810196808352
:1003600091830895E091B138F091B238309709F453
:100370004DC0A285B3858185928D91FF04C09C916B
:10038000892329F408959C91892309F03FC0A7850A
:10039000B0899C918189809589238C9382899389E6
:1003A0000197F1F764897589A285B385518538E095
:1003B00020E0CB010197F1F7822F90E0959587958A
:1003C000282F4C91452309F02068315091F7828DF8
:1003D00081FD20958091B03890E001968F73992728
:1003E0003091AF38381799F0A091B038B0E0AC59DF
:1003F000B74C2C938093B038868997890197F1F791
:10040000A785B0898C919189892B8C930895828DD1
:100410008160828FF1CFAF92BF92CF92DF92EF9245
:10042000FF920F931F93CF93DF936C017B018B019E
:10043000040F151FEB015E01AE18BF08C017D107EE
:1004400059F06991D601ED91FC910190F081E02D78
:10045000C6010995892B79F7C501DF91CF911F91CD
:100460000F91FF90EF90DF90CF90BF90AF900895E5
:100470002FB7F8946091A9387091AA388091AB3861
:100480009091AC382FBF08959FB7F89488E080937F
:10049000840A80918E0A81FFFCCF80918D0AE091C1
:1004A000A20AF091A30A2091A5383091A638409174
:1004B000A7385091A8389FBF80FF07C0E730F105EB
:1004C00020F42F5F3F4F4F4F5F4FAEEFB1E00E94E0
:1004D000021E6E0F7F1F811D911D660F771F881FE3
:1004E000991F0895CF92DF92EF92FF92CF93DF93FF
:1004F0006B017C01C9DFEB01C114D104E104F104FB
:1005000041F412C081E0C81AD108E108F108C851CD
:10051000DC4FBADF6C1B7D0B683E734068F3C1147F
:10052000D104E104F10471F7DF91CF91FF90EF90D6
:10053000DF90CF90089590E0FC01E254FA432081CF
:100540002F3F69F18C569943FC018081E82FE29599
:10055000EE0FE07EE20FF0E0E05FFB4F9081987FCE
:10056000908390E0FC0134E0EE0FFF1F3A95E1F735
:10057000422F50E061E070E001C0660F2A95EAF773
:100580006383880F991FFC01EE5FF74C440F551FE2
:100590000190F081E02DE40FF51F10821182089583
:1005A000CF93DF93282F30E0F901E254FA43908192
:1005B0009F3F89F1A2E0443009F4A1E02C56394371
:1005C000E901E881F0E0EF01CC0FDD1FCE5FD74CF1
:1005D0002881398121153105F1F061157105D9F0B6
:1005E000492F50E0440F551F240F351FE901688340
:1005F00079834FB7F8949F0155E0220F331F5A9526
:10060000E1F7E0E1E90FE20FF0E0FC5F8081887F35
:100610008A2B80834FBFDF91CF910895DC0118961C
:10062000ED91FC9184818860848308959C012B5E08
:100630003F4FDC015396EC91539752968C91E817FB
:1006400030F4E20FF32FF11D808190E008958FEFD9
:100650009FEF0895FC01DC015596938982899817D4
:1006600040F4A90FB11D2C919F5F938B822F90E0D6
:1006700008958FEF9FEF0895FC0182899389891B6C
:10068000990B0895FC01A289A03258F4A80FB92F44
:10069000B11D55966C9382898F5F828B81E090E0CB
:1006A000089590E080E00895BF92CF92DF92EF929C
:1006B000FF920F931F93CF93DF937C016A01B62EB5
:1006C000EB010C2F0B1910E00C151D0528F4699196
:1006D000C701D8DF892BA9F7C801DF91CF911F91FE
:1006E0000F91FF90EF90DF90CF90BF9008952091F1
:1006F000B1383091B2382817390771F49091AF387A
:100700008091B038981741F0E091AF38F0E0EC59A3
:10071000F74C808190E008958FEF9FEF0895089542
:10072000EF92FF920F931F93CF93DF93DC015896C4
:10073000ED90FC905997E114F10479F481E090E098
:1007400012968D939C93139790E080E0DF91CF9168
:100750001F910F91FF90EF9008951D96ED91FC91E0
:100760001E971C968C911C97982F90950FB75A96B0
:100770002C915A97122F127021FD6095F8942081C8
:10078000112319F1282B2083E7012197F1F728E0A5
:10079000462F50E0308160FF1AC0382B3083E701CC
:1007A0002197F1F7BA0175956795215089F71123C3
:1007B00081F08081892380830FBF58968D919C9111
:1007C0000197F1F781E090E0C1CF2923DCCF3923F5
:1007D000E5CF9081892BEFCF0F931F93CF93DF93BA
:1007E0008C01D0E0C0E0F801EC0FFD1F649166239E
:1007F00039F081E599E394DF892B11F02196F3CF4D
:10080000CE01DF91CF911F910F9108952091B138C2
:100810003091B2382817390741F48091B03890915F
:10082000AF38891B8F7390E0089590E080E00895C1
:100830002091B1383091B23828173907A1F490913E
:10084000AF388091B038981771F0E091AF38F0E090
:10085000EC59F74C80819091AF389F5F9F739093D4
:10086000AF3890E008958FEF9FEF089590E080E01B
:1008700008950895089590E080E00895CF92DF9262
:10088000EF92FF92CF93DF93EC016A017B016989BC
:100890007A89072E000C880B990B0E94EF1CA70188
:1008A00096010E944E1D0E94191FAB01BC01E881F8
:1008B000F9810084F185E02DCE01DF91CF91FF9089
:1008C000EF90DF90CF900994462F50E070E060E009
:1008D000DC01ED91FC910084F185E02D0994FC018F
:1008E00041875287638774870895CF92DF92EF9292
:1008F000FF92CF93DF93EC0169857A858B859C8588
:100900000E94EF1C6B017C0169897A89072E000C1B
:10091000880B990B0E94EF1C9B01AC01C701B6012B
:100920000E94B11EDF91CF91FF90EF90DF90CF90AA
:10093000089521E0FC0181859285A385B485892BEA
:100940008A2B8B2B09F420E0822F0895FC0161850E
:100950007285838594850895FC0165870895FC015F
:1009600066830895FC01A081B0E0BC5E2C91621703
:1009700069F0E0E0F0E10FB622812370E9F7F89426
:100980006C936DE964BF63E060830FBE0895EF92DE
:10099000FF921F93CF93DF931F92CDB7DEB78FEDFA
:1009A000E82E88E3F82E1AE01983F70161917F01A0
:1009B000CE010196D7DF1F5F1E30B1F78FED98E3B0
:1009C0000F90DF91CF911F91FF90EF900895EF92DC
:1009D000FF921F93CF93DF931F92CDB7DEB788E0CE
:1009E000E82E88E3F82E1EE01983F70161917F015C
:1009F000CE010196B7DF1F5F1231B1F788E098E3AF
:100A00000F90DF91CF911F91FF90EF9008950F937A
:100A10001F93CF93DF931F92CDB7DEB78B018983EE
:100A2000FB016081CE0101969DDFC8010F90DF912F
:100A3000CF911F910F910895CF92DF92EF92FF9285
:100A40000F931F93CF93DF931F92CDB7DEB7182F6D
:100A5000D62E072FE62EF72E88E0C82EC10E19835A
:100A6000F70161917F01CE0101967CDF1F5F1C11B0
:100A7000F6CF8D2D902F0F90DF91CF911F910F9179
:100A8000FF90EF90DF90CF900895CF92DF92EF929A
:100A9000FF920F931F93CF93DF93CDB7DEB72897C5
:100AA000CDBFDEBF8C016A017B01DC0151966D91E7
:100AB0007C91072E000C880B990B0E94EF1CA7015C
:100AC00096010E944E1D0E94191FAB01BC01D80166
:100AD000ED91FC910084F185E02DC8010995F801A4
:100AE000838D948D89839A83858D968D8B839C834A
:100AF000818592858D839E83818992898F83988752
:100B0000BE016F5F7F4F838197DF2896CDBFDEBF29
:100B1000DF91CF911F910F91FF90EF90DF90CF90D9
:100B20000895282F30E08231A8F4F901EA55F943FD
:100B300080818F3F79F02C563943D901EC91B0E296
:100B4000EB9FF0011124FC5F9085982381E019F45C
:100B500080E008958FEF0895CF93DF93EC01EE8D41
:100B6000FF8D309729F1099590E0B0E0A0E08987EA
:100B70009A87AB87BC878C8D9D8D8230910589F5D6
:100B800089859A85AB85BC854D855E856F8578891D
:100B9000481759076A077B0741F0892B8A2B8B2B53
:100BA00021F41D861E861F86188ADF91CF91089535
:100BB0008B8D2C8D3D8D2130310561F4B2DF51E0FC
:100BC00040E030E020E0811150E0852F942FA32FEA
:100BD000B22FCDCFA6DF082E000C990BAA0BBB0BB2
:100BE000C6CF039711F789859A85AB85BC854D855E
:100BF0005E856F857889481759076A077B07A9F2D0
:100C000081309105A105B10581F68D879E87AF875B
:100C1000B88BCBCFCF93DF93823108F047C090E001
:100C2000EC01CA55D94328812F3F09F43FC0AC01DC
:100C30004C565943DA01EC91B0E2EB9FF0011124DC
:100C4000FC5F611136C0268330812323A1F49C010F
:100C500022543A43D9012C91309769F1283058F544
:100C60007096E20FF11D3FB7F8942081611126C004
:100C7000277F20833FBF805D9943FC0190819923AA
:100C8000A9F08881903409F1983FE1F0903171F436
:100C9000DA019C919130A1F4853010F0880F829593
:100CA0009091010A809589238093010ADF91CF9169
:100CB00008952583C9CFF0E0E0E0D5CF2860D9CFF3
:100CC000880FEECF1092A006F1CF823019F180E4A8
:100CD0009091920A982351F34FB7F8949091800A1B
:100CE0009E7F9093800A2091920A90E08095909543
:100CF00030E08223932328ED24BF8093920A8091D1
:100D00008E0A80FFFCCF8091800A81608093800AE8
:100D10004FBFCCCF80E8DCCF0F931F93CF93DF93EF
:100D2000EC01062F142F60E0898574DFEB85FC85CC
:100D30009F8188852085222319F02FB72187F89479
:100D400021E02287909320088093210800000093DF
:100D500024088091230887FFFCCF8091240800009D
:100D6000109324088091230887FFFCCF109124085A
:100D7000EB85FC858285882331F012868085882367
:100D800011F081858FBF61E0898544DF812FDF917C
:100D9000CF911F910F91089540E861E8BDCF41E8E0
:100DA00061E8BACF40E0B8CFCF92DF92EF92FF92E6
:100DB000CF93DF936DE18FE399E3F4DF90E034E0CC
:100DC000959587953A95E1F78A3091050CF03FC0EB
:100DD000FC01EE0FFF1FE80FF91FEE5BF943C08027
:100DE000D180E2800E2C000CFF086EE18FE399E3C6
:100DF000D9DFD82F66E28FE399E3D4DFC82FD295ED
:100E0000DF7021E030E040E050E004C0220F331FEB
:100E1000441F551FDA95D2F7C701B6010E94FF1F84
:100E200068EE73E080E090E00E94FF1F2131310501
:100E3000410551058CF04C2F486066EA8FE399E339
:100E4000DF91CF91FF90EF90DF90CF9065CFCC24D2
:100E5000CA94DC2C7601C9CF4C2F477FEECFCF92BE
:100E6000DF92EF92FF920F931F93CF93DF938C014A
:100E70006AE198DFC82FD0E0F80166857785808920
:100E800091890E94EF1C2AEE36E54AEF5DE40E944C
:100E9000E91C87FD44C08DE990E0C81BD90B69E1CE
:100EA000C80180DF87FD8D5F85958595682F880F48
:100EB000770B880B990B0E94EF1C6B017C0120E0E3
:100EC00030E0A9010E94E91C87FF0DC0BE01DD0FC3
:100ED000880B990B0E94EF1CA70196010E944D1EE2
:100EE0000E94191FEB019E01DD0F440B550B20588A
:100EF0003F4F4F4F5F4FA4E6B0E00E94021E26E72F
:100F000030E040E050E00E94FF1FC901DF91CF9127
:100F10001F910F91FF90EF90DF90CF90089584EA9A
:100F200090E0BBCFCF92DF92EF92FF920F931F938F
:100F3000CF93DF937C01C62EC72FD42E63E132DF1F
:100F4000D82F0C2D1C2FC0E0CD1751F0CD1541F03E
:100F500060E0C70127DFCF5FF80181938F01F4CFF5
:100F60008C2F90E0DF91CF911F910F91FF90EF9028
:100F7000DF90CF9008951F93CF93DF93EC010097FC
:100F800059F1469710F0C5E1D0E01C2F4C2F66E3D5
:100F900078E38FE399E3C6DF30E02AE52197832FDA
:100FA00090E08C179D073CF48A5C974CFC01808193
:100FB000280F3F5FF4CF80914A3828130DC0E0918D
:100FC000B538F091B638309739F066E378E3812F81
:100FD000DF91CF911F910994DF91CF911F910895D7
:100FE0000F931F93CF93DF93EC0162E1DBDE182FA9
:100FF000482F62E9CE0190DE15FD23C016FF16C012
:1010000063E1CE01CFDE082F10E060E1CE01CADE41
:10101000482F6DE8CE0180DEEA81FB81309789F0B0
:10102000C801DF91CF911F910F91099413FF09C05F
:10103000EC81FD81309729F0DF91CF911F910F91C5
:101040000994DF91CF911F910F9108958FE399E358
:10105000C7CF43E861E860DE81E090E00895CF9378
:10106000DF93EC0140E060EC57DE45E861E8CE013B
:1010700053DE81E090E0DF91CF91089581E080938D
:10108000DE388FE399E3EBDFE091B338F091B438C9
:10109000309709F009940895AF92BF92DF92EF92D2
:1010A000FF920F931F93CF93DF93EC015B01D42E3C
:1010B00061E078DE83708330C1F062E1CE0172DEE0
:1010C00083FF04C048E062E9CE0126DEE881F981B1
:1010D0000084F185E02DCE01099540E06DE8CE0158
:1010E0001BDE40E062EACE0117DE8501ED2CF12C1B
:1010F000C8018A199B098E159F0538F4F8014191A2
:101100008F0160E8CE0108DEF3CF4D2D62EACE01FB
:1011100003DE8C819D81892B21F040E460ECCE01BF
:10112000FBDDE881F9810288F389E02DCE01099584
:10113000C701DF91CF911F910F91FF90EF90DF904A
:10114000BF90AF900895FC018AE5848BDF019F0179
:101150002C5E3F4F9D918489890F848BA217B30722
:10116000C9F71092DE3845E1BF018FE399E394DFC0
:101170008091DD38882351F08091DE38811106C0DE
:1011800062E070E080E090E0ADD9F2CF0895CF93B7
:10119000DF93CDB7DEB76597CDBFDEBF89836A83A6
:1011A0008EEF8B8328502C8380E1FA01DE011596A7
:1011B00001900D928A95E1F7CE010196C4DF659604
:1011C000CDBFDEBFDF91CF910895DC01EDEBF8E3F9
:1011D0008091BA3880838091BB38818312968C913C
:1011E0001297828315969C911597990F990F990FD5
:1011F00017968C91890F8383CF01A5CF0F931F93EF
:10120000CF93DF938C01EB0162317105C4F065313E
:10121000710514F0C4E1D0E0239747E86DECC801F4
:101220007BDD41E36BE8C80177DD4C2F425040681D
:1012300069E8C801DF91CF911F910F916DCD6230A8
:10124000710514F4C2E0D0E044E86DECC80164DD3F
:101250004BE2E8CF8231F0F490E0FC01EA55F9432B
:1012600020812F3FB9F0FC01EC56F943E08130E2D8
:10127000E39FF0011124FC5F60FF0DC021838254C5
:101280009A43DC018C91E80FF11D808961FF05C054
:101290008860808B08952283F2CF877FFACFCF9327
:1012A000DF93EC0160E08E81D5DF8E81823130F4F6
:1012B00043E066E278E0DF91CF9172C9DF91CF9190
:1012C0000895FC0164837583672B09F0E8CF86815C
:1012D000823108F430C90895FC0162837383672B5F
:1012E00009F0DDCF8681823108F425C90895CF93B6
:1012F000DF93EC01EB85FC85809120088E7F809345
:101300002008178260E080E1A5DF60E08FE0A2DFC7
:1013100060E08EE09FDF60E089859CDF8D858F3FF8
:1013200021F060E0DF91CF9195CFDF91CF910895CB
:101330008F929F92AF92BF92CF92DF92EF92FF92E5
:101340000F931F93CF93DF93EC016A017B0161E060
:10135000898580DF61E089855DDC8D858F3F91F037
:1013600061E078DF60E08D8555DC6AE070E080E068
:1013700090E0B8D861E08D854DDC6AE070E080E0F7
:1013800090E0B0D8EB85FC858781811106C010867E
:10139000128680E8818781E08783809101028B7FBC
:1013A0009681892B809301028681811191C061E031
:1013B0008EE050DF61E080E14DDF809121088460A4
:1013C0008093210880912008816280932008909169
:1013D000253980912639909320088093210862E472
:1013E000CE01E0DC823109F07CC0E881F981068021
:1013F000F781E02DCE010995CE86DF86E88AF98A4D
:1014000046015701BB0C8808982C54019601A7018E
:10141000682D782D882D982D03E10E947F20A12C26
:10142000E8E4BE2EF8EECF2EDD24D394E12CF12C8F
:1014300000E010E00E942320F22E832E942EA52E91
:10144000B62EC72ED82EE92E00E10E949A20422FF8
:1014500066E8CE0161DC2F2D382D492D5A2D6B2DDC
:101460007C2D8D2D9E2D08E00E949A20422F67E84A
:10147000CE0152DC4F2D68E8CE014EDC40E06EE834
:10148000CE014ADC40E06FE8CE0146DC6CE0CE01E4
:1014900089DC482F43606CE8CE013EDC44E066EA1C
:1014A000CE013ADCE881F9810084F185E02DCE019E
:1014B000099581E090E0DF91CF911F910F91FF900E
:1014C000EF90DF90CF90BF90AF909F908F90089556
:1014D000843009F072CF61E08CE0BCDE61E08AE02C
:1014E0006BCF90E080E0E7CF87FD03C08630C0F48B
:1014F0008C5F982F9F77903238F590910006992352
:1015000031F18F718093060681E080930806809107
:101510000B0680FFFCCF8091100690911106089574
:10152000813161F092EF980F933010F48D50E1CF3C
:10153000883031F0893031F08FEFDBCF80E0D9CFC8
:101540008AE0D7CF8BE0D5CF8FEF92E8089589EF6F
:1015500092E808954F925F926F927F928F929F923E
:10156000AF92BF92CF92DF92EF92FF920F931F93B1
:10157000CF93DF93CDB7DEB72697CDBFDEBF8D8388
:101580009E83DC015B968C91C12CD12C76018F3F20
:1015900009F494C01AE0C12CD12C7601ED81FE81B2
:1015A000838DA2DF092E000CAA0BBB0BC80ED91E1F
:1015B000EA1EFB1E115091F7AD81BE8194960D91EC
:1015C0001C91D8011C968D919D910D90BC91A02DE0
:1015D00089839A83AB83BC83F8012085318542855A
:1015E0005385BC01CD010E944D1E9B01AC01698158
:1015F0007A818B819C810E94B11E4B015C01D801D4
:1016000014968D929D92AD92BC92179754964D90E0
:101610005D906D907C905797C701B6012AE030E04D
:1016200040E050E00E94DD1FCA01B9010E94ED1C9C
:10163000A30192010E944C1EA50194010E944E1D1F
:10164000A30192010E944D1E6B017C01F801C08A2A
:10165000D18AE28AF38AAC019B01C301B2010E94E4
:101660004C1E9F77D8012D913D914D915C910E9428
:101670004E1D2B013C01A501940160E070E080E863
:101680009FE30E944C1E29813A814B815C810E941C
:101690004E1D9B01AC01C301B2010E944D1EF80119
:1016A0006487758786879787C48AD58AE68AF78A8A
:1016B000C701B6010E941E1F6B017C01AD81BE8176
:1016C0009296ED91FC9193970D911C91309761F159
:1016D000D8011C960D911C91AD81BE8190962D91E3
:1016E0003C9191975E964D915C915F975C966D9160
:1016F0007C91C6010995AB01BC018D819E81F801E9
:101700002696CDBFDEBFDF91CF911F910F91FF9045
:10171000EF90DF90CF90BF90AF909F908F907F9091
:101720006F905F904F900994A0910038B09101386C
:10173000A70196010E94021E2FEF33E040E050E027
:101740000E94DD1FBA01A901D8011896ED91FC9104
:101750008D819E812696CDBFDEBFDF91CF911F91F7
:101760000F91FF90EF90DF90CF90BF90AF909F9040
:101770008F907F906F905F904F900994FC018385CC
:1017800081FF04C0660F618B128A138A08956091ED
:1017900029398091273990912839F0DF80912739B4
:1017A000909128390E94F60091E0811190E0892FF4
:1017B0000895CF93C82F609129398091273990914E
:1017C0002839DCDF8091273990912839DC01ED91AF
:1017D000FC910190F081E02D6C2F099580912739C3
:1017E000909128390E94F600882319F08FEFCF914D
:1017F0000895E0912739F091283920912939220F55
:10180000218B81E0828B138AAF014B5E5F4FBF015A
:101810006E5E7F4FCF010E944A01809127399091DF
:101820002839DC01ED91FC910084F185E02D0995CA
:10183000892BE1F28091273990912839DC01ED91D3
:10184000FC910284F385E02D0995D1CFCF93DF93EE
:10185000D82FC62F60912939809127399091283946
:101860008DDF8091273990912839DC01ED91FC9131
:101870000190F081E02D6D2F09958091273990918D
:101880002839DC01ED91FC910190F081E02D6C2F65
:10189000099580912739909128390E94F60091E0AE
:1018A000811190E0892FDF91CF910895CF93DF933D
:1018B000D82FC62F862F7DDF61E070E001C0660F54
:1018C000DA95EAF7682B8C2FDF91CF91BFCFCF93BA
:1018D00060E081E0EBDF60E082E0E8DFC6E680E028
:1018E00068DF83FD0BC061E070E080E090E00E9463
:1018F0007202C150A1F780E0CF91089560E084E0CA
:10190000CF91D4CFCF93DF93D82FC62F862F51DF1F
:1019100061E070E001C0660FDA95EAF76095682330
:101920008C2FDF91CF9192CF60E081E0EBDF60E020
:1019300082E0E8CF4F925F926F927F928F929F9258
:10194000AF92BF92CF92DF92EF92FF921F93CF930D
:10195000DF93C82F0E9438022B013C01812C912C6F
:101960005401D0E013E00E94380264197509860919
:101970009709683E73408105910508F093C080E0A7
:1019800018DF85FF26C06091293980912739909111
:101990002839F4DE8091273990912839DC01ED91C6
:1019A000FC910190F081E02D62E109958091273949
:1019B000909128390E94F600882391F0C12CD12CF7
:1019C00076018C0C9D1CAE1CBF1CDF5FDC1709F47C
:1019D00069C061E070E080E090E00E947202C3CFD5
:1019E000E0912739F091283920912939220F218B54
:1019F000128B138AAF014B5E5F4FBF016E5E7F4F4C
:101A0000CF010E944A018091273990912839DC0149
:101A1000ED91FC910084F185E02D0995892B71F2FF
:101A20008091273990912839DC01ED91FC91028455
:101A3000F385E02D09956C01809127399091283923
:101A4000DC01ED91FC910284F385E02D09950D2CCC
:101A5000000CEE08FF087601DD24CC24092E000CD2
:101A6000AA0BBB0BBA2FA92F982F8827C82AD92ACF
:101A7000EA2AFB2A8091273990912839DC01ED91DF
:101A8000FC910284F385E02D0995092E000CAA0B28
:101A9000BB0B8C299D29AE29BF29A7FDBF6F6C0107
:101AA0007D018FCF2C2F30E050E040E0C501B40124
:101AB0000E94FF1FCA01B901DF91CF911F91FF90D2
:101AC000EF90DF90CF90BF90AF909F908F907F90DE
:101AD0006F905F904F9008950F931F93CF93DF9374
:101AE000C4E0D0E080E065DE85FF2DC088E022DF25
:101AF000582F492F00912A3910912B3920912C39D8
:101B000030912D39CB01A52FB42F80179107A20753
:101B1000B30714F4D901C801BC01CD01601B710BDE
:101B2000820B930B0E94EF1C20912E3930912F399C
:101B300040913039509131390E94B11EDF91CF91DF
:101B40001F910F91089564E670E080E090E00E949C
:101B50007202219739F66DEC7CEC87EC92ECEECFBB
:101B6000E0EAF0E081818D7F8183A0E0B6E012960B
:101B70008C9112978F7C806512968C9380E4808381
:101B80008DE9B2DC8DE9B0DC9C0150E040E064E21C
:101B90007AE687E190E00E94DD1F209300383093C1
:101BA0000138B90190E080E00E94ED1C20E030E0B7
:101BB0004AE754E40C94B11EFC0101900020E9F7BF
:101BC0003197AF01481B590BBC0181E599E30C9497
:101BD0000B02CF93DF930E94EC03EC018AEC96ECAE
:101BE000EBDF8C0F9D1FDF91CF91089586ED90E084
:101BF000F0CF8F929F92AF92BF920F931F93CF938C
:101C0000DF93CDB7DEB7A197CDBFDEBF19A24230BB
:101C100008F44AE08E010F5D1F4F842E912CB12CE9
:101C2000A12CA50194010E94DD1FE62FB901CA0174
:101C3000EA30D4F4E05DD801EE938D01232B242B00
:101C4000252B79F790E080E0109711F0CD01B4DFFB
:101C5000A196CDBFDEBFDF91CF911F910F91BF90B5
:101C6000AF909F908F900895E95CE5CFCF92DF927F
:101C7000EF92FF92CF93DF936B017C01F7FE1DC0C3
:101C80006DE281E599E30E949003EC0166277727D6
:101C9000CB016C197D098E099F094AE0AADFC80FA4
:101CA000D91F8AEC96EC88DF8C0F9D1FDF91CF91B6
:101CB000FF90EF90DF90CF9008954AE09ADFEC011B
:101CC000F0CFCF93DF93682F70E090E080E04AE0A0
:101CD00090DFEC018AEC96EC6FDF8C0F9D1FDF919B
:101CE000CF910895CF93DF93D0E0C0E0009711F03B
:101CF00063DFEC018AEC96EC5FDF8C0F9D1FDF91B8
:101D0000CF9108954F925F926F927F928F929F92A0
:101D1000AF92BF92CF92DF92EF92FF920F931F93F9
:101D2000CF936B017C01742EAC019B010E94931F29
:101D3000882391F08DEC96ECCF911F910F91FF903D
:101D4000EF90DF90CF90BF90AF909F908F907F905B
:101D50006F905F904F9030CF46015701E894B7F8ED
:101D60002FEF3FEF4FE75FE7C501B4010E94931FDC
:101D700081110DC02FEF3FEF4FE75FE7C501B401C1
:101D80000E94E91C18161CF481ED96ECD5CF2FEFBC
:101D90003FEF4FE75FE4C701B6010E944A1F1816E4
:101DA0001CF485ED96ECC8CF2FEF3FEF4FE75FECCB
:101DB000C701B6010E94E91C87FDF3CF20E030E0A7
:101DC000A901C701B6010E94E91C10E000E087FFED
:101DD0000AC06DE281E599E30E9490038C01F7FA55
:101DE000F094F7F8F094C0E060E070E080E09FE3EA
:101DF0007C1641F020E030E040E251E40E94B11E48
:101E0000CF5FF6CFA70196010E944D1E2B013C012A
:101E10000E941E1F4B015C014AE0EBDE7C01E00EDC
:101E2000F11ECC23A9F1C501B4010E94ED1C9B0158
:101E3000AC01C301B2010E944C1E4B015C0189ED53
:101E400096ECBADEE80EF91EC15010F120E030E049
:101E500040E251E4C501B4010E944E1D2B013C013A
:101E60000E941E1F4B01B12CA12C4AE0C501B401F8
:101E7000C0DEE80EF91EC501B4010E94ED1C9B01F5
:101E8000AC01C301B2010E944C1E4B015C01DCCFCE
:101E9000C701CF911F910F91FF90EF90DF90CF90EE
:101EA000BF90AF909F908F907F906F905F904F907A
:101EB0000895CF92DF92EF92FF920F931F93CF93EB
:101EC000DF93882369F1EB0188818F3F91F5998138
:101ED0008091BA38981324C08A818B3F09F50E94FB
:101EE0003802AB01BC018091BB382EE1829FC0015A
:101EF0001124092E000CAA0BBB0B88519C4FAF4F2D
:101F0000BF4F840F951FA61FB71FBC01CD01616095
:101F10006093D9387093DA388093DB389093DC384B
:101F2000DF91CF911F910F91FF90EF90DF90CF90B5
:101F300008959091BB388913F3CF8091B7388823E7
:101F400069F18A818E3F51F58B8187708630C9F4A3
:101F50008C818111E5CF8D818093BB386BEB78E369
:101F600080E00E9407058BED96EC26DE8091BB3861
:101F7000DF91CF911F910F91FF90EF90DF90CF9065
:101F8000A0CE873069F689818093BA386AEB78E30E
:101F900081E00E9407051092B738C2CF0091D53872
:101FA0001091D6380115110549F18A81883031F533
:101FB0006C817D818E819F810E94EF1C6B017C0171
:101FC0006885798590E080E00E94ED1C9B01AC0162
:101FD000C701B6010E94B11EAB01BC01D801ED9151
:101FE000FC910484F585E02DC801DF91CF911F910C
:101FF0000F91FF90EF90DF90CF9009948091B838C7
:102000009091B938892B89F08A81873071F481E009
:102010008093D83883EE96ECDF91CF911F910F918A
:10202000FF90EF90DF90CF905DCE012B09F478CF39
:102030008A81893009F074CF81E08093D7388CEEA3
:1020400096ECEACFCF93DF93EC016091383970E0E2
:102050006F5F7F4F660F771F8091363990913739C8
:102060000E94EE2180933639909337390097D1F052
:1020700020913839E22FF0E0EE0FFF1FE80FF91F33
:10208000C083D1832F5F2093383930E0215030480E
:10209000220F331F820F931FFC0180819181DF91FA
:1020A000CF91089590E080E0FACFCF93DF93CDB742
:1020B000DEB76097CDBFDEBFDC0115962D913C9158
:1020C0002C30310589F5FC019E01235F3F4F84E0F0
:1020D000D9011D928A95E9F7828189838189928944
:1020E0008A879B87838D948D092E000CAA0BBB0BCE
:1020F0008A839B83AC83BD83858D968D092E000CCE
:10210000AA0BBB0B8E839F83A887B98781E090E0E1
:102110008C879D8723E030E0AE014F5F5F4F609179
:10212000BB388091BA3833D86096CDBFDEBFDF911F
:10213000CF9108958F929F92AF92BF92CF92DF92EC
:10214000EF92FF920F931F93CF93DF937C01EB01EC
:102150008901BA0190E080E00E94ED1C4B015C0116
:10216000B70190E080E00E94ED1C9B01AC0160E0B3
:1021700070EC8FE794E40E94B11E20E030E040E86C
:102180005FE30E944C1E9B01AC01C501B4010E949B
:10219000B11E6B017C01B80190E080E00E94ED1C53
:1021A0009B01AC01C701B6010E94B11E0E94531FE2
:1021B0006B017C01BE0190E080E00E94ED1C9B0160
:1021C000AC01C701B6010E94B11E2FE03FEC4BE508
:1021D0005BE30E944D1E9B01AC0160E070E080E873
:1021E0009FE30E94B11E23E333E948E853E40E94D1
:1021F0004C1EDF91CF911F910F91FF90EF90DF90D8
:10220000CF90BF90AF909F908F9008955F926F9204
:102210007F928F929F92AF92BF92CF92DF92EF9276
:10222000FF920F931F93CF93DF93EC01562E49013A
:102230004A838FEF9FEF8B839C8366246394712C7A
:102240006F827886B5010B2C000C880B990B0E94CD
:10225000EF1CA70196010E944E1D0E94191F6B8B57
:102260007C8BA98ABA8A8D8A9E8A0F8B188F81EC03
:102270009DEBA0EFBFEF89879A87AB87BC878EE382
:1022800092E4AFE0B0E08D879E87AF87B88B198E60
:102290001A8E8AEA95EC888399835B8E1AA21BA218
:1022A00018A219A21E8E1F8E1C8E1D8E6D827E821C
:1022B000AA94AB2821F082E090E08F839887EFEF1B
:1022C0005E16D1F160E0852D0E942A098B8D0CD914
:1022D0007C0188E190E00E94C9208C018FE892EC9B
:1022E000A5EFBCE3F80180839183A283B3831482BA
:1022F00015821682178280E090E0A0E8BFE3808715
:102300009187A287B38780E090E0A0E0B0E4848763
:102310009587A687B787108A118A128A138AB70110
:10232000FF0C880B990B0E94EF1CF801648B758BD6
:10233000868B978B0CA31DA3DF91CF911F910F91DB
:10234000FF90EF90DF90CF90BF90AF909F908F90D5
:102350007F906F905F900895EF92FF920F931F937D
:10236000CF93DF93CDB7DEB7A297CDBFDEBFFC0121
:1023700061857285838594852AE0AE014F5F5F4F4A
:102380007A010E94AA1CF70101900020E9F7BF0121
:102390006E197F0990E080E00E94EE218C01009789
:1023A00019F0B7010E94AD22C8010E946521C80141
:1023B000A296CDBFDEBFDF91CF911F910F91FF900D
:1023C000EF9008958F9381E080938D0A8FB78F935C
:1023D000EF93FF93E5EAF8E39F9368948FEF0FC0C4
:1023E000E894848195818C5E9F4F84839583885E79
:1023F000934010F08FEF03C0848395838EEF90811C
:10240000981B919390819F4F919390819F4F9193AF
:1024100090819F4F919326F39F91FF91EF918F9120
:102420008FBF8F9118950F9304E006C00F9302E0C1
:1024300003C00F9300E000C00F920FB60F921F92DF
:102440001124FF921F932F933F934F935F936F93AA
:102450007F938F939F93AF93BF93CF93DF93EF932C
:10246000FF93A2E0B8E3A00FB11DCD91DC91000F66
:102470000D5FA02FB0E0FC90109761F01F2D169516
:1024800018F041F02296FBCFE991F9913097B9F31A
:102490000995F5CFA02FB0E0FC92FF91EF91DF916D
:1024A000CF91BF91AF919F918F917F916F915F91EC
:1024B0004F913F912F911F91FF901F900F900FBE52
:1024C0000F900F9118951F920F920FB60F92112433
:1024D0001F932F933F934F935F936F937F938F93AC
:1024E0009F93AF93BF93CF93DF93EF93FF93C091ED
:1024F000E338D091E4382097B9F1A885B9851B96C7
:102500001C911B9716FF53C08B8583FF09C0877FE3
:102510008B87EF85F889309719F08A8990E00995C3
:1025200010FF3BC08A8981110BC08091A4388111B2
:1025300007C0809150008093A43881708093500030
:102540001A8A1B8AE885F9858585898B11FF20C049
:10255000ED85FE85309709F009958A8981111BC0A8
:1025600086E0E885F9858287FF91EF91DF91CF9131
:10257000BF91AF919F918F917F916F915F914F919B
:102580003F912F911F910F900FBE0F901F901895A4
:102590008B8588608B8783E0E4CF8091A43880931B
:1025A00050001092A4381A8A1B8A82E0DACF17FFF3
:1025B0002EC09E012B5E3F4F11FF1AC08A85182343
:1025C00021F088E08A871A8AF0CF8C898F5F8C8B04
:1025D00088E18A87EB898A89E817A8F7E20FF32F49
:1025E000F11D80811D968C938B898F5F8B8BD3CF50
:1025F0001D968C91EA89E03250F4E20FF32FF11D21
:1026000080838A898F5F8A8B803229F6A9CF80E008
:10261000A8CF1F920F920FB60F9211242F933F93C2
:102620004F935F936F937F938F939F93AF93BF93DA
:10263000EF93FF9381E080930B0A80915F3890E0E5
:1026400001966AE070E00E94CA1F80935F38E091B3
:102650005F38F0E0EE0FFF1FE55BF74C1082118250
:10266000109260381092613810926238109263387C
:1026700090E080E0FC01EE0FFF1FE55BF74C20814E
:102680003181409160385091613860916238709129
:102690006338420F531F611D711D40936038509382
:1026A0006138609362387093633801968A3091057F
:1026B00009F78091603890916138A0916238B091AB
:1026C000633885369105A105B10530F08FEF9FE1A4
:1026D0008093D2389093D338FF91EF91BF91AF910F
:1026E0009F918F917F916F915F914F913F912F912A
:1026F0000F900FBE0F901F9018951F920F920FB65C
:102700000F9211248F939F9381E0809353018091C6
:10271000D2389091D33801968093D2389093D338A1
:102720009F918F910F900FBE0F901F901895CF9390
:102730001092E7381092E83888EE93E0A0E0B0E01D
:102740008093E9389093EA38A093EB38B093EC3853
:1027500024E636EC2093E5383093E63825EE38E36E
:102760002093E3383093E43820E138E02093ED38CB
:102770003093EE38C4E0C093263921E32093253905
:1027800020E238E020931A3930931B391092213916
:102790001092533910925439809355399093563989
:1027A000A0935739B09358398CEB96EC80935139FC
:1027B00090935239109263391092643910926539AE
:1027C00010926639109267391092683910926939FF
:1027D00010926A3960916B396E7F6D7F60936B39AF
:1027E0006695617081E0682787E00E940A0661E0D3
:1027F00087E00E942A09C0935D3984E294E08093C7
:102800005E3990935F3960E086E00E942A098091EA
:102810006B3981FD04C061E086E00E940A0686E013
:102820008093593988E080935A3988E294E0809304
:102830005B3990935C3986E796EC80933F399093AF
:10284000403981E38093463984E080934739109280
:1028500048391092493983E080934C3982E0809363
:1028600045398AE199E380934A3990934B39109224
:102870004D3910924E3910924F39109250391092B2
:102880003E3910923D3910923C3910923939E2E7C5
:10289000F1E081E08C3049F09491823009F49F5F3F
:1028A00021E0280F3196992381F180933A3981E014
:1028B00080933B391092363910923739109238395B
:1028C0008AE28093293910922A3910922B3910927A
:1028D0002C3910922D3980E090E0A0E8BFE380937E
:1028E0002E3990932F39A0933039B09331398AEF34
:1028F00090E0A0E0B0E08093323990933339A09318
:102900003439B0933539CF910895822FC3CFCF9307
:10291000DF93CDB7DEB7E097CDBFDEBF81E098EDA6
:1029200094BF80936100E0E0F6E092E592839AE044
:10293000958390E293838083109202028093030A2E
:102940009EEF9093260A9093270A9BE09093000AAB
:10295000E0E8FAE02DEF31E026A737A7118290E8F2
:102960009283848781E1808378948EE090E08093E5
:10297000693990936A3981E090E08093633990934C
:1029800064392CE030E020936539309366398093C8
:1029900067399093683980915939823128F444E03D
:1029A00062EB71E00E94D0028091693990916A399E
:1029B0000197F1F78091673990916839892B49F136
:1029C000E091B138F091B23829E3E135F20709F12D
:1029D000309739F0A785B0899C91818980958923AA
:1029E0008C9380916B398E7F80936B391092B038C5
:1029F0001092AF3881E599E38093B1389093B23863
:102A0000E0916039F0916139808190916239892B30
:102A100080838BE691E0DDD861E08CE00E942A099A
:102A200060E083E00E942A0983E00E94740A8436F1
:102A3000910584F561E08CE00E940A060E9438024C
:102A40006131774281059105D8F064E670E080E05D
:102A500090E00E94720260E08CE00E940A060E94F0
:102A60003802613177428105910578F064E670E0C3
:102A700080E090E00E94720281E08093BC38D4CF65
:102A80006CE271E080E090E0E4CF6CE271E080E025
:102A900090E0F0CF0E9438026131774281059105C4
:102AA00008F43BC28FEF8093BB3861E08CE00E945A
:102AB0000A068091BB388F3F41F589E591E089D8BE
:102AC00086E48093BB381092BA386BEB78E380E0F1
:102AD0000E9407056AEB78E381E00E94070588E021
:102AE000EEE9F5ECDE01119601900D928A95E1F781
:102AF000BE016F5F7F4F82E00E941C050E94C704E9
:102B00000E94E70481E08093BC3880910114809397
:102B1000BA3880910A148093DF3880910B14809327
:102B2000E03880910C148093E13880910D148093EB
:102B3000E23880910E148093083880910F148093AE
:102B400009388091101480930A3880911114809371
:102B50000B3881E097EC30D88091BA38B2D887E052
:102B600097EC2AD86091DF387091E0388091E13895
:102B70009091E2387BD88DE097EC1ED860910838B0
:102B80007091093880910A3890910B3842E0BAD898
:102B90008AEC96EC11D886E290E00E94C9204C01A4
:102BA00034E6A32EB12C4AE0C42E47EDD42E43E2E6
:102BB000E42E4CE3F42E03E511E025E531E041E09D
:102BC0006FEF24DBC4013EDAFC0180EB9DE082A3C1
:102BD00093A3148E158E168E178E10A211A280E26A
:102BE00090E00E94C9208C0182E0D80112968C935B
:102BF00012978FEF9FEF13968D939C9314978DE010
:102C000090E015968D939C931697EE24E394F12C07
:102C10001796ED92FC92189753961D921C9254971A
:102C20005196ED92FC9252978EE491E055968D93D9
:102C30009C93569757961D921C92589781EC9DEB4A
:102C4000A0EFBFEFF80181879287A387B4878EE357
:102C500092E4AFE0B0E085879687A787B08B118EAE
:102C6000128E84ED95EC8083918381E0838FE48ED6
:102C7000F58E168E178E62E00E942A09D8015C96A6
:102C80002D913C915D972230310508F05BC115967E
:102C90001D921C92169717961D921C9218975B9680
:102CA0008C912130310509F045C10E94910551E018
:102CB00040E030E020E0811150E0852F942FA32FD9
:102CC000B22FF80181879287A387B487C801BAD948
:102CD00044E063E971E081E00E94D00286E290E086
:102CE0000E94C9204C010AE0A02EB12C8DECC82E08
:102CF0008CECD82E8CE4E82E8EE3F82E0EE311E057
:102D000022E431E043E065E0C40180DAC4019AD9ED
:102D1000FC018AE990E182A393A38EE69FE0848F71
:102D2000958F8CE592E1868F978F88E893E180A359
:102D300091A386E290E00E94C9204C01AA24A394AA
:102D4000B12CC12CD12C20E8E22E2FE3F22E10E082
:102D500000E029E331E045E06FEFC40157DAC40138
:102D600071D9FC018AE991E082A393A3148E158E98
:102D7000168E178E10A211A262E08DE00E942A0921
:102D800044E065EA71E08DE00E94D0028091F03865
:102D900081FD2AC082FD28C08091010284FFE8C025
:102DA00086E0809306048091F03882608093F0384A
:102DB000E091ED38F091EE3881E083838583E091F6
:102DC000ED38F091EE389091F03891FF24C0968163
:102DD000913291F02381138291E2968390819D7FBD
:102DE0009083238320FD8583E091ED38F091EE38C8
:102DF0008091F03881FF0FC08681843061F093812B
:102E0000138284E0868380818D7F8083938390FF0B
:102E100002C081E0858385EE98E380932739909303
:102E200028390E94C70B882309F4A6C060E080E01F
:102E30000E94560C61E070E080E090E00E94720217
:102E400060E080E00E94820C182F0E94670C18231B
:102E500081E00E94D90B877C682F606281E00E942C
:102E6000260C60E087E00E94560C182381E00E9447
:102E7000D90B887F682F656081E00E94260C18239B
:102E800082E00E94D90B8F78682F606182E00E94F7
:102E9000260C182385E10E94D90B682F606385E119
:102EA0000E94260C18236CE187E00E94560C182320
:102EB0006BE186E00E94820C182360913239709198
:102EC000333980913439909135390E9472028AE009
:102ED0000E949A0C82E00E94D90B682F6C7F82E0DE
:102EE0000E94260C62E082E00E94560C0E9438028A
:102EF0006B017C0182E00E94D90B82FF44C00E94DA
:102F000038026C197D098E099F09693E734081055D
:102F1000910508F4F6C290E03CC0809100148093C3
:102F2000BB388CEF96EC0E94DC0D8091BB380E9480
:102F3000610EBBCD0E949105082E000C990BAA0BC7
:102F4000BB0BBFCE88E090E015968D939C931697AF
:102F50001796ED92FC92189719968D919D910D9070
:102F6000BC91A02DF80185879687A787B08BAECE40
:102F700083E08093260417CF0E94C70B811156CFA0
:102F80008EE197EC37C182E00E94D90B91E083FD7E
:102F9000C2CF1123A9F3992399F386E290E00E940E
:102FA000C9204C01BAE0AB2EB12C1DECC12E1CEC9B
:102FB000D12EED2C1DE3F12E0FE211E022E331E0E2
:102FC00046E06FEF23D9C4013DD8FC018CE69DE0BB
:102FD00082A393A3148E158E168E178E10A211A2A3
:102FE0008BE190E00E94C920FC0187E082838FEF93
:102FF0009FEF83839483138A148A01E010E0018B8E
:10300000128B8AE291E0858B968B178A108E81EC69
:103010009DEBA0EFBFEF81879287A387B4878EE3F4
:1030200092E4AFE0B0E085879687A787B08B118EDA
:10303000128E8CE196EC8083918381E190E0858310
:10304000968383E090E087839087CF010E942210CF
:103050008093B8389093B9388FE190E00E94C920EE
:10306000FC018CEE95EC8083918388E0828322E0E2
:1030700030E0238334838DE090E08583968307835B
:103080001087138A148A018B128B8FE191E0858B54
:10309000968B8CE191E0878B908F8091021490E069
:1030A000B0E0A0E080959095A095B0958587968733
:1030B000A787B08B118E128E84E096EC808391836B
:1030C000809102148983809103148A83809104146F
:1030D0008B83809105148C83809106148D8380915D
:1030E00007148E83809108148F8380910914888738
:1030F0008D819E81092E000CAA0BBB0B81879287C4
:10310000A387B48789819A81838F948F8B819C81D7
:10311000858F968F8F819885818B928B4CE050E0C4
:1031200045835683019711F027833087CF010E9492
:1031300022108093D5389093D6388BE190E00E948E
:10314000C920FC0189E082838FEF9FEF8383948302
:10315000138A148A81E090E0818B928B86E191E062
:10316000858B968B178A108E81EC9DEBA0EFBFEFBD
:1031700081879287A387B4878EE392E4AFE0B0E0C3
:1031800085879687A787B08B118E128E8CE196EC7F
:103190008083918381E190E08583968383E090E052
:1031A00087839087CF010E9422108091DF38909111
:1031B000E038A091E138B091E23880932A399093B9
:1031C0002B39A0932C39B0932D39809108389091E8
:1031D0000938A0910A38B0910B3880932E3990931A
:1031E0002F39A0933039B093313984E10E949A0C81
:1031F00085E197EC0E94720E11E01093DD3889E5AD
:103200009FE08093B5389093B6381092B3381092FF
:10321000B43840E45EE06FEC79E18FE399E30E941B
:103220009809892B09F474C18BEB97E0809341399D
:10323000909342398FE399E30E944F098EE398E01F
:1032400080934339909344398FE399E30E944F0967
:103250006EE070E08FE399E30E94FE0843EC61EBBF
:103260008FE399E30E948C064AE067EB8FE399E3D2
:103270000E948C066EE18FE399E30E94D2068F7064
:10328000482F40696EE98FE399E30E948C060E9403
:10329000D4066DE18FE399E30E94D2068F70482F28
:1032A00040676DE98FE399E30E948C060E94D40683
:1032B0006DE18FE399E30E94D206817F482F42603F
:1032C0006DE98FE399E30E948C068FE399E30E94F6
:1032D0002F081093D4388EE091E00E94E90D809180
:1032E000BC38811133C1F894809141018111FCCF28
:1032F0001092470181E08093520191E79093500131
:103300009EE09093000A29E136E02093260A30934C
:10331000270A80930A0A8091000A81608093000A3C
:10332000789460E08CE00E940A068CEE90E00E94A7
:10333000E90D8FEF9FE18093D2389093D3381092AC
:10334000D8381092D73841EC842E48E3942E50E1BF
:10335000552EC090D938D090DA38E090DB38F09014
:10336000DC38C114D104E104F10449F00E943802B0
:1033700066246394C616D706E806F90608F0612CA1
:103380008091D838882389F161E08CE00E940A0698
:103390000E94670C88E00E949A0C60932A3970930F
:1033A0002B3980932C3990932D396093DF387093AB
:1033B000E0388093E1389093E2380E94C70460912E
:1033C000DF387091E0388091E1389091E2380E94C6
:1033D000360E0E94940C60E08CE00E940A068AE29D
:1033E00097EC0E94720E1092D8388091D7388823BB
:1033F00009F453C061E08CE00E940A060E94670C49
:103400008091D5389091D638DC01ED91FC91048003
:10341000F581E02D09956B017C0188E00E949A0CF2
:1034200000912A3910912B3920912C3930912D3966
:10343000601B710B820B930BD2D2A701960191D422
:1034400060932E3970932F398093303990933139AE
:10345000609308387093093880930A3890930B383A
:103460000E94E704609108387091093880910A3809
:1034700090910B3842E00E94820E8AEC96EC0E94FA
:10348000DC0D0E94940C60E08CE00E940A0684E34C
:1034900097EC0E94720E1092D7388091D43888230E
:1034A00009F457CF8091D2389091D3380A9718F405
:1034B000662009F44ECF1092D2381092D338809102
:1034C00000068160809300060E94670C10E08091E6
:1034D0003839181708F04DC1812F90E0880F991FD7
:1034E000E0913639F0913739E80FF91F80819181E9
:1034F000DC01ED91FC910088F189E02D09951F5FB9
:10350000E6CF61E070E080E090E00E947202F2CCD1
:103510001092D43887EF90E00E94E90D13E061E04B
:103520008CE00E940A0664E670E080E090E00E9471
:10353000720260E08CE00E940A0664E670E080E0BF
:1035400090E00E947202115051F7CDCE8FEF809320
:10355000BA388E010D5D1F4FFEE0FF2ED801EF2D12
:103560001D92EA95E9F78EEF89A38DE08AA383E0A7
:103570008BA345E050E068E071E0CE018496DBD19A
:1035800030E020E0AE014F5D5F4F6091BB3880912D
:10359000BA380E94C708D8011D92FA94E9F745E0AD
:1035A00050E062E071E0C801C6D122E030E0AE0137
:1035B0004F5D5F4F6091BB388091BA380E94C70859
:1035C0001BA227E030E0AE014F5D5F4F6091BB383A
:1035D0008091BA380E94C708D12C4E01B3E18B0EFE
:1035E000911CAEE0CA2E80913839D81608F090C0F0
:1035F0008D2D90E0880F991FE0913639F091373981
:10360000E80FF91F00811181F8018281882309F4F4
:103610007DC0D401EC2D1D92EA95E9F7898BD80184
:1036200015968C9115978A8B17968C9117978B8B83
:103630005596ED90FC90C70175D18D30910510F035
:103640008DE090E0AC01B701CE01449674D130E03A
:1036500020E0AE014F5E5F4F6091BB388091BA3879
:103660000E94C708F801A788B08CA114B10451F1D9
:10367000C50158D17C01892B29F1D80112968C9172
:103680008983A701BEE0EB16F10410F04EE050E094
:10369000B501CE0103964FD1EEE0EE16F10438F4F9
:1036A000E3E0F0E0EC0FFD1FEE0DFF1D108221E0C6
:1036B00030E0AE014F5F5F4F6091BB388091BA3808
:1036C0000E94C708D801ED91FC910288F389E02D92
:1036D000C8010995F4012C2D11922A95E9F7D8011A
:1036E00012968C911297898B15968C9115978A8BCF
:1036F00017968C918B8B27E030E0AE014F5E5F4FC9
:103700006091BB388091BA380E94C708D3946BCFC0
:1037100081E08093B73863E0C62ED12CE12CF12CE8
:10372000812C912C54018A9493948091B7388823EA
:1037300009F4D9CD0E943802A70196013ED4CA01EE
:10374000B901A501940139D46F5F710977FF03C0F6
:10375000719561957109603871054CF460E08CE0F9
:103760000E940A0661E08CE00E942A09DECF61E037
:10377000F6CF712C80913839781608F0A7C0872DC4
:1037800090E0880F991FE0913639F0913739E80FB2
:10379000F91F00811181F8018281882309F46AC030
:1037A00081859285A385B485E584F684E81AF90AB3
:1037B000F7FE03C0F194E194F108F801A388B488FE
:1037C000AE14BF041CF0662009F454C0F8018587CC
:1037D0009687A787B08B0580F681E02DED30F10547
:1037E00008F037C0EB50F44E26C4021C021C021C29
:1037F000291C3C1C291C291C3C1C021C291C291CA2
:103800003C1C021CD80155968D919C910E94EC03A2
:1038100085E497EC0E94DC0DF80161857285838553
:1038200094850E94360EF80181859285A385B48522
:103830008093C1389093C238A093C338B093C438F2
:10384000818992898093C5389093C638C8010E94B7
:10385000E508AE14BF0474F4D8015996ED91FC91BB
:103860005A97309739F019966D917D918D919C9171
:103870001C97099573947ECFD801ED91FC91068039
:10388000F781E02DC80109956C01F80185899689B9
:103890000E94EC0385E497EC0E94DC0DC6010E94B7
:1038A000720EF60101900020E9F73197D401252D21
:1038B0001D922A95E9F7EC19E13108F0E0E14E2F6D
:1038C00050E0B60181EC98E34FD6C0CF1092D938C2
:1038D0001092DA381092DB381092DC380E94940C87
:1038E000809100068E7F8093000633CD8CEB96ECA2
:1038F00080935139909352398091B1389091B23878
:103900008155994371F4E0916039F091613990816A
:10391000809162398095892380831092B13810920A
:10392000B2380895FC0105900020E9F78095909544
:103930008E0F9F1F0895FB01DC014150504048F05D
:1039400005900D920020C9F701C01D9241505040D2
:10395000E0F70895BB272A3051F4992342F4BDE2E1
:1039600090958095709561957F4F8F4F9F4F01C0C7
:10397000BB27FA01A62F6217710581059105330B4C
:1039800030FB66F0AA27660F771F881F991FAA1FB2
:10399000A21710F0A21B63953850A9F7A05DAA33B7
:1039A00008F0A95DA19336F7B111B1931082CA0155
:1039B00000C0DC01FC01672F71917723E1F732979A
:1039C00004C07C916D9370836291AE17BF07C8F3FA
:1039D000089540D008F481E00895E89409C097FB69
:1039E0003EF490958095709561957F4F8F4F9F4FD6
:1039F0009923A9F0F92F96E9BB279395F69587951A
:103A000077956795B795F111F8CFFAF4BB0F11F4DC
:103A100060FF1BC06F5F7F4F8F4F9F4F16C0882383
:103A200011F096E911C0772321F09EE8872F762FB9
:103A300005C0662371F096E8862F70E060E02AF0FA
:103A40009A95660F771F881FDAF7880F96958795E6
:103A500097F90895990F0008550FAA0BE0E8FEEFBB
:103A600016161706E807F907C0F012161306E40742
:103A7000F50798F0621B730B840B950B39F40A263B
:103A800061F0232B242B252B21F408950A2609F419
:103A9000A140A6958FEF811D811D08950BD078C0A0
:103AA00069D028F06ED018F0952309F05AC05FC095
:103AB0001124A2C07ED0A0F3959FD1F3950F50E0C2
:103AC000551F629FF001729FBB27F00DB11D639FD0
:103AD000AA27F00DB11DAA1F649F6627B00DA11D76
:103AE000661F829F2227B00DA11D621F739FB00D1C
:103AF000A11D621F839FA00D611D221F749F33278C
:103B0000A00D611D231F849F600D211D822F762F24
:103B10006A2F11249F5750408AF0E1F088234AF021
:103B2000EE0FFF1FBB1F661F771F881F915050406D
:103B3000A9F79E3F510570F014C05EC05F3FECF3E3
:103B4000983EDCF3869577956795B795F795E79559
:103B50009F5FC1F7FE2B880F911D9695879597F96A
:103B6000089597F99F6780E870E060E008959FEFFF
:103B700080EC089500240A94161617061806090604
:103B8000089500240A9412161306140605060895D3
:103B9000092E0394000C11F4882352F0BB0F40F45B
:103BA000BF2B11F460FF04C06F5F7F4F8F4F9F4F9B
:103BB000089557FD9058440F551F59F05F3F71F01D
:103BC0004795880F97FB991F61F09F3F79F0879584
:103BD0000895121613061406551FF2CF4695F1DF0D
:103BE00008C0161617061806991FF1CF869571059D
:103BF000610508940895E894BB2766277727CB01D1
:103C000097F908953AD0A59F900DB49F900DA49F69
:103C1000800D911D112408952F923F924F925F9233
:103C20006F927F928F929F92AF92BF92CF92DF92CC
:103C3000EF92FF920F931F93CF93DF93CDB7DEB731
:103C4000CA1BDB0BCDBFDEBF09942A8839884888A0
:103C50005F846E847D848C849B84AA84B984C884A8
:103C6000DF80EE80FD800C811B81AA81B981CE0F9F
:103C7000D11DCDBFDEBFED010895A29FB001B39F5E
:103C8000C001A39F700D811D1124911DB29F700D65
:103C9000811D1124911D08955058BB27AA270ED0CD
:103CA00077CF68DF30F06DDF20F031F49F3F11F403
:103CB0001EF45DCF0EF4E095E7FB53CFE92F79DFDB
:103CC00080F3BA17620773078407950718F071F439
:103CD0009EF591CF0EF4E0950B2EBA2FA02D0B017F
:103CE000B90190010C01CA01A0011124FF27591B41
:103CF00099F0593F50F4503E68F11A16F040A22F47
:103D0000232F342F4427585FF3CF469537952795B7
:103D1000A795F0405395C9F77EF41F16BA0B620BB6
:103D2000730B840BBAF09150A1F0FF0FBB1F661FFD
:103D3000771F881FC2F70EC0BA0F621F731F841F40
:103D400048F4879577956795B795F7959E3F08F066
:103D5000B3CF9395880F08F09927EE0F9795879525
:103D600008950CD015CF0DDF40F004DF30F021F4C2
:103D70005F3F19F0F6CE51113FCFF9CE1ADF98F31D
:103D80009923C9F35523B1F3951B550BBB27AA27DC
:103D900062177307840738F09F5F5F4F220F331F4E
:103DA000441FAA1FA9F333D00E2E3AF0E0E830D01A
:103DB00091505040E695001CCAF729D0FE2F27D01D
:103DC000660F771F881FBB1F261737074807AB07EB
:103DD000B0E809F0BB0B802DBF01FF2793585F4F60
:103DE0002AF09E3F510568F0BCCE06CF5F3FECF352
:103DF000983EDCF3869577956795B795F7959F5F25
:103E0000C9F7880F911D9695879597F90895E1E078
:103E1000660F771F881FBB1F621773078407BA07D7
:103E200020F0621B730B840BBA0BEE1F88F7E09532
:103E3000089504D06894B111DFCE0895C2DE88F0F1
:103E40009F5790F0B92F9927B751A0F0D1F0660F86
:103E5000771F881F991F1AF0BA95C9F712C0B130A1
:103E600081F0C9DEB1E00895C6CE672F782F88278C
:103E7000B85F39F0B93FCCF3869577956795B395E0
:103E8000D9F73EF490958095709561957F4F8F4F4F
:103E90009F4F0895DFDD08F48FEF08950EF047C0BF
:103EA00066CE68945ECE8DDEC8F39923D1F3C6F357
:103EB000DF93CF931F930F93FF92C92FDD278823A2
:103EC0002AF02197660F771F881FDAF720E030E08D
:103ED00040E85FEB9FE3883920F0803E30F0219688
:103EE0008F77DBDEECE7F0E003C0D7DEE9EAF0E055
:103EF0002CD08B01BE01EC01FB2E6F57710975951B
:103F0000771F880B990B6BDD28E132E741E35FE314
:103F1000D1DDAF2D9801AE01FF900F911F91CF9190
:103F2000DF91CCDE35CE96DD880B990B08959F3F4F
:103F300031F0915020F4879577956795B795880F64
:103F4000911D9695879597F90895DF93CF931F93C9
:103F50000F93FF92EF92DF927B018C01689405C072
:103F6000DA2EEF01A7DDFE01E894A59125913591A8
:103F700045915591AEF3EF01A1DEFE019701A80135
:103F8000DA9479F7DF90EF90FF900F911F91CF9126
:103F9000DF91089597FB072E16F4009406D077FD65
:103FA00008D0E3D007FC05D03EF4909581959F4F53
:103FB0000895709561957F4F0895A1E21A2EAA1B6E
:103FC000BB1BFD010DC0AA1FBB1FEE1FFF1FA217C9
:103FD000B307E407F50720F0A21BB30BE40BF50BC6
:103FE000661F771F881F991F1A9469F7609570954F
:103FF000809590959B01AC01BD01CF010895052EE0
:1040000097FB16F400940FD057FD05D0D6DF07FCC0
:1040100002D046F408C050954095309521953F4F09
:104020004F4F5F4F089590958095709561957F4FA4
:104030008F4F9F4F0895EE0FFF1F0590F491E02DD5
:104040000994689401C0E8948F929F92CF93DF9374
:1040500005D0DF91CF919F908F9008958824992467
:10406000F401E401B0E49F93AA279A158B049C0401
:10407000ED05FE05CF05D007A10798F4AD2FDC2F85
:10408000CF2FFE2FE92D982C892E982F872F762F52
:10409000652F542F432F322F2227B85031F7BF916D
:1040A00027C01B2EBF91BB27220F331F441F551F54
:1040B000661F771F881F991F881C991CEE1FFF1F02
:1040C000CC1FDD1FAA1FBB1F8A149B04EC05FD0536
:1040D000CE05DF05A007B10748F08A189B08EC0958
:1040E000FD09CE09DF09A00BB10B21601A94E1F69E
:1040F0002EF49401AF01BE01CD01000C0895002EF5
:10410000083090F0982F872F762F652F542F432F4C
:10411000322F22270850F4CF220F331F441F551F80
:10412000661F771F881F991F0A95B2F7002D089503
:1041300097FD1094002E083098F00850232F342F4C
:10414000452F562F672F782F892F912DF4CF159457
:1041500097958795779567955795479537952795BF
:104160000A95AAF71124002D0895AA1BBB1B51E143
:1041700007C0AA1FBB1FA617B70710F0A61BB70BD7
:10418000881F991F5A95A9F780959095BC01CD017C
:1041900008950F931F93CF93DF938230910510F40E
:1041A00082E090E0E0916E39F0916F3930E020E0EC
:1041B000B0E0A0E0309799F42115310509F44AC028
:1041C000281B390B24303105D8F58A819B81611574
:1041D000710589F1FB0182839383FE0111C0408147
:1041E00051810281138148175907E0F04817590798
:1041F00099F4109761F012960C93129713961C93F2
:104200003296CF01DF91CF911F910F9108950093C6
:104210006E3910936F39F4CF2115310551F04217E3
:10422000530738F0A901DB019A01BD01DF01F80154
:10423000C1CFEF01F9CF80936E3990936F39CDCF15
:10424000FE01E20FF31F81939193225031092883DD
:104250003983D7CF20916C3930916D39232B41F4BC
:1042600020910E3830910F3820936C3930936D398E
:1042700020910C3830910D382115310541F42DB7BE
:104280003EB74091103850911138241B350BE09106
:104290006C39F0916D39E217F307A0F42E1B3F0B38
:1042A0002817390778F0AC014E5F5F4F24173507A8
:1042B00048F04E0F5F1F40936C3950936D398193D6
:1042C00091939FCFF0E0E0E09CCFCF93DF930097F6
:1042D000E9F0FC01329712821382A0916E39B091FD
:1042E0006F39ED0130E020E01097A1F42081318199
:1042F000820F931F20916C3930916D39281739073F
:1043000009F061C0E0936C39F0936D39DF91CF9182
:104310000895EA01CE17DF07E8F54A815B819E0127
:1043200041155105B1F7E901EA83FB8349915991A0
:10433000C40FD51FEC17FD0761F4808191810296AF
:10434000840F951FE90188839983828193818A83F1
:104350009B83F0E0E0E012968D919C91139700977B
:10436000B9F52D913C911197CD010296820F931FC3
:1043700020916C3930916D392817390739F630970B
:1043800051F510926E3910926F39A0936C39B09339
:104390006D39BCCFC283D38340815181840F951F77
:1043A000C817D90761F44E5F5F4F88819981480F24
:1043B000591F408351838A819B8182839383211576
:1043C000310509F0B0CFE0936E39F0936F399ECF8D
:1043D000FD01DC01C0CF12821382D7CFB0E0A0E094
:1043E000E3EFF1E21BCC8C01009741F4CB01D1DE6D
:1043F0008C01C801CDB7DEB7E0E129CCFC01E60FA6
:10440000F71F9C0122503109E217F30708F499C005
:10441000D901CD91DC911197C617D70790F0C5301F
:10442000D10538F3CE0104978617970710F3C61B02
:10443000D70B2297C193D1936D937C93CF0145DF26
:10444000D8CF5B01AC1ABD0A4C018C0E9D1EA09109
:104450006E39B0916F39512C412CF12CE12C109711
:1044600031F580916C3990916D398815990509F075
:104470005CC04616570608F058C080910C389091E1
:104480000D38009741F48DB79EB740911038509188
:104490001138841B950BE817F90708F052C0E09318
:1044A0006C39F0936D39F90160837183A2CF8D91DE
:1044B0009C91119712966C90129713967C9013977B
:1044C000A815B90559F56C0142E0C40ED11CCA14F7
:1044D000DB0420F1AC014A195B09DA011296159749
:1044E00080F06282738240835183D9016D937C9303
:1044F000E114F10471F0D7011296ED93FC93139738
:1045000078CF22968C0F9D1FF90180839183F30150
:10451000EFCFE0936E39F0936F396BCF48165906A1
:1045200008F42C017D01D3019ACFCB0132DE7C014E
:10453000009739F0AE01B80107D0C801C6DE870187
:1045400058CF10E000E055CFFB01DC0102C0019024
:104550000D9241505040D8F70895FB01DC010190C5
:104560000D920020E1F70895FB01DC01415050401D
:1045700048F001900D920020C9F701C01D924150F2
:104580005040E0F7089510E0C0ECD0E003C0FE0119
:0E45900052DD2196C13CD107D1F7F894FFCF40
:10459E000A00F40196000A0000000000A604990427
:1045AE007504AC116F0464043E043A04AA0A39047B
:1045BE0004050607050403020100000102030102BF
:1045CE00030000000000A60499047504AC116F04EA
:1045DE0064043E043A04AC05390400000000A6044D
:1045EE0099047504AC116F0464043E043A04F60D8C
:1045FE00390400000000A60499047504AC116F0480
:10460E00640445053A043904551000000000A60460
:10461E00990475043B046F0464043E043A0439049F
:10462E0039041010F8000000001010104040000077
:10463E0000001000781E00A02800F03C0040510041
:10464E00127A00E4A20024F40048E80190D003207E
:10465E00A107000000004203540336040E033C037E
:10466E002A03160300000000980977092F07CC06CD
:10467E00CF06FE0892074C082F082908F0076C0990
:10468E006109AF04AC040000000001010101010149
:10469E0002020202000000001020408020100804D8
:1046AE000201010204080204080100000000900348
:1046BE000B0236048F030604180477030D0A006EEE
:1046CE00616E00696E66006F7666002E004E65772D
:1046DE00204944200053657420746172650053654F
:1046EE00742063616C6962726174696F6E00554902
:1046FE00442000687569642000746172652000664C
:10470E006163746F7220005363616C65204F4B00C0
:10471E005363616C65206572726F720054617265CD
:10472E0020646F6E650043616C6962726174696FBB
:0B473E006E20646F6E6500203E2000BE
:10474900881326381A3812380000803F0000703963
:024759008000DE
:00000001FF
